:100000000C9482080C94B3080C94B3080C94B308B5
:100010000C94B3080C94B3080C94B3080C94B30874
:100020000C94B3080C94B3080C94B3080C94B30864
:100030000C94056C0C94B3080C94B3080C94B3089E
:100040000C94B3080C94B3080C94B3080C94B30844
:100050000C94B3080C94B3080C94B3080C94FF3BB5
:100060000C94B3080C94733C0C94493C0C94B30866
:100070000C94B3080C94B3080C94B3080C94B30814
:100080000C94B3080C94B3080C94B3080C94B30804
:100090000C94B3080C94B3080C94B3080C94B308F4
:1000A0000C94B3080C94B3080C94B3080C94B308E4
:1000B0000C94B3080C94B3080C94B3080C94B308D4
:1000C0000C94B3080C94B3080C94B3080C94B308C4
:1000D0000C94B3080C94B3080C94B3080C94B308B4
:1000E0000C94B308FC56FC56FC5630577659D85938
:1000F000FC56FC56305776592D343234373441345F
:100100004B34C43455345D3465346F3479348334BE
:1001100092349C34C434A634B034BA346B3B6E3B56
:100120005D3B613B653BA53B723B763B7C3B803B4B
:10013000843B8A3B8E3B923BA53B983B9C3BA03B40
:1001400005A84CCDB2D44EB93836A9020C50B9919D
:100150008688083CA6AAAA2ABE000000803F0C940C
:1001600032340C94B83C0C94AC400C94983A0C94F7
:10017000533A0C94DF3A0C94A63E0C942A400C940B
:10018000983B0C944B340C94AF400C94723B0C9401
:100190008E3B0C94B13C0C946B3B0C946F340C94E0
:1001A00065460C94946E0C94303A0C94BA340C94CA
:1001B0002D340C940A410C9476420C94A53B0C947B
:1001C000AA3D0C947C3B0C94B0340C94B43C0C943D
:1001D000E04B0C94DA010C945D340C9439460C9489
:1001E0005D3D0C943F3A0C949C3B0C9471320C9402
:1001F00079340C94763B0C947D3F0C9455340C94DC
:10020000613A0C94B2400C94613B0C94923B0C9478
:10021000A6340C9465340C94A93C0C946D450C9454
:10022000D8590C9437340C945D3B0C94803B0C945F
:100230009C340C94AE3C0C9441340C9492340C9449
:100240002E410C94843B0C9430570C946E3B0C94D0
:10025000803F0C94C4340C94653B0C94A03B0C94EC
:100260008A3B0C94B5400C94B03D0C94BB400C946C
:10027000AD3D0C94CE420C9483340C94C1400C944C
:10028000624A0C94FC560C94BE430C94B8400C94F7
:1002900076590C947A3F0C941E350C94C4400C94FF
:1002A000013A0C94F6460C943A3B0C94BE40000084
:1002B0000A0B02090C0D0E080703040100000000E0
:1002C000000000000000000000000000000000002E
:1002D00000000000000000000000121110000000EB
:1002E000000000000000000000000000000000000E
:1002F0000000000000002200250028002B002E0036
:100300003100340002010000050108010B0100006A
:100310002100240027002A002D00300033000101B5
:100320000000040107010A01050505050705080885
:100330000808020202020A0A08080404040401016F
:100340000101010101010303030303030303040784
:1003500007070C0C0C0C0C0C0C0C0202020206061B
:100360000606060606060B0B0B0B0B0B0B0B01020E
:1003700010202008081020401020408002010201B7
:10038000080402010102040810204080804020106F
:1003900008040201800402018040201008040201C8
:1003A0000804020101020408102040800102040830
:1003B0001020408019E0EE24EA94FE2CAA24AA948E
:1003C000BA2C7724739401E08091D813882309F420
:1003D0004EC680910F058F5F80930F05C0903C1330
:1003E0000FB6F8940F9280910F05815080930F05FE
:1003F00080910F058111A1C180919813882309F480
:100400009CC180914A1390914B1320914513222354
:1004100009F479C0DC011696ED91FC911797A48937
:10042000B5892685378540895189E9015D834C83EB
:10043000C089D1893B832A839F01245F3F4F119656
:100440004D915C9112974217530721F41296DC9359
:10045000CE931197158A148A2C9121502C939F01C9
:100460002E5F3F4FA285B385448155816681778198
:10047000EA017D836C83C681D7815B834A831196B1
:100480004D915C9112974217530721F41296DC9319
:10049000CE931197138612864C9141504C93A689A6
:1004A00040912C134A1710F4A0932C131A9FD001DB
:1004B0001124BD01605A7C4EDB011196CD91DC9177
:1004C0001297D583C4834C815D81578346834C81C9
:1004D0005D81DA0113963C932E9312973D832C8312
:1004E00073876287EB0128812F5F2883A091961381
:1004F000B0919713368956962C91321708F485CF10
:1005000000930E0582CF80910D0581113EC0809130
:100510000E05813009F011C10E94086C0EC1809156
:100520000F05811100C180910B0590910C0501967A
:1005300090930C0580930B0580910B0590910C0511
:10054000009741F12091080530910905D12C8217BF
:10055000930708F0A8C0E0919613F0919713E689ED
:100560001E9FF0011124E05AFC4E8081823010F071
:10057000DD24D39480910E058111DCC0D110DAC046
:1005800080910D05815080930D0580910D0581119D
:10059000C6CFBDCF209131133091321340912F132C
:1005A00050913013509332134093311330933013E2
:1005B00020932F1320910A052F5F20930A05E091C5
:1005C0003113F09132132081211105C0B092090539
:1005D000A0920805B7CFE0913113F0913213058056
:1005E000F681E02D0680F781E02D22813381309362
:1005F000090520930805A6CF9F012E5F3F4FA285D6
:10060000B3854481558166817781EA017D836C835E
:10061000C681D7815B834A8311964D915C91129775
:100620004217530721F41296DC93CE931197138649
:1006300012864C9141504C93A489B589109709F0CA
:1006400053C0A68940912C134A1710F4A0932C1381
:100650001A9FD0011124BD01605A7C4EDB01119616
:10066000CD91DC911297D583C4834C815D815783F2
:1006700046834C815D81DA0113963C932E93129749
:100680003D832C8373876287EB0128812F5F28834A
:10069000A0919613B0919713368956962C913217E4
:1006A00010F0DD24D394E0913113F09132132081C6
:1006B000211105C0B0920905A09208054CCFE09128
:1006C0003113F09132130580F681E02D0680F78119
:1006D000E02D228133818217930708F08DCF30936C
:1006E00009052093080537CF4685578560897189AC
:1006F000EA017D836C83C089D1895B834A8311962B
:100700006D917C911297AF01445F5F4F641775073D
:1007100021F41296DC93CE931197158A148A4C918A
:1007200041504C938ECF80910D058F5F80930D05C6
:10073000D12C20CF00930E0523CF0F900FBECC20DD
:1007400009F442CE0FB6F8940F92E0914113F09164
:100750004213C681D781EA85FB858C819D812E81DC
:100760003F81DC0115963C932E931497AE81BF8197
:1007700013969C938E931297CE010296218132811B
:100780002817390711F4B283A1831B861A8680814A
:100790008150808380919813815080939813809129
:1007A000D81381508093D8130F900FBEAF89B88DA6
:1007B000109709F449C24D01E8E08E1A9108D4015E
:1007C00012964D915C9113978091100590911105AF
:1007D0009C0124233523232B09F436C22D913C910F
:1007E000232B09F031C2F4018095909548235923B9
:1007F0005383428380910F058F5F80930F05809113
:10080000120590911305840F951F90931305809303
:10081000120586E195E0DC012D913C911197281598
:10082000390510F4C901F7CF12966D917C91139799
:100830006C01C60ED71E8C149D0439F4460F571F49
:1008400013965C934E931297FC0142815381BF0132
:10085000640F751F6217730791F460912A137091EA
:100860002B132617370759F0D90112966D917C91F9
:100870001397460F571F538342832D913C91318329
:1008800020838E179F0719F0DC01ED93FC930FB6C0
:10089000F8940F9280910F05815080930F058091FD
:1008A0000F058111CFC180919813882309F4CAC123
:1008B00020914A1330914B1380914513882309F4FA
:1008C00090C0D9011696ED91FC911797C488D588F0
:1008D0004685578580899189DA0115969C938E9378
:1008E000149780899189DC0113965C934E9312973B
:1008F000AF01445F5F4FD60111966D917C911297C5
:100900006417750721F412969C938E931197158A9C
:10091000148AD6018C9181508C93AF014E5F5F4F4A
:10092000C284D3846481758186819781DB011596A9
:100930009C938E93149786819781DC0113967C9308
:100940006E931297D60111966D917C911297641750
:10095000750721F412969C938E9311971386128635
:10096000D6018C9181508C93A68980912C138A1783
:1009700010F4A0932C131A9FD0011124CD01805A9A
:100980009C4E6C01DC0111968D919C911297958380
:100990008483DC0114966D917C911597778366832F
:1009A00014966D917C911597DB0113965C934E9391
:1009B0001297DC0115965C934E931497D386C286EA
:1009C000D6018C918F5F8C93A0919613B091971361
:1009D000968956968C91981708F46ECF70920E05F2
:1009E0006BCF80910D0581113EC080910E05813045
:1009F00009F028C10E94086C25C180910F05811162
:100A000017C180910B0590910C05019690930C05F0
:100A100080930B0540910B0550910C054115510534
:100A200039F180910805909109054817590708F098
:100A300051C080E0E0919613F0919713E6891E9FD4
:100A4000F0011124E05AFC4E9081923008F081E0D0
:100A500090910E059111F3C08111F1C080910D05A7
:100A6000815080930D0580910D058111C6CFBDCFBA
:100A7000809131139091321320912F1330913013C4
:100A800030933213209331139093301380932F13AC
:100A900080910A058F5F80930A05E0913113F091F0
:100AA00032138081811105C0F0920905E09208059A
:100AB000B8CFE0913113F09132130580F681E02D2B
:100AC0000680F781E02D82819381909309058093C0
:100AD0000805A7CF80E0E0913113F09132139081A7
:100AE000911105C0F0920905E0920805A3CFE091AD
:100AF0003113F09132130580F681E02D0680F781E5
:100B0000E02D228133814217530728F430930905E1
:100B1000209308058FCFBF016E5F7F4F828493843F
:100B2000C480D58026813781D60115963C932E93BB
:100B3000149726813781D9011396DC92CE921297B1
:100B4000D4011196CD90DC901297C616D70621F4E9
:100B500012963C932E93119713861286D4019C9182
:100B600091509C93448855884114510429F126855D
:100B70003785C088D188D9011596DC92CE9214971A
:100B8000C088D188D60113963C932E931297D20138
:100B900011968D909C9012979F01245F3F4F821673
:100BA000930621F41296DC92CE921197158A148A3C
:100BB000D2019C9191509C93A68990912C139A17E5
:100BC00010F4A0932C131A9FD00111249D01205AD8
:100BD0003C4E4901D90111962D913C9112973583D4
:100BE0002483D9011496CD90DC901597D782C682C4
:100BF0001496CD90DC901597D60113967C936E9346
:100C00001297D90115967C936E93149793868286DA
:100C1000D4019C919F5F9C93A0919613B0919713E0
:100C2000268956969C91291708F455CF81E053CF19
:100C300080910D058F5F80930D0580E009CF0093B3
:100C40000E050CCF0F900FBE209709F4BDCB28974F
:100C50002A813B818091100590911105AC014223BE
:100C60005323452B09F4B0CB48815981452B09F01A
:100C7000ABCBFE0180959095282339233B832A83B3
:100C800080910F058F5F80930F05809112059091E1
:100C90001305820F931F9093130580931205A6E10D
:100CA000B5E08D919C9111978C179D0710F4DC0194
:100CB000F8CF12964D915C911397BD01640F751F8B
:100CC000C617D70739F4240F351F13963C932E937C
:100CD0001297FD0122813381AF01420F531F481744
:100CE000590781F440912A1350912B1384179507CB
:100CF00049F0EC014A815B81240F351F3383228345
:100D00008881998191838083AE17BF0711F0ED939D
:100D1000FC930FB6F8940F9280910F058150809349
:100D20000F0580910F0581119FC180919813882331
:100D300009F49AC160914A1370914B138091451345
:100D4000882309F477C0DB011696ED91FC91179783
:100D5000A489B5892685378580899189E9019D8394
:100D60008C8380899189EC013B832A839F01245FD6
:100D70003F4F11964D915C9112974217530721F402
:100D800012969C938E931197158A148A8C91815098
:100D90008C93CF010296A285B3854481558126812B
:100DA0003781EA013D832C8326813781E9015B830A
:100DB0004A8311964D915C9112974817590721F477
:100DC00012963C932E931197138612862C912150E4
:100DD0002C93A68920912C132A1710F4A0932C137E
:100DE0001A9FD0011124A05ABC4E11962D913C910E
:100DF000129735832483E9014C815D8157834683B3
:100E00004C815D81EA019B838A83E9019D838C8308
:100E1000B387A2878C918F5F8C93A0919613B0912A
:100E20009713968956968C91981708F487CF7092ED
:100E30000E0584CF80910D0581113EC080910E0575
:100E4000813009F011C10E94086C0EC180910F051C
:100E5000811100C180910B0590910C050196909332
:100E60000C0580930B0580910B0590910C05009764
:100E700041F12091080530910905D12C8217930783
:100E800008F0A8C0E0919613F0919713E6891E9F91
:100E9000F0011124E05AFC4E8081823010F0DD24F4
:100EA000D39480910E058111DCC0D110DAC08091FD
:100EB0000D05815080930D0580910D058111C6CFE0
:100EC000BDCF209131133091321340912F135091A7
:100ED00030135093321340933113309330132093D7
:100EE0002F1320910A052F5F20930A05E0913113FB
:100EF000F09132132081211105C0F0920905E09292
:100F00000805B7CFE0913113F09132130580F681D7
:100F1000E02D0680F781E02D228133813093090591
:100F200020930805A6CF9F012E5F3F4FA285B38572
:100F30004481558166817781EA017D836C83C68116
:100F4000D7815B834A8311964D915C91129742172A
:100F5000530721F41296DC93CE93119713861286D1
:100F60004C9141504C93A489B589109709F053C016
:100F7000A68940912C134A1710F4A0932C131A9FA2
:100F8000D0011124BD01605A7C4EDB011196CD9138
:100F9000DC911297D583C4834C815D81578346834E
:100FA0004C815D81DA0113963C932E9312973D8319
:100FB0002C8373876287EB0128812F5F2883A091A0
:100FC0009613B0919713368956962C91321710F0DC
:100FD000DD24D394E0913113F0913213208121115B
:100FE00005C0F0920905E09208054CCFE09131135D
:100FF000F09132130580F681E02D0680F781E02D17
:10100000228133818217930708F08DCF3093090531
:101010002093080537CF4685578560897189EA0195
:101020007D836C83C089D1895B834A8311966D91DE
:101030007C911297AF01445F5F4F6417750721F4ED
:101040001296DC93CE931197158A148A4C914150D5
:101050004C938ECF80910D058F5F80930D05D12C21
:1010600020CF00930E0523CF0F900FBEADC9809106
:101070006013823010F00E94086C80E090E0892BB1
:1010800069F0809110142091111490E0805C9F4FC2
:10109000821B91098F739927892B51F580E090E08D
:1010A000892B41F080E090E0892B21F00E94000024
:1010B000811121C080E090E0892B41F080E090E038
:1010C000892B21F00E940000811118C080E090E07F
:1010D000892B09F476C980E090E0892B09F471C965
:1010E0000E940000882309F46CC90E94000069C9AD
:1010F0000E940000D3CF0E940000DCCF0E940000BD
:10110000E5CF946E11241FBECFEFD1E2DEBFCDBF7D
:1011100000E00CBF2AE1AEEEB4E001C01D92AE3794
:10112000B207E1F714E0A0E0B2E0E4ECFEEE00E08C
:101130000BBF02C007900D92AE3EB107D9F718E081
:10114000C2E8D8E000E006C021970109802FFE0127
:101150000E94E471C138D10780E00807A9F70E9416
:10116000D66C0C9460770C940000EBE7F3E02491CC
:10117000E5E3F3E08491882399F090E0880F991FCC
:10118000FC01E25FFC4FA591B491FC01EC50FD4FD6
:10119000859194918FB7F894EC91E22BEC938FBFEB
:1011A000E6E9F3E02491E0E5F3E08491882399F007
:1011B00090E0880F991FFC01E25FFC4FA591B4916C
:1011C000FC01EC50FD4F859194918FB7F894EC9110
:1011D000E22BEC938FBFE8E7F3E02491E2E3F3E046
:1011E0008491882399F090E0880F991FFC01E25FB9
:1011F000FC4FA591B491FC01EC50FD4F8591949169
:101200008FB7F894EC91E22BEC938FBFC090CC1584
:10121000D090CD15E090CE15F090CF15C091CA15A5
:10122000D091CB1560E079E08DE390E0A7019601C5
:101230000E942F77DA01C9010197A109B109B6957A
:10124000A795979587959C01E889F98982E0808325
:10125000C11441EED406E104F10421F0211550E15E
:101260003507A8F0E889F989108260E874E88EE112
:1012700090E0A70196010E942F77DA01C90101973A
:10128000A109B109B695A795979587959C01EC851D
:10129000FD853083EE85FF852083188EEC89FD89DE
:1012A00086E08083EA89FB89808180618083EA8986
:1012B000FB89808188608083EA89FB8980818068DE
:1012C0008083EA89FB8980818F7D80831092451A13
:1012D0001092441A1092471A1092461A10924B1A02
:1012E00010924A1A1092491A1092481AE2E1FAE151
:1012F00080E090E021913191232B81F4FC01EE0FED
:10130000FF1FEE5EF54E24E934E1318320838C59D2
:101310009F4F909397148093961404C0019689313F
:10132000910541F7E0EEF9E1DF0180E090E02D91D9
:101330003D91232BB1F4DC01AA0FBB1FA052B64E86
:1013400026EA35E12D933C9383589F4F9093AB153C
:101350008093AA1588EC95E19093AD158093AC1518
:1013600004C001968931910511F7A0EEB9E180E042
:1013700090E02D913D91232BB1F4DC01AA0FBB1F0E
:10138000A052B64E2CE935E12D933C9383589F4FE4
:101390009093A1158093A01588EC95E19093A315E7
:1013A0008093A21504C001968931910511F7A0EE32
:1013B000B9E180E090E02D913D91232BB1F4DC0167
:1013C000AA0FBB1FA052B64E22E935E12D933C93E4
:1013D00083589F4F909397158093961588EC95E1CD
:1013E000909399158093981504C0019689319105C1
:1013F00011F7A0EEB9E180E090E02D913D91232B13
:10140000B1F4DC01AA0FBB1FA052B64E28E835E1AB
:101410002D933C9383589F4F90938D1580938C15FB
:1014200088EC95E190938F1580938E1504C00196FA
:101430008931910511F7A0EEB9E180E090E02D919E
:101440003D91232BB1F4DC01AA0FBB1FA052B64E75
:101450002CE635E12D933C9383589F4F9093711563
:101460008093701588EC95E19093731580937215B5
:1014700004C001968931910511F7A0EEB9E180E031
:1014800090E02D913D91232BB1F4DC01AA0FBB1FFD
:10149000A052B64E22E635E12D933C9383589F4FE0
:1014A000909367158093661588EC95E19093691584
:1014B0008093681504C001968931910511F7A0EE5B
:1014C000B9E180E090E02D913D91232BB1F4DC0156
:1014D000AA0FBB1FA052B64E28E535E12D933C93D1
:1014E00083589F4F90935D1580935C1588EC95E130
:1014F00090935F1580935E1504C001968931910524
:1015000011F7A0EEB9E180E090E02D913D91232B01
:10151000B1F4DC01AA0FBB1FA052B64E2CE335E19B
:101520002D933C9383589F4F909341158093401582
:1015300088EC95E1909343158093421504C0019681
:101540008931910511F7A0EEB9E180E090E02D918D
:101550003D91232BB1F4DC01AA0FBB1FA052B64E64
:1015600022E335E12D933C9383589F4F9093371599
:101570008093361588EC95E1909339158093381552
:1015800004C001968931910511F780E090E0219126
:101590003191232BB1F4FC01EE0FFF1FE052F64E08
:1015A00028E235E13183208383589F4F90932D1596
:1015B00080932C1588EC95E190932F1580932E1530
:1015C00004C001968931910511F780E090E0A8EC04
:1015D000B2E48093CB139093CC13A093CD13B0932C
:1015E000CE1380E090E0A1EEB3E48093C713909314
:1015F000C813A093C913B093CA1380911A1581110F
:1016000048C0E091FE14F091FF14C080D180E280C8
:10161000F380C0920615D0920715E0920815F0925B
:101620000915E091FC14F091FD1480819181A28153
:10163000B38180930A1590930B15A0930C15B0936A
:101640000D158090161590901715A0901815B09054
:101650001915A5019401C701B6010E941774181647
:1016600084F08090121590901315A0901415B090EE
:101670001515A5019401C701B6010E94747287FF78
:1016800008C08092061590920715A0920815B09296
:10169000091581E080931A1580910F058F5F809363
:1016A0000F0580912A1390912B13892BE1F5AAE164
:1016B000B5E0CD0187709927892B41F0A1E2B5E013
:1016C000A87FEAE2F3E1EA1BFB0B02C0E0E1FEE0E7
:1016D000B0931705A09316051092190510921805DE
:1016E000EA0FFB1F3897E87FF0932B13E0932A1340
:1016F0001382128211821082CF018A1B9B0B1396D8
:101700009C938E931297ED93FC9390931505809381
:101710001405909313058093120580E090E8909350
:10172000110580931005A0901005B0901105C5011A
:101730008C7B9270892B09F093C0409112055091D7
:101740001305483C82E0580708F48AC0A0911605AA
:10175000B0911705E6E1F5E012966D917C91139733
:10176000683C92E0790740F0E0902A13F0902B1348
:10177000AE15BF0549F474C08D919C9111970097E7
:1017800099F3FD01DC01E8CFC081D1813E0128E061
:10179000620E711C8D919C91119791838083685C7E
:1017A000724061317105F0F1FD01E853FD4F738323
:1017B000628388EC92E013969C938E93129786E155
:1017C00095E0EC01288139812E173F0710F4C901FB
:1017D000F8CF0A811B816C01C00ED11EEC15FD05EE
:1017E00029F4600F711F7B836A83FC01628173811E
:1017F0008F01060F171F0217130761F42E153F05FF
:1018000049F0E9010A811B81600F711F73836283B4
:1018100028813981318320838E179F0719F0EC01CD
:10182000F983E88312968D919C911397481B590B6D
:10183000509313054093120520911405309115051E
:101840004217530720F45093150540931405A82A16
:10185000B92A1396BC92AE9212971D921C9202C0A6
:10186000612C712C0FB6F8940F9280910F05815066
:1018700080930F0580910F058111A3C1809198136A
:10188000882309F49EC140914A1350914B1379E08B
:1018900011E080914513882309F478C0FA01C681CC
:1018A000D781EC89FD892E853F8588899989D90161
:1018B00015969C938E931497A889B98913963C9397
:1018C0002E9312979E01245F3F4FE180F280E21633
:1018D000F30611F4B283A1831D8A1C8A2081215052
:1018E00020839E012E5F3F4FEA85FB85EC80FD80C3
:1018F0008E819F81D70115969C938E931497AE810C
:10190000BF811396FC92EE921297E180F280E2166C
:10191000F30611F4B283A1831B861A86608161509D
:101920006083EE8960912C136E1710F4E0932C13F2
:101930007E9FF0011124CF01805A9C4EFC01A181B1
:10194000B281BD83AC831496ED90FC901597FF8215
:10195000EE821496ED90FC901597F7013383228365
:1019600015963C932E9314979B878A87DC012C91C4
:101970002F5F2C93E0919613F09197139E8986899F
:10198000981708F486CF10930E0583CF80910D052C
:10199000811108C080910E05813009F012C10E94AA
:1019A000086C0FC199E0BB24B3944FEF5FEF8091B7
:1019B0000D05882379F380910F058111EFC02091E7
:1019C0000B0530910C052F5F3F4F30930C05209392
:1019D0000B0520910B0530910C052115310589F57A
:1019E0006091311370913213E0912F13F091301305
:1019F000F0933213E09331137093301360932F13ED
:101A000080910A058F5F80930A05E0913113F09170
:101A100032138081811105C0509309054093080558
:101A200010C0E0913113F09132130580F681E02D62
:101A30000680F781E02D62817381709309056093C0
:101A40000805609108057091090580E026173707A1
:101A500008F495C0E0913113F09132136081611167
:101A600005C0509309054093080589C0E0913113E2
:101A7000F09132130580F681E02D0680F781E02D8C
:101A8000628173812617370728F4709309056093E4
:101A9000080575C0BF016E5F7F4FA285B385E480E6
:101AA000F58006811781E7011D830C83C681D781EC
:101AB000FB82EA821196ED90FC901297E616F706EB
:101AC00021F41296DC93CE931197138612861C9103
:101AD00011501C93A489B5891097F1F006851785DC
:101AE000E088F188E801FD82EC82C089D1891B83FE
:101AF0000A831196CD90DC9012978F01045F1F4FDF
:101B0000C016D10621F41296DC93CE931197158A54
:101B1000148A1C9111501C93A689B0912C13BA17EA
:101B200010F4A0932C139A9FD00111248D01005A18
:101B30001C4ED8011196CD91DC911297D583C483A8
:101B4000EC80FD80F782E682EC80FD80D701139661
:101B50007C936E9312977D836C8313870287E801D1
:101B600068816F5F6883A0919613B091971376890F
:101B700056966C91761708F46DCF81E06BCFE091AB
:101B80009613F0919713E6899E9FF0011124E05A75
:101B9000FC4E2081223040F081E006C080910D058E
:101BA0008F5F80930D0580E020910E05211101C00B
:101BB0008111B0920E0580910D05815080930D0525
:101BC000F6CE0F900FBE6114710469F4279A2F9A14
:101BD000DFEFE0E7F2E0D150E040F040E1F700C095
:101BE00000001F9AF5CF80910F058F5F80930F053E
:101BF00080912A1390912B13892BE1F5AAE1B5E08E
:101C0000CD0187709927892B41F0A1E2B5E0A87F2B
:101C1000EAE2F3E1EA1BFB0B02C0E0E1FEE0B09375
:101C20001705A09316051092190510921805EA0FD2
:101C3000FB1F3897E87FF0932B13E0932A1313824E
:101C4000128211821082CF018A1B9B0B13969C93E8
:101C50008E931297ED93FC93909315058093140542
:101C6000909313058093120580E090E890931105FE
:101C7000809310058090100590901105C4018B721F
:101C80009927892B09F08CC0A0901205B0901305FC
:101C900028E3A216B10408F483C0E0911605F09180
:101CA0001705A6E1B5E0428153814833510540F064
:101CB000E0902A13F0902B13EE15FF0541F470C04D
:101CC000808191810097A1F3DF01FC01ECCF0D91A0
:101CD0001C911197085F1F4F808191818D939C9378
:101CE000485351094131510508F440C0DF01D896ED
:101CF00053AF42AF88E390E09383828386E195E01F
:101D0000EC01288139812A173B0710F4C901F8CF6B
:101D10006A817B816C01C60ED71EAC15BD0529F406
:101D2000460F571F5B834A83DC0112964D915C91ED
:101D30001397BD01640F751F6217730771F42E1599
:101D40003F0559F0E9016A817B81460F571F1396C1
:101D50005C934E9312972881398111963C932E9370
:101D60008A179B0719F0EC01B983A88382819381BC
:101D7000A81AB90AB0921305A09212052091140571
:101D800030911505A216B30620F4B0921505A09265
:101D90001405882A992A938282821182108202C0B5
:101DA00000E010E00FB6F8940F9280910F0581507B
:101DB00080930F0580910F058111A4C18091981324
:101DC000882309F49FC140914A1350914B1379E045
:101DD000FF24F39480914513882309F478C0FA0115
:101DE000C681D781EC89FD892E853F8588899989AF
:101DF000D90115969C938E931497A889B989139647
:101E00003C932E9312979E01245F3F4FC180D28056
:101E1000C216D30611F4B283A1831D8A1C8A2081C5
:101E2000215020839E012E5F3F4FEA85FB85CC80A9
:101E3000DD808E819F81D60115969C938E93149799
:101E4000AE81BF811396DC92CE921297C180D28070
:101E5000C216D30611F4B283A1831B861A86608151
:101E600061506083EE8960912C136E1710F4E0933B
:101E70002C137E9FF0011124CF01805A9C4EFC014F
:101E8000A181B281BD83AC831496CD90DC9015976F
:101E9000DF82CE821496CD90DC901597F6013383C5
:101EA000228315963C932E9314979B878A87DC0197
:101EB0002C912F5F2C93E0919613F09197139E89AC
:101EC0008689981708F486CFF0920E0583CF80910B
:101ED0000D05811108C080910E05813009F012C1F5
:101EE0000E94086C0FC1B9E0AB2E992493946FEF58
:101EF0007FEF80910D05882371F380910F0581118B
:101F0000EEC080910B0590910C05019690930C0505
:101F100080930B0580910B0590910C05009789F536
:101F2000209131133091321340912F13509130137F
:101F300050933213409331133093301320932F1367
:101F400020910A052F5F20930A05E0913113F0914B
:101F500032132081211105C0709309056093080593
:101F600010C0E0913113F09132130580F681E02D1D
:101F70000680F781E02D228133813093090520937B
:101F800008052091080530910905B12C82179307A7
:101F900008F495C0E0913113F091321320812111A2
:101FA00005C0709309056093080589C0E09131135D
:101FB000F09132130580F681E02D0680F781E02D47
:101FC000228133818217930728F4309309052093E7
:101FD000080575C09F012E5F3F4FA285B385E48041
:101FE000F58046815781E7015D834C8346815781A7
:101FF000EA01FB82EA821196ED90FC901297E216BC
:10200000F30621F412965C934E9311971386128671
:102010004C9141504C93A489B5891097F9F04685AD
:102020005785E088F188EA01FD82EC82E088F1883A
:10203000E7015B834A831196CD90DC901297AF0144
:10204000445F5F4FC416D50621F41296FC92EE92BF
:102050001197158A148A4C9141504C93A68940914E
:102060002C134A1710F4A0932C13AA9ED00111240C
:10207000A05ABC4E11964D915C91129755834483A2
:10208000EA01EC80FD80F782E682EC80FD80E701CA
:102090003B832A83EA013D832C83B387A2872C915B
:1020A0002F5F2C93A0919613B09197133689569673
:1020B0002C91321708F46ECFBB24B3946BCFE09110
:1020C0009613F0919713E689AE9EF0011124E05A21
:1020D000FC4E8081823048F0BB24B39406C08091CE
:1020E0000D058F5F80930D05B12C80910E05811138
:1020F00001C0B11090920E0580910D058150809322
:102100000D05F7CE0F900FBE0115110569F4279A42
:102110002F9ADFEFE0E7F2E0D150E040F040E1F746
:1021200000C000001F9AF5CFD80158967C926E929D
:1021300057974CEB52E065EA70E0C3010E94D175FD
:10214000E801EF89F88DE554FD4FE87FA801475E6F
:102150005F4FAAECB2E088E08A0F9D019D91EA01F1
:102160009993AE01E9019881992311F08A13F5CF73
:10217000D80190961C92909783E056968C93569730
:1021800093968C93939794961C92949798012E5FB4
:102190003F4F1B961C921E921A9755961C921E92A8
:1021A000549719961C930E93189743E050E01D9690
:1021B0005C934E931C9753961C930E935297E80191
:1021C0001DA21EA21FA218A61AA619A641E14083AD
:1021D000DF01119792E29C93119753E35C936EE1B8
:1021E00075E311976C9311977C9311971C9211973B
:1021F0001C92119750E85C9311971C9211971C92B6
:1022000011971C92119752E05C9311978C93119740
:1022100084E08C93119785E08C93119786E08C93E2
:10222000119787E08C93119788E08C93119789E040
:102230008C93119780E18C9311974C93119782E1C5
:102240008C93119783E18C93119784E18C93119770
:1022500085E18C93119786E18C93119787E18C939C
:10226000119788E18C93119789E18C93119780E203
:102270008C93119781E28C9311979C93119783E231
:102280008C9311971C9211971C92119786E28C9354
:10229000119787E28C93119788E28C93119789E2CA
:1022A0008C93119780E38C93119781E38C93B9976A
:1022B000F983E8830FB6F8940F92809198138F5F9B
:1022C000809398138091961390919713892B09F01E
:1022D00090C01093971300939613809198138130B8
:1022E00009F096C0E0E6F3E16FEF7FEFCF010396D0
:1022F000928381834FEF5FEF74836383968385833B
:102300009087878310823996B3E1E639FB0771F72E
:102310008AE593E1909359138093581350935B137C
:1023200040935A1390935D1380935C1390935F13C3
:1023300080935E131092571381E593E190935013AD
:1023400080934F135093521340935113909354130F
:1023500080935313909356138093551310924E13FA
:1023600088E493E190934713809346135093491365
:102370004093481390934B1380934A1390934D13BB
:1023800080934C13109245138FE393E190933E1387
:1023900080933D135093401340933F139093421307
:1023A00080934113909344138093431310923C13F2
:1023B00086E393E19093351380933413509337134E
:1023C00040933613909339138093381390933B13B3
:1023D00080933A131092331387E593E1909332136D
:1023E000809331138EE493E19093301380932F13F5
:1023F0000FC080912E1381110BC0E0919613F091C4
:1024000097138689843020F41093971300939613C2
:1024100080912D138F5F80932D13E80189A3EE899E
:1024200080912C138E1710F4E0932C13D9E0ED9FBC
:10243000F0011124E05AFC4EA181B281E801BD8374
:10244000AC8314968D919C9115979F838E831496DF
:10245000CD91DC9115973B832A8315963C932E935F
:102460001497D8011B96FC93EE931A9780818F5F87
:1024700080830F900FBE80912E13882349F0E09146
:102480009613F09197138689833010F40E94086C9C
:1024900080910F058F5F80930F0580912A13909193
:1024A0002B13892BE1F5AAE1B5E0CD0187709927BF
:1024B000892B41F0A1E2B5E0A87FEAE2F3E1EA1B53
:1024C000FB0B02C0E0E1FEE0B0931705A0931605F8
:1024D0001092190510921805EA0FFB1F3897E87F34
:1024E000F0932B13E0932A1313821282118210822D
:1024F000CF018A1B9B0B13969C938E931297ED939F
:10250000FC93909315058093140590931305809385
:10251000120580E090E89093110580931005A0903B
:102520001005B0901105C50184769927892B09F013
:1025300091C040911205509113054037510508F4A0
:1025400089C0A0911605B0911705E6E1F5E0129655
:102550006D917C9113976037710540F0E0902A13DC
:10256000F0902B13AE15BF0549F474C08D919C916A
:102570001197009799F3FD01DC01E9CFC081D1816A
:102580003E0128E0620E711C8D919C911197918300
:1025900080836057710961317105F0F1FD01E059E7
:1025A000FF4F7383628380E790E013969C938E9332
:1025B000129786E195E0EC01288139812E173F07BB
:1025C00010F4C901F8CF0A811B816C01C00ED11E25
:1025D000EC15FD0529F4600F711F7B836A83FC01F4
:1025E000628173818F01060F171F0217130761F4B1
:1025F0002E153F0549F0E9010A811B81600F711F0B
:102600007383628328813981318320838E179F07EA
:1026100019F0EC01F983E88312968D919C91139740
:10262000481B590B50931305409312052091140534
:10263000309115054217530720F450931505409328
:102640001405A82AB92A1396BC92AE9212971D922D
:102650001C9202C0612C712C0FB6F8940F928091DD
:102660000F05815080930F0580910F058111B2C134
:1026700080919813882309F4ADC120914A133091B9
:102680004B1319E001E080914513882309F489C0B8
:10269000F901A681B7815496ED91FC9155971E964C
:1026A0004D915C911F9750968D919C915197EA01A5
:1026B0009D838C8350968D919C915197EC015B8307
:1026C0004A83AD01445F5F4F618172816417750772
:1026D00011F49283818355961C921E9254978081A7
:1026E00081508083BD016E5F7F4F1A96ED91FC9102
:1026F0001B9714964D915C91159716968D919C9110
:102700001797EA019D838C8316968D919C9117975C
:10271000EC015B834A83418152814617570711F4CC
:10272000928381831B961C921E921A9780818150FE
:10273000808356968C91569790912C13981710F48D
:1027400080932C13189FC0011124AC01405A5C4E99
:10275000EA01E981FA811596FC93EE93149784813E
:10276000958117969C938E93169784819581EC01A1
:102770007B836A83758364831B965C934E931A975D
:10278000FA0190819F5F9083E0919613F0919713E7
:1027900056969C918689981708F475CF00930E057C
:1027A00072CF80910D05811108C080910E05813096
:1027B00009F010C10E94086C0DC139E0BB24B3942C
:1027C0004FEF5FEF80910D05882379F380910F051E
:1027D0008111EDC080910B0590910C0501969093AD
:1027E0000C0580930B0560910B0570910C0561152C
:1027F000710589F58091311390913213E0912F1377
:10280000F0913013F0933213E0933113909330131F
:1028100080932F1380910A058F5F80930A05E091C2
:102820003113F09132138081811105C05093090555
:102830004093080510C0E0913113F09132130580E8
:10284000F681E02D0680F781E02D828193819093BF
:10285000090580930805809108059091090520E0FD
:102860006817790708F494C0E0913113F09132139E
:102870008081811105C0509309054093080588C0E7
:10288000E0913113F09132130580F681E02D06803E
:10289000F781E02D828193816817790728F490935E
:1028A00009058093080574C08F010E5F1F4FA28534
:1028B000B385E480F58086819781E7019D838C83D1
:1028C00086819781EC01FB82EA821196ED90FC9063
:1028D0001297E016F10621F412969C938E931197AD
:1028E000138612868C9181508C93A489B589109798
:1028F000F1F086859785E088F188EC01FD82EC8215
:10290000E088F188E7019B838A831196CD90DC9063
:102910001297CF010C96C816D90621F41296FC9294
:10292000EE921197158A148A8C9181508C93868926
:1029300090912C13981710F480932C13389FC0019A
:102940001124DC01A05ABC4E11968D919C911297D6
:1029500095838483EC01EC80FD80F782E682EC8035
:10296000FD80E7011B830A83EC011D830C83B38781
:10297000A2879C919F5F9C93A0919613B09197130F
:10298000968956968C91981708F46ECF21E06CCFFB
:10299000E0919613F0919713E6893E9FF001112480
:1029A000E05AFC4E8081823040F021E006C08091E8
:1029B0000D058F5F80930D0520E080910E0581113C
:1029C00001C02111B0920E0580910D0581508093B8
:1029D0000D05F8CE0F900FBE6114710469F4279AAB
:1029E0002F9ADFEFE0E7F2E0D150E040F040E1F76E
:1029F00000C000001F9AF5CF80910F058F5F809374
:102A00000F0580912A1390912B13892BE1F5AAE1F0
:102A1000B5E0CD0187709927892B41F0A1E2B5E09F
:102A2000A87FEAE2F3E1EA1BFB0B02C0E0E1FEE073
:102A3000B0931705A093160510921905109218056A
:102A4000EA0FFB1F3897E87FF0932B13E0932A13CC
:102A50001382128211821082CF018A1B9B0B139664
:102A60009C938E931297ED93FC939093150580930E
:102A70001405909313058093120580E090E89093DD
:102A80001105809310058090100590901105C401E8
:102A90008B729927892B09F08CC0A0901205B090F9
:102AA000130528E3A216B10408F483C0E0911605CB
:102AB000F0911705A6E1B5E04281538148335105F5
:102AC00040F0E0902A13F0902B13EE15FF0541F42F
:102AD00070C0808191810097A1F3DF01FC01ECCFF0
:102AE0000D911C911197085F1F4F808191818D93EB
:102AF0009C93485351094131510508F440C0DF010E
:102B0000D89653AF42AF88E390E09383828386E107
:102B100095E0EC01288139812A173B0710F4C9019F
:102B2000F8CF6A817B816C01C60ED71EAC15BD053E
:102B300029F4460F571F5B834A83DC0112964D919F
:102B40005C911397BD01640F751F6217730771F4D1
:102B50002E153F0559F0E9016A817B81460F571F09
:102B600013965C934E9312972881398111963C936A
:102B70002E938A179B0719F0EC01B983A8838281F1
:102B80009381A81AB90AB0921305A0921205209158
:102B9000140530911505A216B30620F4B092150560
:102BA000A0921405882A992A938282821182108227
:102BB00002C000E010E00FB6F8940F9280910F056C
:102BC000815080930F0580910F058111B6C18091CE
:102BD0009813882309F4B1C120914A1330914B1303
:102BE000A9E0FA2EEE24E39480914513882309F49A
:102BF00089C0F901A681B7815496ED91FC91559752
:102C00001E964D915C911F9750968D919C91519776
:102C1000EA019D838C8350968D919C915197EC0194
:102C20005B834A83AD01445F5F4F618172816417AA
:102C3000750711F49283818355961C921E925497C6
:102C4000808181508083BD016E5F7F4F1A96ED9128
:102C5000FC911B9714964D915C91159716968D914A
:102C60009C911797EA019D838C8316968D919C9178
:102C70001797EC015B834A834181528146175707BE
:102C800011F4928381831B961C921E921A97808165
:102C90008150808356968C91569790912C1398175B
:102CA00010F480932C13F89EC0011124AC01405AFB
:102CB0005C4EEA01E981FA811596FC93EE93149734
:102CC0008481958117969C938E9316978481958124
:102CD000EC017B836A83758364831B965C934E93BC
:102CE0001A97FA0190819F5F9083E0919613F0917B
:102CF000971356969C918689981708F475CFE092A1
:102D00000E0572CF80910D05811108C080910E05CE
:102D1000813009F012C10E94086C0FC1F9E0AF2E9A
:102D2000992493946FEF7FEF80910D05882371F3C1
:102D300080910F058111EEC080910B0590910C05DB
:102D4000019690930C0580930B0580910B05909153
:102D50000C05009789F52091311330913213409181
:102D60002F135091301350933213409331133093FB
:102D7000301320932F1320910A052F5F20930A050B
:102D8000E0913113F09132132081211105C070932D
:102D900009056093080510C0E0913113F0913213DA
:102DA0000580F681E02D0680F781E02D22813381B8
:102DB00030930905209308052091080530910905F5
:102DC000B12C8217930708F495C0E0913113F0916C
:102DD00032132081211105C0709309056093080505
:102DE00089C0E0913113F09132130580F681E02D16
:102DF0000680F781E02D228133818217930728F422
:102E0000309309052093080575C09F012E5F3F4F41
:102E1000A285B385E480F58046815781E7015D8313
:102E20004C8346815781EA01FB82EA821196ED903C
:102E3000FC901297E216F30621F412965C934E93DF
:102E40001197138612864C9141504C93A489B589F1
:102E50001097F9F046855785E088F188EA01FD82F0
:102E6000EC82E088F188E7015B834A831196CD907C
:102E7000DC901297AF01445F5F4FC416D50621F472
:102E80001296FC92EE921197158A148A4C91415039
:102E90004C93A68940912C134A1710F4A0932C133D
:102EA000AA9ED0011124A05ABC4E11964D915C915E
:102EB000129755834483EA01EC80FD80F782E68215
:102EC000EC80FD80E7013B832A83EA013D832C836C
:102ED000B387A2872C912F5F2C93A0919613B0916A
:102EE0009713368956962C91321708F46ECFBB246F
:102EF000B3946BCFE0919613F0919713E689AE9E51
:102F0000F0011124E05AFC4E8081823048F0BB244D
:102F1000B39406C080910D058F5F80930D05B12C91
:102F200080910E05811101C0B11090920E05809123
:102F30000D05815080930D05F7CE0F900FBE011542
:102F4000110569F4279A2F9ADFEFE0E7F2E0D150FC
:102F5000E040F040E1F700C000001F9AF5CFD80133
:102F600058967C926E92579744E650E065EA70E07E
:102F7000C3010E94D175E801EF89F88DED59FF4F2B
:102F8000E87FA801475E5F4FAEEBB2E088E08A0FB2
:102F90009D019D91EA019993AE01E90198819923E0
:102FA00011F08A13F5CFD80190961C92909783E088
:102FB00056968C93569793968C93939794961C92CF
:102FC000949798012E5F3F4F1B961C921E921A9762
:102FD00055961C921E92549719961C930E9318970F
:102FE00043E050E01D965C934E931C9753961C93C0
:102FF0000E935297E8011DA21EA21FA218A61AA6A0
:1030000019A641E14083DF01119792E29C93119749
:1030100053E35C9361E772E311976C9311977C9390
:1030200011971C9211971C92119750E85C9311977D
:103030001C9211971C9211971C92119752E05C936D
:1030400011978C93119784E08C93119785E08C9362
:10305000119786E08C93119787E08C93119788E005
:103060008C93119789E08C93119780E18C93119741
:103070004C93119782E18C93119783E18C93119774
:1030800084E18C93119785E18C93119786E18C9361
:10309000119787E18C93119788E18C93119789E1BF
:1030A0008C93119780E28C93119781E28C93119706
:1030B0009C93119783E28C9311971C9211971C9209
:1030C000119786E28C93119787E28C93119788E28F
:1030D0008C93119789E28C93119780E38C931197CD
:1030E00081E38C93B997F983E8830FB6F8940F9234
:1030F000809198138F5F809398138091961390918D
:103100009713892B09F090C010939713009396138F
:1031100080919813813009F096C0E0E6F3E16FEFFB
:103120007FEFCF010396928381834FEF5FEF74832C
:103130006383968385839087878310823996B3E172
:10314000E639FB0771F78AE593E190935913809371
:10315000581350935B1340935A1390935D138093CD
:103160005C1390935F1380935E131092571381E565
:1031700093E19093501380934F13509352134093C5
:103180005113909354138093531390935613809339
:10319000551310924E1388E493E190934713809354
:1031A0004613509349134093481390934B138093C5
:1031B0004A1390934D1380934C13109245138FE351
:1031C00093E190933E1380933D13509340134093AB
:1031D0003F13909342138093411390934413809331
:1031E000431310923C1386E393E19093351380933D
:1031F00034135093371340933613909339138093BD
:10320000381390933B1380933A131092331387E54E
:1032100093E190933213809331138EE493E1909372
:10322000301380932F130FC080912E1381110BC088
:10323000E0919613F09197138689843020F41093CF
:1032400097130093961380912D138F5F80932D1306
:10325000E80189A3EE8980912C138E1710F4E09376
:103260002C13D9E0ED9FF0011124E05AFC4EA1810E
:10327000B281E801BD83AC8314968D919C91159722
:103280009F838E831496CD91DC9115973B832A837F
:1032900015963C932E931497D8011B96FC93EE93AE
:1032A0001A9780818F5F80830F900FBE80912E13BD
:1032B000882349F0E0919613F09197138689833023
:1032C00010F40E94086C80910F058F5F80930F05AA
:1032D00080912A1390912B13892BE1F5AAE1B5E097
:1032E000CD0187709927892B41F0A1E2B5E0A87F35
:1032F000EAE2F3E1EA1BFB0B02C0E0E1FEE0B0937F
:103300001705A09316051092190510921805EA0FDB
:10331000FB1F3897E87FF0932B13E0932A13138257
:10332000128211821082CF018A1B9B0B13969C93F1
:103330008E931297ED93FC9390931505809314054B
:10334000909313058093120580E090E89093110507
:1033500080931005A0901005B0901105C5018C7BDD
:103360009270892B09F093C040911205509113057A
:10337000483CB2E05B0708F48AC0A0911605B09102
:103380001705E6E1F5E012966D917C911397683C84
:10339000C2E07C0740F0E0902A13F0902B13AE15AA
:1033A000BF0549F474C08D919C911197009799F3D2
:1033B000FD01DC01E8CFC081D1813E0128E0620E31
:1033C000711C8D919C91119791838083685C7240F0
:1033D00061317105F0F1FD01E853FD4F73836283A4
:1033E00088EC92E013969C938E93129786E195E079
:1033F000EC01288139812E173F0710F4C901F8CF5D
:103400000A811B816C01C00ED11EEC15FD0529F44B
:10341000600F711F7B836A83FC01628173818F015E
:10342000060F171F0217130761F42E153F0549F009
:10343000E9010A811B81600F711F738362832881F8
:103440003981318320838E179F0719F0EC01F983AE
:10345000E88312968D919C911397481B590B5093BA
:10346000130540931205209114053091150542175C
:10347000530720F45093150540931405A82AB92A40
:103480001396BC92AE9212971D921C9202C0612CB0
:10349000712C0FB6F8940F9280910F058150809394
:1034A0000F0580910F058111B2C180919813882377
:1034B00009F4ADC120914A1330914B1319E001E09A
:1034C00080914513882309F489C0F901A681B78149
:1034D0005496ED91FC9155971E964D915C911F97D6
:1034E00050968D919C915197EA019D838C835096C3
:1034F0008D919C915197EC015B834A83AD01445FB0
:103500005F4F618172816417750711F49283818323
:1035100055961C921E925497808181508083BD01E4
:103520006E5F7F4F1A96ED91FC911B9714964D910B
:103530005C91159716968D919C911797EA019D8342
:103540008C8316968D919C911797EC015B834A832F
:10355000418152814617570711F4928381831B964C
:103560001C921E921A9780818150808356968C916E
:10357000569790912C13981710F480932C13189F42
:10358000C0011124AC01405A5C4EEA01E981FA8184
:103590001596FC93EE9314978481958117969C93CE
:1035A0008E93169784819581EC017B836A83758362
:1035B00064831B965C934E931A97FA0190819F5FE8
:1035C0009083E0919613F091971356969C9186897B
:1035D000981708F475CF00930E0572CF80910D05F2
:1035E000811108C080910E05813009F010C10E9440
:1035F000086C0DC139E0BB24B3944FEF5FEF8091AD
:103600000D05882379F380910F058111EDC080911C
:103610000B0590910C05019690930C0580930B057A
:1036200060910B0570910C056115710589F580910C
:10363000311390913213E0912F13F0913013F093E6
:103640003213E09331139093301380932F138091B2
:103650000A058F5F80930A05E0913113F0913213D0
:103660008081811105C0509309054093080510C061
:10367000E0913113F09132130580F681E02D068040
:10368000F781E02D8281938190930905809308054D
:10369000809108059091090520E06817790708F4E2
:1036A00094C0E0913113F09132138081811105C0F3
:1036B000509309054093080588C0E0913113F091BB
:1036C00032130580F681E02D0680F781E02D82819E
:1036D00093816817790728F490930905809308056A
:1036E00074C08F010E5F1F4FA285B385E480F58003
:1036F00086819781E7019D838C8386819781EC0188
:10370000FB82EA821196ED90FC901297E016F1068A
:1037100021F412969C938E931197138612868C91A6
:1037200081508C93A489B5891097F1F0868597858F
:10373000E088F188EC01FD82EC82E088F188E70105
:103740009B838A831196CD90DC901297CF010C96C3
:10375000C816D90621F41296FC92EE921197158A9A
:10376000148A8C9181508C93868990912C13981790
:1037700010F480932C13389FC0011124DC01A05A4F
:10378000BC4E11968D919C91129795838483EC0188
:10379000EC80FD80F782E682EC80FD80E7011B83F0
:1037A0000A83EC011D830C83B387A2879C919F5FE2
:1037B0009C93A0919613B0919713968956968C91ED
:1037C000981708F46ECF21E06CCFE0919613F0913A
:1037D0009713E6893E9FF0011124E05AFC4E808148
:1037E000823040F021E006C080910D058F5F80930C
:1037F0000D0520E080910E05811101C02111B092CC
:103800000E0580910D05815080930D05F8CE0F9027
:103810000FBE6114710469F4279A2F9ADFEFE0E775
:10382000F2E0D150E040F040E1F700C000001F9A04
:10383000F5CF80910F058F5F80930F0580912A133C
:1038400090912B13892BE1F5AAE1B5E0CD018770AA
:103850009927892B41F0A1E2B5E0A87FEAE2F3E1E4
:10386000EA1BFB0B02C0E0E1FEE0B0931705A0935A
:1038700016051092190510921805EA0FFB1F3897CC
:10388000E87FF0932B13E0932A13138212821182A4
:103890001082CF018A1B9B0B13969C938E931297D9
:1038A000ED93FC9390931505809314059093130565
:1038B0008093120580E090E89093110580931005A5
:1038C0008090100590901105C4018B729927892B67
:1038D00009F08CC0A0901205B090130528E3A21641
:1038E000B10408F483C0E0911605F0911705A6E134
:1038F000B5E0428153814833510540F0E0902A13EE
:10390000F0902B13EE15FF0541F470C0808191817A
:103910000097A1F3DF01FC01ECCF0D911C911197F1
:10392000085F1F4F808191818D939C93485351096B
:103930004131510508F440C0DF01D89653AF42AF82
:1039400088E390E09383828386E195E0EC0128810F
:1039500039812A173B0710F4C901F8CF6A817B81AE
:103960006C01C60ED71EAC15BD0529F4460F571FB6
:103970005B834A83DC0112964D915C911397BD01E4
:10398000640F751F6217730771F42E153F0559F008
:10399000E9016A817B81460F571F13965C934E9312
:1039A00012972881398111963C932E938A179B0791
:1039B00019F0EC01B983A88382819381A81AB90A0E
:1039C000B0921305A09212052091140530911505AF
:1039D000A216B30620F4B0921505A0921405882A09
:1039E000992A938282821182108202C000E010E044
:1039F0000FB6F8940F9280910F05815080930F05B8
:103A000080910F058111B6C180919813882309F424
:103A1000B1C120914A1330914B13E9E0FE2EEE2400
:103A2000E39480914513882309F489C0F901A681A4
:103A3000B7815496ED91FC9155971E964D915C91EE
:103A40001F9750968D919C915197EA019D838C838D
:103A500050968D919C915197EC015B834A83AD0107
:103A6000445F5F4F618172816417750711F492831F
:103A7000818355961C921E92549780818150808339
:103A8000BD016E5F7F4F1A96ED91FC911B971496C6
:103A90004D915C91159716968D919C911797EA011F
:103AA0009D838C8316968D919C911797EC015B8377
:103AB0004A83418152814617570711F492838183CB
:103AC0001B961C921E921A97808181508083569675
:103AD0008C91569790912C13981710F480932C1377
:103AE000F89EC0011124AC01405A5C4EEA01E98104
:103AF000FA811596FC93EE9314978481958117961D
:103B00009C938E93169784819581EC017B836A83C5
:103B1000758364831B965C934E931A97FA01908188
:103B20009F5F9083E0919613F091971356969C9126
:103B30008689981708F475CFE0920E0572CF8091B0
:103B40000D05811108C080910E05813009F012C168
:103B50000E94086C0FC179E0A72E992493946FEF0F
:103B60007FEF80910D05882371F380910F058111FE
:103B7000EEC080910B0590910C05019690930C0579
:103B800080930B0580910B0590910C05009789F5AA
:103B9000209131133091321340912F1350913013F3
:103BA00050933213409331133093301320932F13DB
:103BB00020910A052F5F20930A05E0913113F091BF
:103BC00032132081211105C0709309056093080507
:103BD00010C0E0913113F09132130580F681E02D91
:103BE0000680F781E02D22813381309309052093EF
:103BF00008052091080530910905B12C821793071B
:103C000008F495C0E0913113F09132132081211115
:103C100005C0709309056093080589C0E0913113D0
:103C2000F09132130580F681E02D0680F781E02DBA
:103C3000228133818217930728F43093090520935A
:103C4000080575C09F012E5F3F4FA285B385E480B4
:103C5000F58046815781E7015D834C83468157811A
:103C6000EA01FB82EA821196ED90FC901297E2162F
:103C7000F30621F412965C934E93119713861286E5
:103C80004C9141504C93A489B5891097F9F0468521
:103C90005785E088F188EA01FD82EC82E088F188AE
:103CA000E7015B834A831196CD90DC901297AF01B8
:103CB000445F5F4FC416D50621F41296FC92EE9233
:103CC0001197158A148A4C9141504C93A6894091C2
:103CD0002C134A1710F4A0932C13AA9ED001112480
:103CE000A05ABC4E11964D915C9112975583448316
:103CF000EA01EC80FD80F782E682EC80FD80E7013E
:103D00003B832A83EA013D832C83B387A2872C91CE
:103D10002F5F2C93A0919613B091971336895696E6
:103D20002C91321708F46ECFBB24B3946BCFE09183
:103D30009613F0919713E689AE9EF0011124E05A94
:103D4000FC4E8081823048F0BB24B39406C0809141
:103D50000D058F5F80930D05B12C80910E058111AB
:103D600001C0B11090920E0580910D058150809395
:103D70000D05F7CE0F900FBE0115110569F4279AB6
:103D80002F9ADFEFE0E7F2E0D150E040F040E1F7BA
:103D900000C000001F9AF5CFD80158967C926E9211
:103DA00057974CEB52E065EA70E0C3010E94D17571
:103DB000E801EF89F88DE554FD4FE87FA801475EE3
:103DC0005F4FA3EBB2E088E08A0F9D019D91EA016D
:103DD0009993AE01E9019881992311F08A13F5CFE7
:103DE000D80190961C92909783E056968C935697A4
:103DF00093968C93939794961C92949798012E5F28
:103E00003F4F1B961C921E921A9755961C921E921B
:103E1000549719961C930E93189743E050E01D9603
:103E20005C934E931C9753961C930E935297E80104
:103E30001DA21EA21FA218A61AA619A641E1408320
:103E4000DF01119792E29C93119753E35C9362E632
:103E50007AE411976C9311977C9311971C921197A8
:103E60001C92119750E85C9311971C9211971C9229
:103E700011971C92119752E05C9311978C931197B4
:103E800084E08C93119785E08C93119786E08C9356
:103E9000119787E08C93119788E08C93119789E0B4
:103EA0008C93119780E18C9311974C93119782E139
:103EB0008C93119783E18C93119784E18C931197E4
:103EC00085E18C93119786E18C93119787E18C9310
:103ED000119788E18C93119789E18C93119780E277
:103EE0008C93119781E28C9311979C93119783E2A5
:103EF0008C9311971C9211971C92119786E28C93C8
:103F0000119787E28C93119788E28C93119789E23D
:103F10008C93119780E38C93119781E38C93B997DD
:103F2000F983E8830FB6F8940F92809198138F5F0E
:103F3000809398138091961390919713892B09F091
:103F400090C010939713009396138091981381302B
:103F500009F096C0E0E6F3E16FEF7FEFCF01039643
:103F6000928381834FEF5FEF7483638396838583AE
:103F70009087878310823996B3E1E639FB0771F7A2
:103F80008AE593E1909359138093581350935B13F0
:103F900040935A1390935D1380935C1390935F1337
:103FA00080935E131092571381E593E19093501321
:103FB00080934F1350935213409351139093541383
:103FC00080935313909356138093551310924E136E
:103FD00088E493E1909347138093461350934913D9
:103FE0004093481390934B1380934A1390934D132F
:103FF00080934C13109245138FE393E190933E13FB
:1040000080933D135093401340933F13909342137A
:1040100080934113909344138093431310923C1365
:1040200086E393E1909335138093341350933713C1
:1040300040933613909339138093381390933B1326
:1040400080933A131092331387E593E190933213E0
:10405000809331138EE493E19093301380932F1368
:104060000FC080912E1381110BC0E0919613F09137
:1040700097138689843020F4109397130093961336
:1040800080912D138F5F80932D13E80189A3EE8912
:1040900080912C138E1710F4E0932C13D9E0ED9F30
:1040A000F0011124E05AFC4EA181B281E801BD83E8
:1040B000AC8314968D919C9115979F838E83149653
:1040C000CD91DC9115973B832A8315963C932E93D3
:1040D0001497D8011B96FC93EE931A9780818F5FFB
:1040E00080830F900FBE80912E13882349F0E091BA
:1040F0009613F09197138689833010F40E94086C10
:1041000080910F058F5F80930F0580912A13909106
:104110002B13892BE1F5AAE1B5E0CD018770992732
:10412000892B41F0A1E2B5E0A87FEAE2F3E1EA1BC6
:10413000FB0B02C0E0E1FEE0B0931705A09316056B
:104140001092190510921805EA0FFB1F3897E87FA7
:10415000F0932B13E0932A131382128211821082A0
:10416000CF018A1B9B0B13969C938E931297ED9312
:10417000FC939093150580931405909313058093F9
:10418000120580E090E89093110580931005A090AF
:104190001005B0901105A7FC92C020911205309136
:1041A00013052838310508F48AC0A0911605B0918E
:1041B0001705E6E1F5E012964D915C9113974838AA
:1041C000510540F0E0902A13F0902B13AE15BF0577
:1041D00049F475C08D919C911197009799F3FD0159
:1041E000DC01E9CF00811181085F1F4F8D919C9107
:1041F000119791838083485851094131510508F442
:1042000040C0FD01E857FF4F5383428388E890E0A8
:1042100013969C938E93129766E1862E65E0962EF8
:10422000E401888199818E179F0710F44C01F8CF23
:104230006A817B816401C60ED71EEC15FD0529F449
:10424000460F571F5B834A83F40142815381BF01AC
:10425000640F751F6817790761F48E159F0549F083
:10426000EC016A817B81460F571F5383428388810B
:104270009981918380838E169F0619F0E401F9835A
:10428000E88312968D919C911397281B390B3093DC
:10429000130520931205409114055091150524171C
:1042A000350720F43093150520931405A82AB92A60
:1042B0001396BC92AE9212971D921C9202C000E01F
:1042C00010E00FB6F8940F9280910F058150809303
:1042D0000F0580910F058111B3C180919813882338
:1042E00009F4AEC1E0904A13F0904B1369E071E01D
:1042F00080914513882309F489C0F701A681B7810D
:104300005496ED91FC9155971E962D913C911F97D7
:1043100050968D919C915197E9019D838C83509685
:104320008D919C915197EC013B832A839D01245FE1
:104330003F4F418152814217530711F49283818389
:1043400055961C921E925497808181508083AD01B6
:104350004E5F5F4F1A96ED91FC911B9714962D912D
:104360003C91159716968D919C911797E9019D8325
:104370008C8316968D919C911797EC013B832A8331
:10438000218132812417350711F4928381831B9692
:104390001C921E921A9780818150808356968C9130
:1043A000569790912C13981710F480932C13689FB4
:1043B000C00111249C01205A3C4EE901E981FA8197
:1043C0001596FC93EE9314978481958117969C9390
:1043D0008E93169784819581EC015B834A83558384
:1043E00044831B963C932E931A97F90190819F5F0B
:1043F0009083E0919613F091971356969C9186893D
:10440000981708F475CF70930E0572CF80910D0543
:10441000811108C080910E05813009F011C10E9400
:10442000086C0EC139E0BB24B3944FEF5FEF80916D
:104430000D05882379F380910F058111EEC08091DD
:104440000B0590910C05019690930C0580930B053C
:1044500060910B0570910C056115710589F58091CE
:10446000311390913213E0912F13F0913013F093A8
:104470003213E09331139093301380932F13809174
:104480000A058F5F80930A05E0913113F091321392
:104490008081811105C0509309054093080510C023
:1044A000E0913113F09132130580F681E02D068002
:1044B000F781E02D8281938190930905809308050F
:1044C000809108059091090520E06817790708F4A4
:1044D00095C0E0913113F09132138081811105C0B4
:1044E000509309054093080589C0E0913113F0917C
:1044F00032130580F681E02D0680F781E02D828160
:1045000093816817790728F490930905809308052B
:1045100075C04F0182E0880E911CA285B385E480AE
:10452000F58086819781E7019D838C8386819781C1
:10453000EC01FB82EA821196ED90FC901297E81450
:10454000F90421F412969C938E9311971386128688
:104550008C9181508C93A489B5891097F1F0868550
:104560009785E088F188EC01FD82EC82E088F18893
:10457000E7019B838A831196CD90DC901297CF013F
:104580000C96C816D90621F41296FC92EE92119759
:10459000158A148A8C9181508C93868990912C1362
:1045A000981710F480932C13389FC0011124DC015C
:1045B000A05ABC4E11968D919C911297958384833D
:1045C000EC01EC80FD80F782E682EC80FD80E70163
:1045D0009B828A82EC019D828C82B387A2879C9108
:1045E0009F5F9C93A0919613B091971396895696CE
:1045F0008C91981708F46DCF21E06BCFE091961362
:10460000F0919713E6893E9FF0011124E05AFC4E89
:104610008081823040F021E006C080910D058F5FDF
:1046200080930D0520E080910E05811101C02111BC
:10463000B0920E0580910D05815080930D05F7CE47
:104640000F900FBE0115110569F4279A2F9ADFEF1D
:10465000E0E7F2E0D150E040F040E1F700C00000B8
:104660001F9AF5CF80910F058F5F80930F05809182
:104670002A1390912B13892BE1F5AAE1B5E0CD0126
:1046800087709927892B41F0A1E2B5E0A87FEAE283
:10469000F3E1EA1BFB0B02C0E0E1FEE0B09317057B
:1046A000A09316051092190510921805EA0FFB1F2A
:1046B0003897E87FF0932B13E0932A13138212822A
:1046C00011821082CF018A1B9B0B13969C938E93B1
:1046D0001297ED93FC939093150580931405909396
:1046E00013058093120580E090E890931105809364
:1046F00010058090100590901105C4018B729927C8
:10470000892B09F097C0A0901205B090130528E3FB
:10471000A216B10408F48EC0E0911605F0911705B9
:10472000A6E1B5E0428153814833510540F0E09065
:104730002A13F0902B13EE15FF0541F47BC0808106
:1047400091810097A1F3DF01FC01ECCFCD91DC91C9
:1047500011972896808191818D939C93485351099C
:104760004131510508F44CC03F0188E3680E711CCB
:1047700053AF42AF88E390E09383828386E195E074
:10478000DC012D913C9111972615370510F4C901D4
:10479000F7CF12966D917C9113976C01C60ED71EC0
:1047A0006C147D0439F4460F571F13965C934E9397
:1047B00012973C01D30112964D915C911397B3016E
:1047C000640F751F6217730791F42E153F0579F07A
:1047D000D90112966D917C911397460F571FD30103
:1047E00013965C934E931297D9012D913C91D3016E
:1047F0002D933C938615970519F0DC016D927C9200
:1048000082819381A81AB90AB0921305A092120569
:104810002091140530911505A216B30620F4B0922C
:104820001505A0921405882A992A93828282118202
:10483000108202C0C0E0D0E00FB6F8940F928091D1
:104840000F05815080930F0580910F058111D5C10F
:1048500080919813882309F4D0C120914A13309194
:104860004B1349E0F42EEE24E39480914513882302
:1048700009F48FC0F901A681B7815496CD90DC90E0
:1048800055971E964D915C911F9750968D919C91D6
:104890005197FA019583848350968D919C915197FD
:1048A000FC0153834283AD01445F5F4FF601618198
:1048B00072816417750711F49283818355961C9257
:1048C0001E925497F601808181508083BD016E5FF6
:1048D0007F4F1A96CD90DC901B9714964D915C916A
:1048E000159716968D919C911797FA01958384835D
:1048F00016968D919C911797FC0153834283F60184
:10490000418152814617570711F4928381831B9688
:104910001C921E921A97F6018081815080835696D0
:104920008C91569790912C13981710F480932C1318
:10493000F89EC0011124AC01405A5C4EFA01C180BE
:10494000D2801596DC92CE921497F60184819581DF
:1049500017969C938E93169784819581FC0173839F
:104960006283F601758364831B965C934E931A975A
:10497000FA0190819F5F9083E0919613F0919713D5
:1049800056969C918689981708F46FCFE0920E0591
:104990006CCF80910D05811108C080910E0581308A
:1049A00009F02BC10E94086C28C129E0A22E99248D
:1049B00093946FEF7FEF80910D05882371F38091C1
:1049C0000F05811107C180910B0590910C0501968F
:1049D00090930C0580930B0580910B0590910C052D
:1049E000009789F5209131133091321340912F13A4
:1049F000509130135093321340933113309330134E
:104A000020932F1320910A052F5F20930A05E09130
:104A10003113F09132132081211105C070930905E3
:104A20006093080510C0E0913113F09132130580B6
:104A3000F681E02D0680F781E02D228133813093CD
:104A40000905209308052091080530910905B12C2E
:104A50008217930708F4AEC0E0913113F09132133E
:104A60002081211105C07093090560930805A2C03B
:104A7000E0913113F09132130580F681E02D06802C
:104A8000F781E02D228133818217930728F4309338
:104A90000905209308058EC09F012E5F3F4FC284F9
:104AA000D384E480F58046815781D70115965C93C5
:104AB0004E93149746815781DA011396FC92EE9239
:104AC0001297D6011196ED90FC901297E216F3061C
:104AD00021F412965C934E93119713861286D60199
:104AE0004C9141504C93648875886114710429F18C
:104AF00046855785E088F188DA011596FC92EE929A
:104B00001497E088F188D70113965C934E9312971F
:104B1000D3011196CD90DC901297AF01445F5F4FA7
:104B2000C416D50621F41296FC92EE921197158ABE
:104B3000148AD3014C9141504C93A68940912C1377
:104B40004A1710F4A0932C13AA9ED0011124AD0192
:104B5000405A5C4E6A01DA0111964D915C911297B0
:104B600055834483DA011496ED90FC901597F782F3
:104B7000E6821496ED90FC901597D70113963C931E
:104B80002E931297DA0115963C932E931497D386A1
:104B9000C286D6012C912F5F2C93A0919613B091D1
:104BA0009713368956962C91321708F455CFBB24AB
:104BB000B39452CFE0919613F0919713E689AE9E8D
:104BC000F0011124E05AFC4E8081823048F0BB2471
:104BD000B39406C080910D058F5F80930D05B12CB5
:104BE00080910E05811101C0B11090920E05809147
:104BF0000D05815080930D05DECE0F900FBE2097DE
:104C000069F4279A2F9ABFEFC0E7D2E0B150C040B5
:104C1000D040E1F700C000001F9AF5CF188F0F8B2E
:104C200040E850E065EA70E0C8010E94D175EF8964
:104C3000F88DE158FF4FE87FCE0149964EEA52E0E9
:104C400038E0340FDA012D91AD01DC012D93CD0157
:104C5000222311F03413F6CF18A21E8A1BA21CA225
:104C60009E012E5F3F4F1B861A861D8A1C8AD9879C
:104C7000C88786E090E09D878C87DB8BCA8B1DA25E
:104C80001EA21FA218A61AA619A691E19083DF0101
:104C9000119782E28C93119743E34C934AED51E0D4
:104CA00011974C9311975C9311971C9211971C923A
:104CB000119740E84C9311971C9211971C921197F1
:104CC0001C92119742E04C93119743E04C9311973B
:104CD00044E04C93119745E04C93119746E04C9378
:104CE000119747E04C93119748E04C93119749E096
:104CF0004C93119740E14C9311979C93119792E13B
:104D00009C93119793E19C93119794E19C93119735
:104D100095E19C93119796E19C93119797E19C9351
:104D2000119798E19C93119799E19C93119790E2C8
:104D30009C93119791E29C9311978C93119783E226
:104D40008C9311971C9211971C92119786E28C9369
:104D5000119787E28C93119788E28C93119789E2DF
:104D60008C93119780E38C93119781E38C93B9977F
:104D7000F983E8830FB6F8940F92809198138F5FB0
:104D8000809398138091961390919713892B09F033
:104D900090C0D0939713C09396138091981381304D
:104DA00009F096C0E0E6F3E16FEF7FEFCF010396E5
:104DB000928381834FEF5FEF748363839683858350
:104DC0009087878310823996B3E1E639FB0771F744
:104DD0008AE593E1909359138093581350935B1392
:104DE00040935A1390935D1380935C1390935F13D9
:104DF00080935E131092571381E593E190935013C3
:104E000080934F1350935213409351139093541324
:104E100080935313909356138093551310924E130F
:104E200088E493E19093471380934613509349137A
:104E30004093481390934B1380934A1390934D13D0
:104E400080934C13109245138FE393E190933E139C
:104E500080933D135093401340933F13909342131C
:104E600080934113909344138093431310923C1307
:104E700086E393E190933513809334135093371363
:104E800040933613909339138093381390933B13C8
:104E900080933A131092331387E593E19093321382
:104EA000809331138EE493E19093301380932F130A
:104EB0000FC080912E1381110BC0E0919613F091D9
:104EC00097138689811104C0D0939713C0939613CA
:104ED00080912D138F5F80932D1389A3EE8980918C
:104EE0002C138E1710F4E0932C1349E0E49FF0018B
:104EF0001124AF01405A5C4EFA01A181B281BD83F9
:104F0000AC8314968D919C9115979F838E831496F4
:104F10008D919C911597FC013383228315963C93C8
:104F20002E9314975B874A87DA018C918F5F8C935D
:104F30000F900FBE80912E13882321F0809196133D
:104F4000909197130FB6F8940F928091F40490917A
:104F5000F504892B09F04BC382E095E0909301059D
:104F6000809300052FEF3FEF309303052093020558
:104F7000909305058093040590930705809306059B
:104F80001092FF0489EF94E09093F8048093F70463
:104F90003093FA042093F9049093FC048093FB046B
:104FA0009093FE048093FD041092F6048FEF94E03A
:104FB0009093F3048093F20486EF94E09093F104CD
:104FC0008093F00480910F058F5F80930F0580918F
:104FD0002A1390912B13892BE1F5AAE1B5E0CD01BD
:104FE00087709927892B41F0A1E2B5E0A87FEAE21A
:104FF000F3E1EA1BFB0B02C0E0E1FEE0B093170512
:10500000A09316051092190510921805EA0FFB1FC0
:105010003897E87FF0932B13E0932A1313821282C0
:1050200011821082CF018A1B9B0B13969C938E9347
:105030001297ED93FC93909315058093140590932C
:1050400013058093120580E090E8909311058093FA
:105050001005A0901005B0901105C5018475992721
:10506000892B09F095C040911205509113054036E7
:10507000510508F48DC08090160590901705E6E163
:10508000F5E0E4016A817B816036710540F0E090D3
:105090002A13F0902B138E149F0441F479C0888159
:1050A00099810097A1F3F4014C01EBCFC081D1812C
:1050B0002896D4018D919C9111979183808360569D
:1050C00071096131710508F445C0F401E05AFF4FE0
:1050D0007383628380E690E013969C938E9312977D
:1050E00086E195E0DC012D913C9111972E173F0749
:1050F00010F4C901F7CF12960D911C9113976C0112
:10510000C00ED11EEC15FD0539F4600F711F13960A
:105110007C936E931297FC01628173818F01060F5D
:10512000171F0217130771F42E153F0559F0D90107
:1051300012960D911C911397600F711F73836283F8
:105140002D913C91318320838E179F0719F0DC014C
:10515000ED93FC93F40182819381481B590B50938A
:10516000130540931205209114053091150542173F
:10517000530720F45093150540931405A82AB92A23
:10518000D4011396BC92AE9212971D921C9202C04B
:10519000C0E0D0E00FB6F8940F9280910F058150D7
:1051A00080930F0580910F058111CFC180919813D5
:1051B000882309F4CAC120914A1330914B1319E096
:1051C00001E080914513882309F48FC0F901A6817D
:1051D000B7815496ED90FC9055971E964D915C9139
:1051E0001F9750968D919C915197FA0195838483D6
:1051F00050968D919C915197FC0153834283AD0150
:10520000445F5F4FF701618172816417750711F484
:105210009283818355961C921E925497F701808148
:1052200081508083BD016E5F7F4F1A96ED90FC9098
:105230001B9714964D915C91159716968D919C91A4
:105240001797FA019583848316968D919C911797F1
:10525000FC0153834283F70141815281461757076E
:1052600011F4928381831B961C921E921A97F70168
:1052700080818150808356968C91569790912C1303
:10528000981710F480932C13189FC0011124AC01BF
:10529000405A5C4EFA01E180F2801596FC92EE9243
:1052A0001497F7018481958117969C938E93169796
:1052B00084819581FC0173836283F7017583648324
:1052C0001B965C934E931A97FA0190819F5F90838F
:1052D000E0919613F091971356969C9186899817B2
:1052E00008F46FCF00930E056CCF80910D058111EE
:1052F00008C080910E05813009F027C10E94086C1A
:1053000024C139E0BB24B3944FEF5FEF80910D05CA
:10531000882379F380910F05811104C180910B05D9
:1053200090910C05019690930C0580930B0560916C
:105330000B0570910C056115710589F5809131138C
:1053400090913213E0912F13F0913013F0933213B8
:10535000E09331139093301380932F1380910A05BB
:105360008F5F80930A05E0913113F09132138081B1
:10537000811105C0509309054093080510C0E091C4
:105380003113F09132130580F681E02D0680F7810C
:10539000E02D828193819093090580930805809187
:1053A00008059091090520E06817790708F4ABC05B
:1053B000E0913113F09132138081811105C0509337
:1053C0000905409308059FC0E0913113F091321315
:1053D0000580F681E02D0680F781E02D82819381A2
:1053E0006817790728F490930905809308058BC006
:1053F0008F010E5F1F4FC284D384E480F5808681C5
:105400009781D70115969C938E93149786819781E7
:10541000DC011396FC92EE921297D6011196ED9054
:10542000FC901297E016F10621F412969C938E934D
:10543000119713861286D6018C9181508C938488A3
:1054400095888114910421F186859785E088F188FB
:10545000DC011596FC92EE921497E088F188D70152
:1054600013969C938E931297D4011196CD90DC9055
:105470001297CF010C96C816D90621F41296FC9209
:10548000EE921197158A148AD4018C9181508C93D5
:10549000868990912C13981710F480932C13389FC1
:1054A000C0011124DC01A05ABC4E6D0111968D91F2
:1054B0009C91129795838483DC011496ED90FC9067
:1054C0001597F782E6821496ED90FC901597D70118
:1054D00013961C930E931297DC0115961C930E9352
:1054E0001497D386C286D6019C919F5F9C93A0910E
:1054F0009613B0919713968956968C91981708F445
:1055000057CF21E055CFE0919613F0919713E6899C
:105510003E9FF0011124E05AFC4E8081823040F021
:1055200021E006C080910D058F5F80930D0520E07E
:1055300080910E05811101C02111B0920E0580915C
:105540000D05815080930D05E1CE0F900FBE209781
:1055500069F4279A2F9ABFEFC0E7D2E0B150C0405C
:10556000D040E1F700C000001F9AF5CFCE01819630
:10557000998388838AE08B8F85E08C8F0FB6F894AF
:105580000F92288139819B8D4C8D949FC0011124ED
:10559000B901680F791F7B836A831A8E3D832C8340
:1055A000841B9109820F931F9F838E838FEF8D8FB2
:1055B0008E8FCE010B969A8789872FEF3FEF3C871E
:1055C0002B879E878D87988B8F87188609969B8B54
:1055D0008A8B3D8B2C8B9F8B8E8B998F888F198A12
:1055E0000F900FBE18A2D093F504C093F4040F904F
:1055F0000FBE8091F4049091F504892B09F464C7DF
:1056000080910F058F5F80930F0580912A139091F1
:105610002B13892BE1F5AAE1B5E0CD01877099271D
:10562000892B41F0A1E2B5E0A87FEAE2F3E1EA1BB1
:10563000FB0B02C0E0E1FEE0B0931705A093160556
:105640001092190510921805EA0FFB1F3897E87F92
:10565000F0932B13E0932A1313821282118210828B
:10566000CF018A1B9B0B13969C938E931297ED93FD
:10567000FC939093150580931405909313058093E4
:10568000120580E090E89093110580931005A0909A
:105690001005B0901105C5018F779927892B09F066
:1056A00091C040911205509113054838510508F4F6
:1056B00089C0A0911605B0911705E6E1F5E01296B4
:1056C0006D917C9113976838710540F0E0902A1332
:1056D000F0902B13AE15BF0549F474C08D919C91C9
:1056E0001197009799F3FD01DC01E9CFC081D181C9
:1056F0003E0128E0620E711C8D919C91119791835F
:1057000080836858710961317105F0F1FD01E85736
:10571000FF4F7383628388E890E013969C938E9387
:10572000129786E195E0EC01288139812E173F0719
:1057300010F4C901F8CF0A811B816C01C00ED11E83
:10574000EC15FD0529F4600F711F7B836A83FC0152
:10575000628173818F01060F171F0217130761F40F
:105760002E153F0549F0E9010A811B81600F711F69
:105770007383628328813981318320838E179F0749
:1057800019F0EC01F983E88312968D919C9113979F
:10579000481B590B50931305409312052091140593
:1057A000309115054217530720F450931505409387
:1057B0001405A82AB92A1396BC92AE9212971D928C
:1057C0001C9202C0612C712C0FB6F8940F9280913C
:1057D0000F05815080930F0580910F058111B2C193
:1057E00080919813882309F4ADC120914A13309118
:1057F0004B1319E001E080914513882309F489C017
:10580000F901A681B7815496ED91FC9155971E96AA
:105810004D915C911F9750968D919C915197EA0103
:105820009D838C8350968D919C915197EC015B8365
:105830004A83AD01445F5F4F6181728164177507D0
:1058400011F49283818355961C921E925497808105
:1058500081508083BD016E5F7F4F1A96ED91FC9160
:105860001B9714964D915C91159716968D919C916E
:105870001797EA019D838C8316968D919C911797BB
:10588000EC015B834A83418152814617570711F42B
:10589000928381831B961C921E921A97808181505D
:1058A000808356968C91569790912C13981710F4EC
:1058B00080932C13189FC0011124AC01405A5C4EF8
:1058C000EA01E981FA811596FC93EE93149784819D
:1058D000958117969C938E93169784819581EC0100
:1058E0007B836A83758364831B965C934E931A97BC
:1058F000FA0190819F5F9083E0919613F091971346
:1059000056969C918689981708F475CF00930E05DA
:1059100072CF80910D05811108C080910E058130F4
:1059200009F010C10E94086C0DC139E0BB24B3948A
:105930004FEF5FEF80910D05882379F380910F057C
:105940008111EDC080910B0590910C05019690930B
:105950000C0580930B0560910B0570910C0561158A
:10596000710589F58091311390913213E0912F13D5
:10597000F0913013F0933213E0933113909330137E
:1059800080932F1380910A058F5F80930A05E09121
:105990003113F09132138081811105C050930905B4
:1059A0004093080510C0E0913113F0913213058047
:1059B000F681E02D0680F781E02D8281938190931E
:1059C000090580930805809108059091090520E05C
:1059D0006817790708F494C0E0913113F0913213FD
:1059E0008081811105C0509309054093080588C046
:1059F000E0913113F09132130580F681E02D06809D
:105A0000F781E02D828193816817790728F49093BC
:105A100009058093080574C08F010E5F1F4FA28592
:105A2000B385E480F58086819781E7019D838C832F
:105A300086819781EC01FB82EA821196ED90FC90C1
:105A40001297E016F10621F412969C938E9311970B
:105A5000138612868C9181508C93A489B5891097F6
:105A6000F1F086859785E088F188EC01FD82EC8273
:105A7000E088F188E7019B838A831196CD90DC90C2
:105A80001297CF010C96C816D90621F41296FC92F3
:105A9000EE921197158A148A8C9181508C93868985
:105AA00090912C13981710F480932C13389FC001F9
:105AB0001124DC01A05ABC4E11968D919C91129735
:105AC00095838483EC01EC80FD80F782E682EC8094
:105AD000FD80E7011B830A83EC011D830C83B387E0
:105AE000A2879C919F5F9C93A0919613B09197136E
:105AF000968956968C91981708F46ECF21E06CCF5A
:105B0000E0919613F0919713E6893E9FF0011124DE
:105B1000E05AFC4E8081823040F021E006C0809146
:105B20000D058F5F80930D0520E080910E0581119A
:105B300001C02111B0920E0580910D058150809316
:105B40000D05F8CE0F900FBE6114710469F4279A09
:105B50002F9ADFEFE0E7F2E0D150E040F040E1F7CC
:105B600000C000001F9AF5CF80910F058F5F8093D2
:105B70000F0580912A1390912B13892BE1F5AAE14F
:105B8000B5E0CD0187709927892B41F0A1E2B5E0FE
:105B9000A87FEAE2F3E1EA1BFB0B02C0E0E1FEE0D2
:105BA000B0931705A09316051092190510921805C9
:105BB000EA0FFB1F3897E87FF0932B13E0932A132B
:105BC0001382128211821082CF018A1B9B0B1396C3
:105BD0009C938E931297ED93FC939093150580936D
:105BE0001405909313058093120580E090E890933C
:105BF0001105809310058090100590901105C40147
:105C00008B729927892B09F08CC0A0901205B09057
:105C1000130528E3A216B10408F483C0E091160529
:105C2000F0911705A6E1B5E0428153814833510553
:105C300040F0E0902A13F0902B13EE15FF0541F48D
:105C400070C0808191810097A1F3DF01FC01ECCF4E
:105C50000D911C911197085F1F4F808191818D9349
:105C60009C93485351094131510508F440C0DF016C
:105C7000D89653AF42AF88E390E09383828386E166
:105C800095E0EC01288139812A173B0710F4C901FE
:105C9000F8CF6A817B816C01C60ED71EAC15BD059D
:105CA00029F4460F571F5B834A83DC0112964D91FE
:105CB0005C911397BD01640F751F6217730771F430
:105CC0002E153F0559F0E9016A817B81460F571F68
:105CD00013965C934E9312972881398111963C93C9
:105CE0002E938A179B0719F0EC01B983A883828150
:105CF0009381A81AB90AB0921305A09212052091B7
:105D0000140530911505A216B30620F4B0921505BE
:105D1000A0921405882A992A938282821182108285
:105D200002C000E010E00FB6F8940F9280910F05CA
:105D3000815080930F0580910F058111B6C180912C
:105D40009813882309F4B1C120914A1330914B1361
:105D500099E0F92EEE24E39480914513882309F409
:105D600089C0F901A681B7815496ED91FC915597B0
:105D70001E964D915C911F9750968D919C915197D5
:105D8000EA019D838C8350968D919C915197EC01F3
:105D90005B834A83AD01445F5F4F61817281641709
:105DA000750711F49283818355961C921E92549725
:105DB000808181508083BD016E5F7F4F1A96ED9187
:105DC000FC911B9714964D915C91159716968D91A9
:105DD0009C911797EA019D838C8316968D919C91D7
:105DE0001797EC015B834A8341815281461757071D
:105DF00011F4928381831B961C921E921A978081C4
:105E00008150808356968C91569790912C139817B9
:105E100010F480932C13F89EC0011124AC01405A59
:105E20005C4EEA01E981FA811596FC93EE93149792
:105E30008481958117969C938E9316978481958182
:105E4000EC017B836A83758364831B965C934E931A
:105E50001A97FA0190819F5F9083E0919613F091D9
:105E6000971356969C918689981708F475CFE092FF
:105E70000E0572CF80910D05811108C080910E052D
:105E8000813009F012C10E94086C0FC189E0A82E70
:105E9000992493946FEF7FEF80910D05882371F320
:105EA00080910F058111EEC080910B0590910C053A
:105EB000019690930C0580930B0580910B059091B2
:105EC0000C05009789F520913113309132134091E0
:105ED0002F1350913013509332134093311330935A
:105EE000301320932F1320910A052F5F20930A056A
:105EF000E0913113F09132132081211105C070938C
:105F000009056093080510C0E0913113F091321338
:105F10000580F681E02D0680F781E02D2281338116
:105F20003093090520930805209108053091090553
:105F3000B12C8217930708F495C0E0913113F091CA
:105F400032132081211105C0709309056093080563
:105F500089C0E0913113F09132130580F681E02D74
:105F60000680F781E02D228133818217930728F480
:105F7000309309052093080575C09F012E5F3F4FA0
:105F8000A285B385E480F58046815781E7015D8372
:105F90004C8346815781EA01FB82EA821196ED909B
:105FA000FC901297E216F30621F412965C934E933E
:105FB0001197138612864C9141504C93A489B58950
:105FC0001097F9F046855785E088F188EA01FD824F
:105FD000EC82E088F188E7015B834A831196CD90DB
:105FE000DC901297AF01445F5F4FC416D50621F4D1
:105FF0001296FC92EE921197158A148A4C91415098
:106000004C93A68940912C134A1710F4A0932C139B
:10601000AA9ED0011124A05ABC4E11964D915C91BC
:10602000129755834483EA01EC80FD80F782E68273
:10603000EC80FD80E7013B832A83EA013D832C83CA
:10604000B387A2872C912F5F2C93A0919613B091C8
:106050009713368956962C91321708F46ECFBB24CD
:10606000B3946BCFE0919613F0919713E689AE9EAF
:10607000F0011124E05AFC4E8081823048F0BB24AC
:10608000B39406C080910D058F5F80930D05B12CF0
:1060900080910E05811101C0B11090920E05809182
:1060A0000D05815080930D05F7CE0F900FBE0115A1
:1060B000110569F4279A2F9ADFEFE0E7F2E0D1505B
:1060C000E040F040E1F700C000001F9AF5CFD80192
:1060D00058967C926E9257974FE750E065EA70E0D1
:1060E000C3010E94D175E801EF89F88DE258FF4F96
:1060F000E87FA801475E5F4FA6EAB2E088E08A0F1A
:106100009D019D91EA019993AE01E901988199233E
:1061100011F08A13F5CFD80190961C92909785E0E4
:1061200056968C93569793968C93939794961C922D
:10613000949798012E5F3F4F1B961C921E921A97C0
:1061400055961C921E92549719961C930E9318976D
:1061500041E050E01D965C934E931C9753961C9320
:106160000E935297E8011DA21EA21FA218A61AA6FE
:1061700019A641E14083DF01119792E29C931197A8
:1061800053E35C9360EE7BE411976C9311977C93DF
:1061900011971C9211971C92119750E85C931197DC
:1061A0001C9211971C9211971C92119752E05C93CC
:1061B000119753E05C93119754E05C9311978C9383
:1061C000119786E08C93119787E08C93119788E064
:1061D0008C93119789E08C93119780E18C931197A0
:1061E0004C93119782E18C93119783E18C931197D3
:1061F00084E18C93119785E18C93119786E18C93C0
:10620000119787E18C93119788E18C93119789E11D
:106210008C93119780E28C93119781E28C93119764
:106220009C93119783E28C9311971C9211971C9267
:10623000119786E28C93119787E28C93119788E2ED
:106240008C93119789E28C93119780E38C9311972B
:1062500081E38C93B997F983E8830FB6F8940F9292
:10626000809198138F5F80939813809196139091EB
:106270009713892B09F090C01093971300939613EE
:1062800080919813813009F096C0E0E6F3E16FEF5A
:106290007FEFCF010396928381834FEF5FEF74838B
:1062A0006383968385839087878310823996B3E1D1
:1062B000E639FB0771F78AE593E1909359138093D0
:1062C000581350935B1340935A1390935D1380932C
:1062D0005C1390935F1380935E131092571381E5C4
:1062E00093E19093501380934F1350935213409324
:1062F0005113909354138093531390935613809398
:10630000551310924E1388E493E1909347138093B2
:106310004613509349134093481390934B13809323
:106320004A1390934D1380934C13109245138FE3AF
:1063300093E190933E1380933D1350934013409309
:106340003F1390934213809341139093441380938F
:10635000431310923C1386E393E19093351380939B
:10636000341350933713409336139093391380931B
:10637000381390933B1380933A131092331387E5AD
:1063800093E190933213809331138EE493E19093D1
:10639000301380932F130FC080912E1381110BC0E7
:1063A000E0919613F09197138689883020F410932A
:1063B00097130093961380912D138F5F80932D1365
:1063C000E80189A3EE8980912C138E1710F4E093D5
:1063D0002C13D9E0ED9FF0011124E05AFC4EA1816D
:1063E000B281E801BD83AC8314968D919C91159781
:1063F0009F838E831496CD91DC9115973B832A83DE
:1064000015963C932E931497D8011B96FC93EE930C
:106410001A9780818F5F80830F900FBE80912E131B
:10642000882349F0E0919613F0919713868987307D
:1064300010F40E94086CF8948FEF9FEF9093090579
:106440008093080581E080932E1310920C05109222
:106450000B05A89520EC88E190E00FB6F894A8957C
:10646000809360000FBE20936000A0919613B091BE
:106470009713CD91CDBFDD91DEBFFF91EF91DF91FD
:10648000CF91BF91AF919F918F917F916F915F91CC
:106490004F913F912F911F910F91FF90EF90DF90BF
:1064A000CF90BF90AF909F908F907F906F905F90B4
:1064B0004F903F902F901F900F900CBE0F900BBEEF
:1064C0000F900FBE0F900895279A2F9ABFEFC0E745
:1064D000D2E0B150C040D040E1F700C000001F9AA8
:1064E000F5CFCF93DF93CDB7DEB72E970FB6F894E5
:1064F000DEBF0FBECDBF34E4232E0E948A6E809192
:10650000B213811105C08091B113882309F476C2BA
:1065100080917B00877F80937B0020927C0080911C
:106520007A00806480937A0080917A0086FDFCCFA7
:10653000A091780080917900B0E0B82B24EF31E091
:106540000E94EC7120E034E040E050E00E940577CA
:10655000CA01B9010E9428736093DC147093DD14A2
:106560008093DE149093DF1480911A15882309F428
:1065700047C10E94F33B6D837E838F839887809110
:10658000021590910315A0910415B09105154D8148
:106590005E816F817885481B590B6A0B7B0B80915C
:1065A0000E1590910F15A0911015B0911115481767
:1065B00059076A077B0708F423C12091FC14309126
:1065C000FD14D9018D919D910D90BC91A02D8983D1
:1065D0009A83AB83BC83E0910015F09101159C0177
:1065E000AD0160817181828193810E9407724B01AC
:1065F0005C0120910A1530910B1540910C155091BA
:106600000D1569817A818B819C810E9407726B01D3
:106610007C012091F0143091F1144091F2145091CA
:10662000F314C501B4010E941C7420910615309129
:10663000071540910815509109150E9408722B0109
:106640003C0160930615709307158093081590938D
:10665000091530901B1531101AC02091EC1430919F
:10666000ED144091EE145091EF14C701B6010E9451
:106670001C749B01AC01C301B2010E9407726093BC
:10668000061570930715809308159093091540908F
:106690000615509007156090081570900915109117
:1066A0001615B0911715BE8700911815E0911915B0
:1066B000ED87212F3B2F402F5E2FC301B2010E9497
:1066C000177418162CF4812F9E85A02FBD8518C035
:1066D0008091121590911315A0911415B091151574
:1066E00089879A87AB87BC879C01AD01C301B20142
:1066F0000E94747287FF0CC089859A85AB85BC8522
:106700008093061590930715A0930815B09309156B
:10671000332079F02091EC143091ED144091EE1477
:106720005091EF14C501B4010E941C744B015C012F
:1067300003C0812C912C54012091F4143091F51454
:106740004091F6145091F714C701B6010E941C74D1
:106750009B01AC0160910615709107158091081599
:10676000909109150E9407729B01AC01C501B4010B
:106770000E9408726B017C01212F3E85402F5D85B0
:106780000E9417741816C4F01091121590911315E9
:106790009E8700911415A0911515AD87212F392FD3
:1067A000402F5A2FB601C7010E94747287FD04C0A2
:1067B0001C2DDE860E2DFD86E091FE14F091FF1457
:1067C000812F9E85A02FBD8580839183A283B38373
:1067D00089819A81AB81BC8180930A1590930B15B6
:1067E000A0930C15B0930D158D819E81AF81B88556
:1067F0008093021590930315A0930415B09305158B
:106800006091D8147091D9148091DA149091DB14AE
:106810000E94F0726B017C018B0184E00E94A04B0E
:10682000C114D10411F460E004C00F3F110529F434
:1068300061E084E00E943C3BACC0E2EBF2E084917A
:1068400090E0FC013197E231F10508F09DC0882706
:10685000E458FF4F8F4F0C94E47184B5806884BD79
:10686000C7BC97C084B5806284BDC8BC92C080910B
:106870008000806880938000D0928900C092880058
:1068800088C080918000806280938000D0928B00CD
:10689000C0928A007EC080918000886080938000D2
:1068A000D0928D00C0928C0074C08091B00080683E
:1068B0008093B000C092B3006CC08091B000806241
:1068C0008093B000C092B40064C080919000806852
:1068D00080939000D0929900C09298005AC0809105
:1068E0009000806280939000D0929B00C0929A00AA
:1068F00050C080919000886080939000D0929D005D
:10690000C0929C0046C08091A00080688093A00047
:106910008091A0008F7B8093A000D092A900C092AC
:10692000A80037C08091A00080628093A000D09220
:10693000AB00C092AA002DC08091A0008860809317
:10694000A000D092AD00C092AC0023C08091200185
:10695000806880932001D0922901C092280119C03B
:1069600080912001806280932001D0922B01C092FF
:106970002A010FC080912001886080932001D0926D
:106980002D01C0922C0105C0003811050CF050CF2C
:106990004ACF6091C3137091C4138091C513909135
:1069A000C6130E9489746B017C018091AF13909192
:1069B000B013880F991FBC01990F880B990B0E9487
:1069C00028734B015C012091AB133091AC134091C3
:1069D000AD135091AE13C701B6010E941C749B0108
:1069E000AC01C501B4010E9408726093D414709385
:1069F000D5148093D6149093D71407C084E00E94D6
:106A0000A04B60E084E00E943C3B2AE037ED43E28B
:106A10005CE36091C3137091C4138091C51390918E
:106A2000C6130E9408726093C3137093C4138093BB
:106A3000C5139093C6130E94086C5FCDCF93DF936C
:106A4000CDB7DEB728970FB6F894DEBF0FBECDBF27
:106A500019E001E022242A94322C0E948A6E80914F
:106A6000AA13882309F405C18090A6139090A71358
:106A7000A090A813B090A91320E030E0A901C501AF
:106A8000B4010E947472C090A213D090A313E0903E
:106A9000A413F090A513882309F471C0A5019401F3
:106AA0006BED7FE089EC90E40E947E724B015C010B
:106AB00060919E1370919F138091A0139091A113E8
:106AC00069837A838B839C832091BF133091C01399
:106AD0004091C1135091C213C501B4010E941C74AE
:106AE0000E9489749B01AC0169817A818B819C81B0
:106AF0000E941C749B01AC01C701B6010E94087280
:106B00006093BB137093BC138093BD139093BE131B
:106B10004090B7135090B8136090B9137090BA13A7
:106B2000A3019201C501B4010E941C740E947972F4
:106B30006D837E838F839887A3019201C701B6017D
:106B40000E941C7426E636E646E65FE30E94087261
:106B50006B017C01A501940169817A818B819C8103
:106B60000E947E722D813E814F8158850E941C7447
:106B70009B01AC01C701B6010E9407721AC0C09206
:106B8000BB13D092BC13E092BD13F092BE132091C0
:106B9000B7133091B8134091B9135091BA13C7018C
:106BA000B6010E941C7426E636E646E65FE30E94C4
:106BB00008726093B3137093B4138093B5139093DA
:106BC000B6138090BB139090BC13A090BD13B090EF
:106BD000BE1326E636E646E65FE3C501B4010E9431
:106BE0001C746093C4157093C5158093C61590935B
:106BF000C715C090B313D090B413E090B513F090C4
:106C0000B61326E636E646E65FE3C701B6010E9404
:106C10001C746093BE157093BF158093C01590933C
:106C2000C1158092B8159092B915A092BA15B0927C
:106C3000BB15C092B215D092B315E092B415F09284
:106C4000B51562EC75E186EA95E10E94E4466CEBCD
:106C500075E18CE995E10E94E44666EB75E182E915
:106C600095E10E94E44660EB75E188E895E10E94B9
:106C7000E4462AE037ED43E25CE36091BF13709194
:106C8000C0138091C1139091C2130E940872609347
:106C9000BF137093C0138093C1139093C2132AE063
:106CA00037ED43E25CE36091B7137091B8138091C4
:106CB000B9139091BA130E9408726093B71370933E
:106CC000B8138093B9139093BA1380919D138823BE
:106CD00009F472C0C0909913D0909A13E0909B135E
:106CE000F0909C13C092BB13D092BC13E092BD13E2
:106CF000F092BE130E94F33B0E9426739B01AC01ED
:106D0000C701B6010E941C7420E030E04AE754E459
:106D10000E947E724B015C016093B3137093B413B5
:106D20008093B5139093B61326E636E646E65FE306
:106D3000C701B6010E941C746093C4157093C515F9
:106D40008093C6159093C71526E636E646E65FE3C0
:106D5000C501B4010E941C746093BE157093BF15E9
:106D60008093C0159093C115C092B815D092B915F3
:106D7000E092BA15F092BB158092B2159092B315BD
:106D8000A092B415B092B51562EC75E186EA95E172
:106D90000E94E4466CEB75E18CE995E10E94E446C3
:106DA00066EB75E182E995E10E94E44660EB75E1EE
:106DB00088E895E10E94E4468091B213811105C0F4
:106DC0008091B113882309F442C04091D8145091A6
:106DD000D9146091DA147091DB148091D4149091DD
:106DE000D514A091D614B091D714C090DC14D090D3
:106DF000DD14E090DE14F090DF14C0928415D09280
:106E00008515E0928615F092871540937E15509374
:106E10007F156093801570938115809378159093FA
:106E20007915A0937A15B0937B1562E875E18CE62D
:106E300095E10E94E4466CE775E182E695E10E94E7
:106E4000E44666E775E188E595E10E94E4468091B5
:106E50000F058F5F80930F0580910B0590910C05B6
:106E6000E0919613F0919713E284F3844481558165
:106E700026813781DA0115963C932E93149726814B
:106E80003781D90113965C934E931297AF014E5FF1
:106E90005F4FD70111966D917C911297641775071A
:106EA00021F412963C932E93119701961386128625
:106EB000F701208121502083E0919613F0919713E0
:106EC0009383828320910B0530910C0582179307E1
:106ED00008F042C080919613909197139C012E5F09
:106EE0003F4FC0902F13D0903013DC0112964D917C
:106EF0005C9113974F3FBFEF5B0731F4D6011796B4
:106F0000ED91FC9118970CC0F60133966281738164
:106F1000DB01ED90FC904E155F0510F0FB01F6CF04
:106F200042815381DC0115965C934E931497DA01EC
:106F300015963C932E931497DC011796FC93EE93D1
:106F40001697338322831B96DC92CE921A97F60112
:106F500080818F5F80834CC020919613309197136E
:106F6000A9014E5F5F4FA0903113B0903213D90149
:106F700012966D917C9113976F3FBFEF7B0731F4B1
:106F8000D5011796ED91FC9118970CC0F501339639
:106F9000E280F380D701CD90DC906C157D0510F078
:106FA000F701F6CF62817381D90115967C936E93B8
:106FB0001497DB0115965C934E931497D90117969D
:106FC000FC93EE931697538342831B96BC92AE922A
:106FD0001A97F50120812F5F2083209108053091B9
:106FE00009058217930720F49093090580930805FB
:106FF0000FB6F8940F9280910F05815080930F0582
:1070000080910F05882311F080E0CFC18091981303
:107010008823D1F320914A1330914B13809145136B
:10702000882309F490C0D9011696ED91FC91179729
:10703000E488F5884685578580899189DA01159617
:107040009C938E93149780899189DC0113965C93AD
:107050004E931297AF01445F5F4FD70111966D9128
:107060007C9112976417750721F412969C938E9366
:107070001197158A148AD7018C9181508C93AF0196
:107080004E5F5F4FE284F3846481758186819781CE
:10709000DB0115969C938E93149786819781DC0172
:1070A00013967C936E931297D70111966D917C91F4
:1070B00012976417750721F412969C938E9311977B
:1070C00013861286D7018C9181508C93A68980916A
:1070D0002C138A1710F4A0932C131A9FD00111249B
:1070E000BD01605A7C4E7B01DB0111968D919C9114
:1070F000129795838483DC0114966D917C9115978A
:107100007783668314966D917C911597DB011396B6
:107110005C934E931297DC0115965C934E931497F3
:10712000F386E286D7018C918F5F8C93A0919613A2
:10713000B0919713968956968C91981708F46ECF54
:1071400000930E056BCF80910D0581113FC080919A
:107150000E05813009F058CF0E94086C81E025C1EE
:1071600080910F05811117C180910B0590910C053D
:10717000019690930C0580930B0520910B0530919F
:107180000C052115310539F180910805909109050B
:107190002817390708F051C080E0E0919613F0916C
:1071A0009713E6891E9FF0011124E05AFC4E90814E
:1071B000923008F081E090910E059111F3C0811199
:1071C000F1C080910D05815080930D0580910D05D2
:1071D0008111C6CFBCCF8091311390913213409171
:1071E0002F135091301350933213409331139093D7
:1071F000301380932F1380910A058F5F80930A05C7
:10720000E0913113F09132138081811105C03092E9
:10721000090520920805B8CFE0913113F09132139F
:107220000580F681E02D0680F781E02D8281938133
:107230009093090580930805A7CF80E0E091311372
:10724000F09132139081911105C03092090520927E
:107250000805A3CFE0913113F09132130580F68138
:10726000E02D0680F781E02D4281538124173507F8
:1072700028F450930905409308058FCFAF014E5F66
:107280005F4FC284D384E480F58066817781D70123
:1072900015967C936E93149766817781DB01139624
:1072A000FC92EE921297D6011196ED90FC901297F7
:1072B000E416F50621F412967C936E9311971386CB
:1072C0001286D6019C9191509C93A488B588A114F4
:1072D000B10429F166857785E088F188DB01159690
:1072E000FC92EE921497E088F188D70113967C9374
:1072F0006E931297D5011196CD90DC901297BF0135
:10730000645F7F4FC616D70621F41296FC92EE9268
:107310001197158A148AD5019C9191509C93A68946
:1073200090912C139A1710F4A0932C131A9FD0014C
:107330001124BD01605A7C4E6B01DB0111966D91E9
:107340007C91129775836483DB011496ED90FC9019
:107350001597F782E6821496ED90FC901597D70169
:1073600013965C934E931297DB0115965C934E93A4
:107370001497D386C286D6019C919F5F9C93A0915F
:107380009613B0919713468956969C91491708F425
:1073900055CF81E053CF80910D058F5F80930D0510
:1073A00080E009CF00930E050CCF0F900FBE811126
:1073B00054CB0E94086C51CB3FB7F8948091D41302
:1073C0009091D513A091D613B091D71326B5A89B51
:1073D00005C02F3F19F00196A11DB11D3FBFBA2F67
:1073E000A92F982F8827820F911DA11DB11DBC01C7
:1073F000CD0142E0660F771F881F991F4A95D1F78C
:107400000895CF92DF92EF92FF920F931F93CF9345
:10741000DF936C017A018B01C0E0D0E0CE15DF056F
:1074200089F0D8016D918D01D601ED91FC9101900B
:10743000F081E02DC6011995892B11F47E0102C05F
:107440002196ECCFC701DF91CF911F910F91FF9053
:10745000EF90DF90CF900895089580E090E0089538
:10746000FC01538D448D252F30E0842F90E0821B4A
:10747000930B541710F0CF96089501970895FC01CF
:10748000918D828D981761F0828DDF01A80FB11D5B
:107490005D968C91928D9F5F9F73928F90E008957F
:1074A0008FEF9FEF0895FC01918D828D981731F039
:1074B000828DE80FF11D858D90E008958FEF9FEF8D
:1074C0000895FC01918D228D892F90E0805C9F4F63
:1074D000821B91098F739927089587EF93E10E948A
:1074E000613A21E0892B09F420E0822F0895FC0104
:1074F000848DDF01A80FB11DA35ABF4F2C91848D3D
:1075000090E001968F739927848FA689B7892C9371
:10751000A089B1898C9180648C93938D848D98130C
:1075200006C00288F389E02D80818F7D80830895D5
:10753000EF92FF920F931F93CF93DF93EC0181E0C3
:10754000888F9B8D8C8D981305C0E889F98980817F
:1075500085FD24C0F62E0B8D10E00F5F1F4F0F73BB
:107560001127E02E8C8DE8120CC00FB607FCFACF65
:10757000E889F989808185FFF5CFCE010E94773AAD
:10758000F1CF8B8DFE01E80FF11DE35AFF4FF08222
:107590000B8FEA89FB898081806207C0EE89FF89B1
:1075A0006083E889F98980818064808381E090E04C
:1075B000DF91CF911F910F91FF90EF900895CF939E
:1075C000DF93EC01888D8823C9F0EA89FB898081EB
:1075D00085FD05C0A889B9898C9186FD0FC00FB6BD
:1075E00007FCF5CF808185FFF2CFA889B9898C91FE
:1075F00085FFEDCFCE010E94773AE7CFDF91CF91A3
:10760000089580E090E0892B21F00E946D3A81116D
:1076100025C080E090E0892B41F080E090E0892B4C
:1076200021F00E94000081111CC080E090E0892BB5
:1076300041F080E090E0892B21F00E940000811150
:1076400013C080E090E0892BA1F080E090E0892BCE
:1076500081F00E94000081110AC008950E9400007C
:10766000D8CF0E940000E1CF0E940000EACF0C9426
:10767000000008950E94C375362F90E0FC01E2558A
:10768000FD4F4491FC01E259FC4F2491FC01E85D5F
:10769000FC4F9491992309F46BC0442309F455C01D
:1076A00050E0FA013197E231F10508F04EC0882729
:1076B000E257FF4F8F4F0C94E471809180008F77D9
:1076C00007C0809180008F7D03C080918000877FFC
:1076D000809380003AC084B58F7702C084B58F7DD7
:1076E00084BD33C08091B0008F7703C08091B0001B
:1076F0008F7D8093B00029C0809190008F7707C064
:10770000809190008F7D03C080919000877F80934F
:1077100090001BC08091A0008F7707C08091A000CF
:107720008F7D03C08091A000877F8093A0000DC053
:10773000809120018F7707C0809120018F7D03C049
:1077400080912001877F80932001E92FF0E0EE0FE8
:10775000FF1FEC50FD4FA591B4918FB7F894EC91B9
:10776000311103C020952E2301C02E2B2C938FBFE7
:1077700008958F929F92AF92BF92CF92DF92EF9235
:10778000FF926B017C010E94DC394B015C01C1144A
:10779000D104E104F104F1F00E94DC39DC01CB01F9
:1077A00088199909AA09BB09883E9340A105B1052A
:1077B00070F321E0C21AD108E108F10888EE880EC2
:1077C00083E0981EA11CB11CC114D104E104F10492
:1077D00019F7DDCFFF90EF90DF90CF90BF90AF9083
:1077E0009F908F9008952FB7F8946091D013709167
:1077F000D1138091D2139091D3132FBF08951F926C
:107800000F920FB60F9211242F933F938F939F9354
:10781000AF93BF938091D0139091D113A091D213C5
:10782000B091D3133091CF1323E0230F2D3720F4E1
:107830000196A11DB11D05C026E8230F0296A11DCA
:10784000B11D2093CF138093D0139093D113A093A5
:10785000D213B093D3138091D4139091D513A091E8
:10786000D613B091D7130196A11DB11D8093D413E7
:107870009093D513A093D613B093D713BF91AF9124
:107880009F918F913F912F910F900FBE0F901F905E
:1078900018951F920F920FB60F9211240BB60F92EC
:1078A0002F933F934F935F936F937F938F939F9308
:1078B000AF93BF93EF93FF9387EF93E10E94773AE3
:1078C000FF91EF91BF91AF919F918F917F916F91B8
:1078D0005F914F913F912F910F900BBE0F900FBE74
:1078E0000F901F9018951F920F920FB60F921124B0
:1078F0000BB60F922F938F939F93EF93FF93E0918B
:107900000714F09108148081E0910D14F0910E1489
:1079100082FD12C09081809110148F5F8F7320912F
:107920001114821751F0E0911014F0E0E950FC4E70
:10793000958F8093101401C08081FF91EF919F91EA
:107940008F912F910F900BBE0F900FBE0F901F9035
:107950001895FC01EA57FB4F8081089582ED92E073
:10796000089583EF92E00895FC0186AD97AD0895E8
:10797000AF92BF92CF92DF92EF92FF920F931F933D
:10798000CF93DF9300D01F921F92CDB7DEB78C014B
:107990006B01643671053CF0FC01EA57FB4F8081B6
:1079A000882309F478C0DA01ED91FC910190F0810F
:1079B000E02DB801615E7D4FCA0119957801B8EEDE
:1079C000EB1ABDEFFB0A2FEFF70120832EEF319664
:1079D000208331968083319690833196292F280F0A
:1079E000209520833196C082D801A25EBD4FDC92E3
:1079F00045E050E020E030E0BC016A5F7F4F641753
:107A0000750734F0A1912A0F311D4F5F5F4FF7CFFB
:107A10006C01F8E0CF0ED11C800F911FFC01E15EDC
:107A2000FD4F2095208321E0C21622E0D206CCF43F
:107A30005701C5018E199F098C159D0584F4D80145
:107A400012968D919C911397F50161915F01DC0174
:107A5000ED91FC910190F081E02D1995EACFC601DE
:107A60001CC08AE192E09A83898383E08B838EE055
:107A700093E09D838C83D801ED91FC910190F0817E
:107A8000E02DAE014F5F5F4F67E070E0C8011995D0
:107A90008FEF9FEF02C080E090E00F900F900F906B
:107AA0000F900F90DF91CF911F910F91FF90EF906A
:107AB000DF90CF90BF90AF9008950F931F93CF9317
:107AC000DF938C01EC012696CE010E94B03DD801D7
:107AD000DC96ED91FC91DD97CE01DF91CF911F9166
:107AE0000F9119940F931F93CF93DF93CDB7DEB708
:107AF0002A970FB6F894DEBF0FBECDBF8C018EE083
:107B000092E09A8389831B821C821D821E821F82BF
:107B1000188619861A86D801ED91FC910190F081A2
:107B2000E02DAE014F5F5F4F6AE070E0C80119952C
:107B30000E94F33BF80160877187828793872A96BA
:107B40000FB6F894DEBF0FBECDBFDF91CF911F916E
:107B50000F91089582ED92E0089583EF92E00895E9
:107B6000DC01FB01808112968C9312978181139620
:107B70008C931397828114968C9314978381159616
:107B80008C931597848116968C93169785811796FA
:107B90008C931797868118968C93189787811996DE
:107BA0008C9319978185428550E060E070E0BA01BE
:107BB00055274427582B8085482B8385782B1A9688
:107BC0004D935D936D937C931D978585468550E01D
:107BD00060E070E0BA0155274427582B8485482B74
:107BE0008785782B1E964D935D936D937C9351976B
:107BF0008189428950E060E070E0BA01552744274E
:107C0000582B8089482B8389782B52964D935D930E
:107C10006D937C9355978589468950E060E070E0CC
:107C2000BA0155274427582B8489482B8789782BFC
:107C300056964D935D936D937C935997818D428DAC
:107C400050E060E070E0BA0155274427582B808D42
:107C5000482B838D782B5A964D935D936D937C932F
:107C60005D97858D468D50E060E070E0BA01552744
:107C70004427582B848D482B878D782B5E964D9307
:107C80005D936D937C93919781A142A150E060E058
:107C900070E0BA0155274427582B80A1482B83A1B7
:107CA000782B92964D935D936D937C93959785A1D8
:107CB00046A150E060E070E0BA0155274427582BF8
:107CC00084A1482B87A1782B96964D935D936D9355
:107CD0007C93999781A542A550E060E070E0BA01DD
:107CE00055274427582B80A5482B83A5782B9A9697
:107CF0004D935D936D937C939D9785A546A550E02C
:107D000060E070E0BA0155274427582B84A5482B22
:107D100087A5782B9E964D935D936D937C93D19719
:107D200081A942A950E060E070E0BA0155274427DC
:107D3000582B80A9482B83A9782BD2964D935D931D
:107D40006D937C93D59784E390E00895DC01FB016B
:107D500012968C911297808313968C91139781833E
:107D600014968C911497828315968C911597838322
:107D700016968C911697848317968C911797858306
:107D800018968C911897868319968C9119978783EA
:107D90001A963C911A971B962C911B971C969C91B6
:107DA0001C971D968C911D9730872187928783871A
:107DB0001E963C911E971F962C911F9750969C9152
:107DC000509751968C91519734872587968787874E
:107DD00052963C91529753962C91539754969C915E
:107DE000549755968C915597308B218B928B838B22
:107DF00056963C91569757962C91579758969C912A
:107E0000589759968C915997348B258B968B878BE5
:107E10005A963C915A975B962C915B975C969C91F5
:107E20005C975D968C915D97308F218F928F838FB9
:107E30005E963C915E975F962C915F9790969C9191
:107E4000909791968C919197348F258F968F878FED
:107E500092963C91929793962C91939794969C919D
:107E6000949795968C91959730A321A392A383A381
:107E700096963C91969797962C91979798969C9169
:107E8000989799968C91999734A325A396A387A345
:107E90009A963C919A979B962C919B979C969C9135
:107EA0009C979D968C919D9730A721A792A783A719
:107EB0009E963C919E979F962C919F97D0969C91D1
:107EC000D097D1968C91D19734A725A796A787A74D
:107ED000D2963C91D297D3962C91D397D4969C91DD
:107EE000D497D5968C9130AB21AB92AB83AB84E326
:107EF00090E0089587E493E0089588E693E008957C
:107F00008F929F92AF92BF92CF92DF92EF92FF92A9
:107F10000F931F93FC01DB011396CC901397C2942F
:107F2000C69497E0C9228C2C912CA12CB12C828272
:107F30009382A482B5821496CC901497D12CE12C14
:107F4000F12C23E0CC0CDD1CEE1CFF1C2A95D1F794
:107F5000C828D928EA28FB28C282D382E482F58285
:107F600015960C91159710E020E030E04BE0000FE3
:107F7000111F221F331F4A95D1F7C02AD12AE22AA6
:107F8000F32AC282D382E482F58216960C91169768
:107F90000F7010E020E030E053E1000F111F221FAE
:107FA000331F5A95D1F70C291D292E293F29028309
:107FB00013832483358316968C91169782958F7040
:107FC00017964C9117974F7750E060E070E094E07F
:107FD000440F551F661F771F9A95D1F7482B4115FF
:107FE00051056105710599F04058534061097109C7
:107FF00087E1440F551F661F771F8A95D1F7402BE5
:10800000512B622B732B42835383648375831796A2
:108010008C91807890E0A0E0B0E0B82FAA27992753
:1080200088274281538164817581842B952BA62BEF
:10803000B72B82839383A483B58388E090E01F915C
:108040000F91FF90EF90DF90CF90BF90AF909F90F7
:108050008F9008958F929F92AF92BF92CF92DF92AE
:10806000EF92FF920F931F93CF93DF93EB01FC01ED
:1080700082809380A480B580D501C40177E1B59555
:10808000A795979587957A95D1F79927AA27BB2722
:108090000097A105B10521F080589C4FAF4FBF4F0D
:1080A000188219821A82B501A40125E0440F551FD8
:1080B000661F771F2A95D1F74B83B501A40133E0E2
:1080C00075956795579547953A95D1F74C83B501C6
:1080D000A401EBE07595679557954795EA95D1F71B
:1080E0004D83AC01BD01F4E0440F551F661F771F9F
:1080F000FA95D1F79501840153E1359527951795A8
:1081000007955A95D1F70F70402B4E836C017D0176
:1081100064E0F594E794D794C7946A95D1F720E08A
:1081200030E0A901C501B4010E94747287FD02C04C
:10813000CF8203C08C2D80688F8388E090E0DF9130
:10814000CF911F910F91FF90EF90DF90CF90BF9054
:10815000AF909F908F90089589E793E0089582E211
:1081600092E008958AE993E008958BEB93E00895F7
:108170008EEC93E008958FEE93E0089588E094E00C
:10818000089589E294E00895FC01DB014C9150E0F0
:1081900060E070E0428353836483758311968C9111
:1081A0001197582B428353836483758312968C9165
:1081B0001297682B428353836483758313968C9143
:1081C0001397782B428353836483758314964C9161
:1081D000149750E060E070E04683578360877187B2
:1081E00015968C911597582B468357836087718716
:1081F00016968C911697682B4683578360877187F4
:1082000017968C91782B468357836087718788E017
:1082100090E00895DC01FB0112968C911297808307
:1082200013968C911397818314968C911497828363
:1082300015968C911597838316968C911697848347
:1082400017968C911797858318968C91189786832B
:1082500019968C91878388E090E008953F924F9221
:108260005F926F927F928F929F92AF92BF92CF92C6
:10827000DF92EF92FF920F931F93CF93DF93CDB7CF
:10828000DEB728970FB6F894DEBF0FBECDBF6C01E6
:1082900020E030E040E85FE3DC011A966D917D91CB
:1082A0008D919C911D970E94747281110EC061E0A6
:1082B0008DE00E943C3B68EE73E080E090E00E941D
:1082C000B93B60E08DE00E943C3BF601828190E08A
:1082D0009093F6138093F513838190E09093F413B9
:1082E0008093F313848190E09093F2138093F113C1
:1082F00082859385A485B5858093AB139093AC1349
:10830000A093AD13B093AE13858190E09093B0131A
:108310008093AF1386818093AA13878180939D13E6
:1083200030843092B21381858093B113868597850E
:10833000A089B18980939E1390939F13A093A0135B
:10834000B093A11382899389A489B5898093A613D8
:108350009093A713A093A813B093A9138689978924
:10836000A08DB18D8093A2139093A313A093A41317
:10837000B093A513828D938DA48DB58D80939913A1
:1083800090939A13A0939B13B0939C13668D778D53
:1083900080A191A16093ED137093EE138093EF137E
:1083A0009093F01322A133A144A155A12D833E83C4
:1083B0004F8358872093E9133093EA134093EB13CC
:1083C0005093EC13E6A0F7A000A511A5E092E513E9
:1083D000F092E6130093E7131093E81382A493A49A
:1083E000A4A4B5A48092E1139092E213A092E313A7
:1083F000B092E41346A457A460A871A84092DD137C
:108400005092DE136092DF137092E01322A933A919
:1084100044A955A929833A834B835C832093D913BC
:108420003093DA134093DB135093DC133320F1F0D5
:1084300060931C1570931D1580931E1590931F1546
:108440002D813E814F815885209320153093211531
:108450004093221550932315E0922415F092251590
:1084600000932615109327150E94C44A8091B113DA
:10847000882321F180921C1590921D15A0921E1543
:10848000B0921F154092201550922115609222152E
:108490007092231589819A81AB81BC8180932415C8
:1084A00090932515A0932615B09327157C018D0177
:1084B000A3019201C501B4010E94C44A28960FB6D7
:1084C000F894DEBF0FBECDBFDF91CF911F910F910A
:1084D000FF90EF90DF90CF90BF90AF909F908F90E4
:1084E0007F906F905F904F903F9008958F929F92F2
:1084F000AF92BF92CF92DF92EF92FF920F931F93B2
:10850000CF93DF9300D01F92CDB7DEB77C018B01F4
:10851000FB018191BF01F7018283CE0101960E9488
:10852000794A89819A81AB81BC814C015D01F5E07A
:108530008F0E911CA11CB11C680125E0C20ED11C3C
:10854000A601401B510B60E070E0481559056A0513
:108550007B0548F4F60141916F019F0122503109DA
:10856000F9014083EDCFF801E80FF91F14820C5F89
:108570001F4FF7011483038305960F900F900F9000
:108580000F90DF91CF911F910F91FF90EF90DF90AF
:10859000CF90BF90AF909F908F9008954F925F9231
:1085A0006F927F928F929F92AF92BF92CF92DF9203
:1085B000EF92FF920F931F93CF93DF93CDB7DEB768
:1085C0002C970FB6F894DEBF0FBECDBF7C018B0198
:1085D000DB018C9190E0F7019383828311962C91BB
:1085E000922B938382836E5F7F4FCE0109960E9408
:1085F000794A89849A84AB84BC84B501A4014A5F1A
:108600005F4F6F4F7F4FF8013696CF01801B910B64
:10861000A0E0B0E084179507A607B70728F481917A
:10862000DF0112978C93F1CFF801E80DF91D158247
:10863000C8010596D70115969C938E931497B401A3
:108640006A5F7F4F600F711FCE0105960E94794AC5
:10865000BAE08B0E911C4D815E816F81788524017B
:10866000092C000C66087708440E551E661E771EFE
:10867000F801E80DF91DCF01801B910BA0E0B0E0DF
:1086800084159505A605B70528F48191DF01129799
:108690008C93F1CF6401C40ED51EB8016C0D7D1D05
:1086A000FB0131971082C4010197800F911FF701E0
:1086B00097838683CE0101960E94794AA6014C5F7A
:1086C0005F4F49805A806B807C804A01052E000CE8
:1086D000AA08BB08840C951CA61CB71CF801E40F63
:1086E000F51F9F01201B310BC901A0E0B0E08815E8
:1086F0009905AA05BB0528F48191DF0112978C9397
:10870000F0CFCA01840D951DF801E80FF91FDF01B4
:1087100011971C929A0121503109020F131FD701A2
:1087200019961C930E9318972181428150E060E0C6
:1087300070E0BA0155274427522B2081422B238118
:10874000722BF701428753876487758704962C96AE
:108750000FB6F894DEBF0FBECDBFDF91CF911F9152
:108760000F91FF90EF90DF90CF90BF90AF909F90D0
:108770008F907F906F905F904F9008952F923F92CF
:108780004F925F926F927F928F929F92AF92BF9221
:10879000CF92DF92EF92FF920F931F93CF93DF93CD
:1087A000CDB7DEB728970FB6F894DEBF0FBECDBFAA
:1087B0008C015B01DB018C9111969C9111971296B3
:1087C000CC901297D12CE12CF12C7601DD24CC2415
:1087D000D92AC82A13968C91F82AF80182819381AC
:1087E000A481B5818C159D05AE05BF0570F4B60159
:1087F000660F771F660F771F828593850E94DA7454
:10880000D8011B969C938E931A97F801C282D3824B
:10881000E482F582D5011796C12CD12C7601F4E0C3
:108820008F2E912C98012A5F3F4FF801428153818E
:1088300064817581C4010496C416D506E606F70660
:1088400080F54C9150E060E070E0742F662755276A
:108850004427FD013397E0814E2BFD013297E081E3
:108860005E2BFD013197E0816E2BF8014683578323
:10887000608771874C01089742855385840F951F47
:10888000F9014081518162817381FC0140835183F0
:1088900062837383FFEFCF1ADF0AEF0AFF0A149691
:1088A000C4CFF401EA0DFB1D20813181C280D12C9F
:1088B000E12CF12C7601DD24CC24D32AC22A238199
:1088C000F22A4C01F80184859585A685B7858C151B
:1088D0009D05AE05BF0570F4B601660F771F660FE4
:1088E000771F848995890E94DA74D80155969C93E4
:1088F0008E935497F801C486D586E686F78620E0E5
:1089000030E0C12CD12C7601D8015096F801448575
:10891000558566857785F501E80DF91DC401049636
:10892000C416D506E606F70648F59180428150E068
:1089300060E070E0BA015527442759299080492901
:10894000E3817E2BF801408B518B628B738B4C0142
:1089500084899589FC01E20FF31F4D915D916D9122
:108960007C9113974083518362837383FFEFCF1A07
:10897000DF0AEF0AFF0A2C5F3F4FC8CF2081318109
:10898000C280D12CE12CF12C7601DD24CC24D32A19
:10899000C22A2381F22A4C01F80186899789A08D89
:1089A000B18D8C159D05AE05BF0560F4B601660F4F
:1089B000771F848D958D0E94DA74D8015D969C9303
:1089C0008E935C97F801C68AD78AE08EF18E412C8F
:1089D000512C32011801FAE12F0E311CF801868961
:1089E0009789A08DB18D481659066A067B0608F056
:1089F0005AC0B501680D791DCE0101960E94794AD1
:108A000094012C5F3F4FC980DA80EB80FC80C90164
:108A1000032E000CAA0BBB0BAC01BD014C0D5D1D60
:108A20006E1D7F1D4D835E836F837887F501E20F96
:108A3000F31FAF014A195B09CA01A0E0B0E04D8104
:108A40005E816F81788584179507A607B70728F49C
:108A50004191DF0112974C93ECCFC9018C0D9D1D04
:108A6000F501E80FF91F31971082215031092A0DC5
:108A70003B1DD8015B963C932E935A974C01C20143
:108A8000880F991F5C96ED91FC915D97E80FF91F97
:108A9000D1018D919C9191838083BFEF4B1A5B0A2A
:108AA0006B0A7B0A9BCFC40128960FB6F894DEBFF1
:108AB0000FBECDBFDF91CF911F910F91FF90EF902F
:108AC000DF90CF90BF90AF909F908F907F906F90EE
:108AD0005F904F903F902F9008954F925F926F92CA
:108AE0007F92AF92BF92CF92DF92EF92FF920F935D
:108AF0001F93CF93DF93EC017B018A81FB0180837D
:108B00008B8181838C8182838D818383DB011796A6
:108B100040E050E0BA01E4E0F0E04A805B806C8025
:108B20007D808F010C5F1F4F441555056605770545
:108B3000C0F48A859B85E80FF91F3497D080218186
:108B400092818381FD013397D082319620833196C3
:108B500090838C93F8014F5F5F4F6F4F7F4F149658
:108B6000DCCFEE0DFF1D8C8580838D8581838E8506
:108B700082838F85838380E090E040E050E0BA01FB
:108B80004C845D846E847F84F701E00FF11F0C5FDD
:108B90001F4F4415550566057705B8F4AC89BD89A6
:108BA000A80FB91FCC901196DC90119712963C91AA
:108BB000129713962C91C082D182328323834F5F08
:108BC0005F4F6F4F7F4F0496DBCF8E8980838F89F5
:108BD0008183888D8283898D8383412C512C32013E
:108BE0008E899F89A88DB98D481659066A067B061D
:108BF00080F55201AA0CBB1CEC8DFD8DEA0DFB1D0E
:108C0000A081B181FD0101900020E9F731976F014A
:108C1000CA1ADB0AA60160E070E0C701800F911F4D
:108C20000E94A74A0C5F1F4F8C8D9D8DFC01EA0DA1
:108C3000FB1D60817181A601C701800F911F0E94F9
:108C4000C8750C0D1D1DFFEF4F1A5F0A6F0A7F0AD2
:108C5000C7CFC801DF91CF911F910F91FF90EF9087
:108C6000DF90CF90BF90AF907F906F905F904F90CC
:108C70000895EF92FF920F931F93CF93DF938C0190
:108C80007B01EC018A81FB018193AB81BC81ED0109
:108C900009900020E9F72197CA1BDB0BAE0160E0C9
:108CA00070E0CF010E94A74AF80163817481AE0190
:108CB000C70105960E94C875CE010596DF91CF9138
:108CC0001F910F91FF90EF900895CF92DF92EF9256
:108CD000FF920F931F93CF93DF936C01EB01FC0185
:108CE0008281888383818983A481B581FD0101907C
:108CF0000020E9F731978F010A1B1B0BA80160E0E8
:108D000070E0CE0102960E94A74AF6016481758147
:108D1000A801CE0106960E94C875C8010696F60104
:108D2000A681B781FD0101900020E9F731977F010D
:108D3000EA1AFB0AA70160E070E08C0F9D1F0E94F9
:108D4000A74A065F1F4FF60166817781A701CE0112
:108D5000800F911F0E94C8750E0D1F1DF601A08582
:108D6000B185FD0101900020E9F731977F01EA1AF2
:108D7000FB0AA70160E070E0CE01800F911F0E9406
:108D8000A74A0C5F1F4FF60160857185A701CE01D0
:108D9000800F911F0E94C875C8018E0D9F1DF6019E
:108DA0006285438534852585C80FD91F688349832B
:108DB0003A832B830496DF91CF911F910F91FF90FF
:108DC000EF90DF90CF900895CF93DF93AB01EC014C
:108DD000AE81BF81ED91FC9111976C817D810190F5
:108DE000F081E02DCD01DF91CF9119942F923F9228
:108DF0004F925F926F927F928F929F92AF92BF92AB
:108E0000CF92DF92EF92FF920F931F93CF93DF9356
:108E1000CDB7DEB7A8970FB6F894DEBF0FBECDBFB3
:108E20008C010E94F33B2B013C01980125573B4FDD
:108E30003C8B2B8BF90180819181A281B381A301AD
:108E40009201281B390B4A0B5B0BDA01C901893FE0
:108E50009A42A105B10510F035971082780144E8D7
:108E6000E41A4BEFF40AD7018D919C91892B79F08C
:108E7000F801E157FB4F80819181A281B381841574
:108E80009505A605B70518F4F7011182108298011F
:108E90002C573B4F388B2F87A80140585B4F5A8B7C
:108EA000498BC80148969E8B8D8BD801AA57BB4F22
:108EB000BA8FA98FF801EC56FB4FF8A3EF8F215F13
:108EC0003F4F3AA329A3180132E8231A3BEF330A94
:108ED0004E5F5F4F588F4F8B89589B4F9CA38BA33E
:108EE000A30192012C5E3F4F4F4F5F4F2DA33EA336
:108EF0004FA358A7F80184899589A689B789892B3A
:108F00008A2B8B2B81F4D80112968D919C9113970B
:108F1000DC01ED91FC910284F385E02D19959C0113
:108F200097FF14C08AC20E94F33BDC01CB01841975
:108F30009509A609B709F80184889588A688B78895
:108F400088169906AA06BB06F0F69EC2AF85B889B8
:108F50008D919C911197820F931F8D939C93F70194
:108F60004081518147305105D1F4AF89B88D8D9141
:108F70009C911197AC014F5F5F4F4D935C93F8014B
:108F8000E80FF91F208FF101808191810197918372
:108F90008083892B09F0AECF88E090E032C0411584
:108FA000510539F52F3F310589F481E090E0F70153
:108FB000918380832DA13EA14FA158A5ABA1BCA157
:108FC0002D933D934D935C93139794CF0E94F33B65
:108FD000DC01CB0184199509A609B70989389341A9
:108FE000A105B10508F486CFF801EA57FB4F1082BE
:108FF0004BC241305105A9F42E3F310531F482E0D6
:1090000090E0D7018D939C9375CFF7011182108268
:10901000A98DBA8D8C9181116DCFC8010E94723DCE
:1090200069CF4230510589F4F10131832083AF8942
:10903000B88D1D921C9283E090E0F70191838083AC
:10904000AF85B8892D933C9355CF4330510561F4DA
:10905000322F2227F10180819181280F391F31831E
:10906000208384E090E0CDCF4430510581F460E06E
:1090700071E00E94D0718F3F910531F485E090E05E
:10908000F7019183808336CF1182108233CF453030
:10909000510571F4E989FA893183208386E090E0F3
:1090A000D7018D939C93EF85F8893183208322CF5C
:1090B00046305105A1F4322F2227A989BA898D9112
:1090C0009C911197280F391F2D933C9387E090E0D6
:1090D000F70191838083D1018D919C915ACF4830C3
:1090E000510509F007CFF7011182108260E071E0AD
:1090F0000E94D0718F3F910509F0FCCEA989BA89F1
:109100008D919C91009709F0C7C0C8010E94723DE3
:1091100086E492E09A8389831C821B8286E493E032
:109120009E838D8398878F839A8789871B861C8669
:109130001D861E865801B8EEAB1ABBEFBB0A68014C
:10914000E6EBCE1AEBEFDE0AD501ED91FC913097FC
:10915000D9F1848195819C838B83808191819E83C9
:109160008D8382819381DC01ED91FC910480F581F6
:10917000E02D199598878F83D501ED91FC9182811F
:109180009381DC01ED91FC910680F781E02D19952A
:109190009A87898720E032E040E050E02B873C87C7
:1091A0004D875E87D8018D919C91F501A081B18199
:1091B00018966D917C911997DC01ED91FC91AE01AF
:1091C0004F5F5F4FC8011995B2E0AB0EB11CAC14F4
:1091D000BD0409F0B9CF812C92E0992EA12CB12CBD
:1091E000F601A081B1811097E1F112968D919C91C9
:1091F00013979C838B8314968D919C9115979E83D6
:109200008D83ED91FC9111970480F581E02DCD01C6
:10921000199598878F83D6018D919C91DC01ED91F2
:10922000FC910680F781E02D19959A8789878B86B6
:109230009C86AD86BE86D801ED91FC912080318060
:10924000F60180819181DC01ED91FC910280F38136
:10925000E02D1995AE014F5F5F4FBC01C801F101D0
:109260001995F2E0CF0ED11CCE14DF0409F0B8CF6F
:10927000F801EA57FB4F81E08083319640825182AA
:1092800062827382AB89BC894D925D926D927C92B1
:1092900013978FEF9FEFFDC08A30910509F0A2C0B0
:1092A0008EE092E09A8389831B821C821D821E823B
:1092B0001F82188619861A860E94F33BF801808463
:1092C0009184A284B3849B01AC01281939094A090D
:1092D0005B0949015A016D897E89CE0101960E9480
:1092E000C440C501B40128EE33E040E050E00E94E4
:1092F0002F778B809C80AD80BE80820E931EA41E33
:10930000B51E8B829C82AD82BE829B01AC0160E463
:1093100072E48FE090E00E94C0718F809884A984ED
:10932000BA84DC01CB01880D991DAA1DBB1D8F835A
:109330009887A987BA870E94F33B8F809884A98475
:10934000BA8436E3931A35E6A30A34ECB30A28EE5E
:1093500033E040E050E00E942F772B8F3C8F4D8F01
:109360005E8F9B01AC0160E472E48FE090E00E94AC
:10937000C071A5019401261B370B480B590BCA017C
:10938000B9018B809C80AD80BE8031E0831A91084A
:10939000A108B1082B8D3C8D4D8D5E8D821A930AEC
:1093A000A40AB50A20E03AEC4AE95BE30E942F7771
:1093B000820E931EA41EB51ED8011C968D929D92FE
:1093C000AD92BC921F97F801608B718B828B938B4F
:1093D0000E94F33BAB89BC896D937D938D939C93E5
:1093E000139788CD8630910559F46D897E898F8DCC
:1093F00098A10E94BE4381E0E9A1FAA180837ACDC1
:109400008B30910521F4A98DBA8D1C9273CDFC018E
:10941000EF53FE4FEE0FFF1FE00FF11F8081918190
:10942000009709F467CDDC01ED91FC910190F0818A
:10943000E02D6D897E8919955DCDF801EA57FB4FC6
:109440008081882321F17801B9E7EB1ABBEFFB0A91
:10945000F70180819181A281B381A3019201281B30
:10946000390B4A0B5B0BDA01C901853C9940A10518
:10947000B10568F0C8010E94723DD7014D925D921E
:109480006D927C92139703C08EEF9FEF02C080E035
:1094900090E0A8960FB6F894DEBF0FBECDBFDF9167
:1094A000CF911F910F91FF90EF90DF90CF90BF90E1
:1094B000AF909F908F907F906F905F904F903F9074
:1094C0002F9008950E948A6E88EC95E10E94F646DE
:1094D00061E070E080E090E00E94B93B61E088E2EA
:1094E0000E943C3B0E94086C60E088E20E943C3B8A
:1094F000E9CFCF92DF92EF92FF92FC0110821182AE
:1095000012821382DB0120E030E04D9150E0022E08
:1095100002C0440F551F0A94E2F7052E000C660B9B
:10952000770BC080D180E280F3804C295D296E29C1
:109530007F294083518362837383285F3F4F2032AA
:10954000310519F7FF90EF90DF90CF900895CF92FB
:10955000DF92EF92FF9220E030E06A017B01022E61
:1095600004C0F694E794D794C7940A94D2F7FC0108
:10957000C192CF01285F3F4F2032310571F7FF9034
:10958000EF90DF90CF9008954F925F926F927F920D
:109590008F929F92AF92BF92CF92DF92EF92FF9203
:1095A0000F931F93CF93DF9300D01F92CDB7DEB7F9
:1095B0004B015C0129013A01670178010091FA141D
:1095C0001091FB1420E030E0A9010E94747287FD25
:1095D000A2C020E030E0A901C301B2010E94747270
:1095E00087FD99C020E030E0A901C701B6010E94C3
:1095F000747287FD90C081E00130110509F080E0B0
:1096000080931B158092E0149092E114A092E214D2
:10961000B092E3144092E4145092E5146092E61480
:109620007092E714C092E814D092E914E092EA1420
:10963000F092EB1460910E1570910F15809110153A
:10964000909111150E94267320E030E04AE754E41F
:109650000E947E7269837A838B839C838092EC1450
:109660009092ED14A092EE14B092EF149B01AC0115
:10967000C301B2010E941C742B013C016093F014E1
:109680007093F1148093F2149093F31429813A812A
:109690004B815C81C701B6010E947E726B017C0127
:1096A0006093F4147093F5148093F6149093F71468
:1096B0008091F8149091F914019769F5A50194012E
:1096C00060E070E0CB010E9407726093EC1470932D
:1096D000ED148093EE149093EF14A301920160E0D7
:1096E00070E0CB010E9407726093F0147093F11444
:1096F0008093F2149093F314A701960160E070E058
:10970000CB010E9407726093F4147093F514809358
:10971000F6149093F7140F900F900F900F90DF9125
:10972000CF911F910F91FF90EF90DF90CF90BF905E
:10973000AF909F908F907F906F905F904F90089523
:1097400090E0FC01E259FC4F2491FC01E85DFC4FE4
:109750008491882399F090E0880F991FFC01E25FC3
:10976000FC4FA591B491FC01EC50FD4F8591949173
:109770008FB7F894EC91E22BEC938FBF0895E0EE55
:10978000F9E120E030E041915191452B91F4F9014C
:10979000EE0FFF1FE052F64E9183808323583F4F18
:1097A000FC013583248328EC35E13783268381E06F
:1097B00008952F5F3F4F2931310529F780E0089543
:1097C000CF93DF93CDB7DEB72B970FB6F894DEBFFC
:1097D0000FBECDBFF5E4CF2EF3E1DF2EE091F20412
:1097E000F091F30421E02B878081882339F01B86D8
:1097F0000580F681E02DA080B18002C0A12CB12CA3
:1098000080910F058F5F80930F050FB6F8940F922C
:10981000E0900B05F0900C050F900FBE8091EE04C8
:109820009091EF04E816F90610F080E0B9C0222408
:10983000239479E0372EE6E04E2E512CE091F2048D
:10984000F091F3048081882309F49DC00580F6819E
:10985000E02D6080718006811781480132E0830E1F
:10986000911CD8011A96ED91FC911B9714968D913D
:109870009C91159716962D913C911797DC011596A2
:109880003C932E931497D80116962D913C911797DF
:10989000D90113969C938E9312978181928188159A
:1098A000990511F432832183D8011B961C921E92D4
:1098B0001A978081815080835196ED91FC91529747
:1098C000C8011995F8018685813009F0B7CF8485E4
:1098D0009585860D971D68167906D0F5938382834A
:1098E000118700876091F2047091F3048F3FFFEFBE
:1098F0009F0731F4DB011796ED91FC9118970CC08E
:10990000FB01339642815381DA012D913C918217FC
:10991000930710F0FA01F6CF82819381D801159652
:109920009C938E931497DC0115969C928E921497BB
:10993000D8011796FC93EE931697938282821B961A
:109940007C936E931A97FB0180818F5F808376CF23
:109950008090F4049090F5048114910409F46ECF82
:1099600019827B826A821D830C8380912E13882347
:1099700011F40C94065D80910F05882311F40C946A
:10998000F45C0C94065D8091F0049091F104909346
:10999000F3048093F204F093F104E093F00481E087
:1099A000F092EF04E092EE0481110C941A552B858D
:1099B0002111E0C2EA14FB0408F4E3C20FB6F894E4
:1099C0000F9280910F05815080930F0580910F05B4
:1099D0008111D4C180919813882309F4CFC12091BB
:1099E0004A1330914B1309E011E08091451388230D
:1099F00009F490C0D9011696ED91FC9117978488CF
:109A000095884685578580899189DA0115969C93BA
:109A10008E93149780899189DC0113965C934E9301
:109A20001297AF01445F5F4FD40111966D917C9105
:109A300012976417750721F412969C938E931197D1
:109A4000158A148AD4018C9181508C93AF014E5F9A
:109A50005F4F828493846481758186819781DB0165
:109A600015969C938E93149786819781DC011396AB
:109A70007C936E931297D40111966D917C911297FD
:109A80006417750721F412969C938E931197138691
:109A90001286D4018C9181508C93A68980912C13CD
:109AA0008A1710F4A0932C130A9FD0011124CD0122
:109AB000805A9C4E4C01DC0111968D919C9112971D
:109AC00095838483DC0114966D917C91159777833F
:109AD000668314966D917C911597DB0113965C93C8
:109AE0004E931297DC0115965C934E9314979386D0
:109AF0008286D4018C918F5F8C93A0919613B09144
:109B00009713968956968C91981708F46ECF1093F8
:109B10000E056BCF80910D05811108C080910E0557
:109B2000813009F02BC10E94086C28C199E05524AE
:109B3000539488248A94982C80910D05882371F37E
:109B400080910F05811107C120910B0530910C0503
:109B50002F5F3F4F30930C0520930B0540910B0571
:109B600050910C054115510589F520913113309123
:109B7000321360912F1370913013709332136093EE
:109B800031133093301320932F1380910A058F5F88
:109B900080930A05E0913113F09132138081811195
:109BA00005C0909209058092080510C0E09131131C
:109BB000F09132130580F681E02D0680F781E02DCB
:109BC00022813381309309052093080520910805EF
:109BD0003091090580E04217530708F4ADC0E091C9
:109BE0003113F09132132081211105C090920905A3
:109BF00080920805A1C0E0913113F09132130580E5
:109C0000F681E02D0680F781E02D22813381421715
:109C1000530728F430930905209308058DC0BF0130
:109C20006E5F7F4F62847384048115812681378142
:109C3000D80115963C932E93149726813781D9012C
:109C400013961C930E931297D30111960D911C91AC
:109C500012970617170721F412963C932E9311972B
:109C600013861286D3012C9121502C932488358899
:109C70002114310429F12685378500891189D901FC
:109C800015961C930E93149700891189D801139689
:109C90003C932E931297D10111966D907C90129760
:109CA0009F01245F3F4F6216730621F412961C93A6
:109CB0000E931197158A148AD1012C9121502C935F
:109CC000A68920912C132A1710F4A0932C139A9F85
:109CD000D00111249D01205A3C4E3901D901119621
:109CE0002D913C91129735832483D90114960D91BF
:109CF0001C9115971783068314960D911C91159747
:109D0000D80113967C936E931297D90115967C9384
:109D10006E93149773866286D3012C912F5F2C93D8
:109D2000A0919613B0919713368956962C913217BD
:109D300008F455CF81E053CFE0919613F09197133B
:109D4000E6899E9FF0011124E05AFC4E20812230CA
:109D500040F081E006C080910D058F5F80930D0576
:109D600080E020910E05211101C0811150920E0555
:109D700080910D05815080930D05DECE0F900FBEB2
:109D8000A091F204B091F3041596ED91FC91169711
:109D90008680978094012E5F3F4FF4016285738522
:109DA0004481558186819781FA0195838483F401EA
:109DB00086819781FC0153834283FB01418152815B
:109DC0004217530711F492838183F401138612869C
:109DD000FB01808181508083F4018685813009F008
:109DE000BEC044855585C501840F951F938382832A
:109DF00091868086E816F906E0F1EA18FB08E41679
:109E0000F50608F063C00091F0041091F1048F3F53
:109E1000FFEF9F0731F4D8011796ED91FC91189749
:109E20000CC0F801339642815381DA016D917C9127
:109E30008617970710F0FA01F6CF82819381D4013B
:109E400015969C938E931497DC0115963C932E9354
:109E50001497D4011796FC93EE93169733832283BD
:109E60001B961C930E931A97F80180818F5F808355
:109E700076C08F3FFFEF9F0729F417960D911C9135
:109E800018970EC08D010D5F1F4FF801428153815D
:109E9000FA01608171818617970710F08A01F5CF6A
:109EA000F80182819381F40195838483FC013583D9
:109EB0002483F40117830683F80133832283F4019A
:109EC000B387A2878C918F5F8C9349C00091F40473
:109ED0001091F5040115110509F441C01982BB82E6
:109EE000AA829D828C8280912E13882311F40C9477
:109EF000D35F80910F0581110C94D35F0FB6F89456
:109F00000F92F801928D838D981738F5D8015C96E1
:109F10004C915C9741110C94EF5E8D919C91892B33
:109F200011F00C94145FD8011296ED91FC911397E7
:109F3000309711F00C947E5E80E0D80113961C924D
:109F40001E921297F801928D9F5F928F91899111C5
:109F50000C94175F81110C94CF5F0F900FBED4014A
:109F60005196ED91FC915297C401199556E0852EBA
:109F7000912C72C7E091F004F091F10421E080810E
:109F8000811120E0E091F404F091F5040FB6F8940B
:109F90000F92858D8F3F09F4158E868D8F3F09F4C2
:109FA000168E0F900FBE828D811160C100919613A5
:109FB00010919713A801445F5F4F82899389D8015C
:109FC0001F969C938E931E97DC0114966D917C9145
:109FD0001597D80151967C936E935097DC01149697
:109FE0006D917C911597DB0113965C934E931297BC
:109FF000DC0115965C934E931497CF014196D801DE
:10A0000055969C938E93549781898F5F818B809016
:10A01000961390909713D4011A964D915C911B97CB
:10A0200014966D917C91159716968D919C9117972A
:10A03000DB0115969C938E931497D40116968D91FF
:10A040009C911797DC0113967C936E931297B40141
:10A050006E5F7F4FDA0111960D911C9112970617D2
:10A06000170721F412969C938E931197D4011B9697
:10A070001C921E921A97DA018C9181508C93213098
:10A08000B1F560919613709197139B012E5F3F4F2E
:10A090008091341390913513DB0115969C938E9328
:10A0A0001497DC0114964D915C911597DB0117967E
:10A0B0005C934E931697DC0114964D915C91159725
:10A0C000DA0113963C932E931297DC0115963C937C
:10A0D0002E93149783E393E1DB011B969C938E935D
:10A0E0001A97809133138F5F80933313BFC0809191
:10A0F0000B0590910C058E199F09A80EB91EA09111
:10A100009613B09197131396BC92AE9212978091CA
:10A110000B0590910C05A816B90608F04EC0809169
:10A12000961390919713AC014E5F5F4F20912F13C0
:10A1300030913013DC0112966D917C9113976F3F33
:10A14000BFEF7B0731F4D9011796AD90BC901897FB
:10A1500011C05901B3E0AB0EB11CD50112960D919F
:10A160001C911397D801ED90FC906E157F0510F0AF
:10A170005801F3CFD50112966D917C911397DC01B4
:10A1800015967C936E931497DB0115965C934E9312
:10A190001497DC011796BC92AE921697D5011396D0
:10A1A0005C934E931297DC011B963C932E931A9767
:10A1B000D9018C918F5F8C9359C020919613309167
:10A1C00097137901B2E0EB0EF11C8091311390915D
:10A1D0003213D90112964D915C9113974F3FBFEF07
:10A1E0005B0731F4DC0117968D909C90189711C095
:10A1F0004C01B3E08B0E911CD40112966D917C91B1
:10A200001397DB010D911C914017510710F04B0182
:10A21000F3CFD40112964D915C911397D901159605
:10A220005C934E931497DA011596FC92EE92149774
:10A23000D90117969C928E921697D4011396FC9290
:10A24000EE921297D9011B969C938E931A97DC017C
:10A250002C912F5F2C938091080590910905A816E9
:10A26000B90620F4B0920905A09208050FB6F8943B
:10A270000F9279E061E0868D18160CF0F1C08189AB
:10A28000882309F4EDC0A689B7891696ED90FC9055
:10A290001797A701445F5F4FD70154968D919C910A
:10A2A00055971E960D911C911F9750962D913C919C
:10A2B0005197D80115963C932E931497D701509639
:10A2C0002D913C915197D90113961C930E9312979F
:10A2D000DC0111960D911C9112970417150721F4BA
:10A2E00012963C932E931197D70155961C921E926D
:10A2F0005497DC012C9121502C9380910F058111F2
:10A300006FC0A7014E5F5F4FD7011A968D919C9148
:10A310001B9714960D911C91159716962D913C91B3
:10A320001797D80115963C932E931497D70116963C
:10A330002D913C911797D90113961C930E93129768
:10A34000DC0111960D911C9112970417150721F449
:10A3500012963C932E931197D7011B961C921E9236
:10A360001A97DC012C9121502C93D70156968C9191
:10A3700090912C13981710F480932C13789FC001A0
:10A380001124805A9C4EDC0111962D913C9112971C
:10A39000D70115963C932E931497D90114960D91DD
:10A3A0001C911597D70117961C930E931697D901F8
:10A3B00014960D911C911597D80113965C934E93AA
:10A3C0001297D90115965C934E931497D7011B965B
:10A3D0009C938E931A97DC012C912F5F2C932CC0A9
:10A3E0008091461390914713D7011F969C938E93AB
:10A3F0001E97DC0114962D913C911597D70151962B
:10A400003C932E935097DC0114962D913C91159717
:10A41000D90113965C934E931297DC0115965C93C9
:10A420004E931497D7015596DC92CE925497809113
:10A4300045138F5F809345132091961330919713A6
:10A44000D70156969C91D90156968C91891720F484
:10A4500060930E0560930E05868D8150868F0BCF1D
:10A460008FEF868F0F900FBE0FB6F8940F9279E0A2
:10A4700061E0858D18160CF0F1C08085882309F401
:10A48000EDC0A585B6851696ED90FC901797A701AF
:10A49000445F5F4FD70154968D919C9155971E96BE
:10A4A0000D911C911F9750962D913C915197D80179
:10A4B00015963C932E931497D70150962D913C916D
:10A4C0005197D90113961C930E931297DC011196A4
:10A4D0000D911C9112970417150721F412963C93C5
:10A4E0002E931197D70155961C921E925497DC011A
:10A4F0002C9121502C9380910F0581116FC0A701E1
:10A500004E5F5F4FD7011A968D919C911B971496C1
:10A510000D911C91159716962D913C911797D80186
:10A5200015963C932E931497D70116962D913C9136
:10A530001797D90113961C930E931297DC0111966D
:10A540000D911C9112970417150721F412963C9354
:10A550002E931197D7011B961C921E921A97DC011D
:10A560002C9121502C93D70156968C9190912C13BD
:10A57000981710F480932C13789FC0011124805AEF
:10A580009C4EDC0111962D913C911297D7011596A6
:10A590003C932E931497D90114960D911C91159705
:10A5A000D70117961C930E931697D90114960D9107
:10A5B0001C911597D80113965C934E931297D9016D
:10A5C00015965C934E931497D7011B969C938E938C
:10A5D0001A97DC012C912F5F2C932CC0809146138D
:10A5E00090914713D7011F969C938E931E97DC0181
:10A5F00014962D913C911597D70151963C932E932B
:10A600005097DC0114962D913C911597D901139622
:10A610005C934E931297DC0115965C934E931497BE
:10A62000D7015596DC92CE925497809145138F5F57
:10A63000809345132091961330919713D701569626
:10A640009C91D90156968C91891720F460930E0540
:10A6500060930E05858D8150858F0BCF8FEF858F91
:10A660000F900FBE0FB6F8940F9280910F05815096
:10A6700080930F0580910F05882311F080E0D3C1EE
:10A68000809198138823D1F320914A1330914B1372
:10A6900069E071E080914513882309F490C0D901E5
:10A6A0001696ED91FC911797E488F58846855785B5
:10A6B00080899189DA0115969C938E9314978089ED
:10A6C0009189DC0113965C934E931297AF01445F1E
:10A6D0005F4FD70111960D911C9112970417150722
:10A6E00021F412969C938E931197158A148AD701A0
:10A6F0008C9181508C93AF014E5F5F4FE284F38465
:10A700000481158186819781D80115969C938E933B
:10A71000149786819781DC0113961C930E931297F0
:10A72000D70111960D911C9112970417150721F46A
:10A7300012969C938E93119713861286D7018C9153
:10A7400081508C93A68980912C138A1710F4A093C2
:10A750002C136A9FD0011124CD01805A9C4E7C019C
:10A76000DC0111968D919C91129795838483DC0175
:10A7700014960D911C9115971783068314960D91CD
:10A780001C911597D80113965C934E931297DC0198
:10A7900015965C934E931497F386E286D7018C91BD
:10A7A0008F5F8C93A0919613B091971396895696CC
:10A7B0008C91981708F46ECF70930E056BCF809133
:10A7C0000D05811109C080910E05813009F056CF29
:10A7D0000E94086C81E027C199E0992493940FEFBF
:10A7E0001FEF80910D05882371F380910F05811172
:10A7F00007C120910B0530910C052F5F3F4F30931F
:10A800000C0520930B0540910B0550910C0541154B
:10A81000510589F5209131133091321360912F1336
:10A82000709130137093321360933113309330135F
:10A8300020932F1380910A058F5F80930A05E09182
:10A840003113F09132138081811105C010930905F5
:10A850000093080510C0E0913113F0913213058088
:10A86000F681E02D0680F781E02D2281338130933F
:10A87000090520930805209108053091090580E01D
:10A880004217530708F4ADC0E0913113F091321331
:10A890002081211105C01093090500930805A1C06E
:10A8A000E0913113F09132130580F681E02D06809E
:10A8B000F781E02D228133814217530728F430932A
:10A8C0000905209308058DC0BF016E5F7F4FA284EC
:10A8D000B384E480F58026813781D70115963C93B7
:10A8E0002E93149726813781D9011396FC92EE920C
:10A8F0001297D5011196ED90FC901297E616F70687
:10A9000021F412963C932E93119713861286D5014B
:10A910002C9121502C93648875886114710429F15D
:10A9200026853785E088F188D9011596FC92EE924C
:10A930001497E088F188D70113963C932E931297D1
:10A94000D3011196AD90BC9012979F01245F3F4FA9
:10A95000A216B30621F41296FC92EE921197158A74
:10A96000148AD3012C9121502C93A68920912C1369
:10A970002A1710F4A0932C139A9FD00111249D0143
:10A98000205A3C4E5901D90111962D913C911297B4
:10A9900035832483D9011496ED90FC901597F782A6
:10A9A000E6821496ED90FC901597D70113967C9350
:10A9B0006E931297D90115967C936E931497B38674
:10A9C000A286D5012C912F5F2C93A0919613B09164
:10A9D0009713368956962C91321708F455CF81E09B
:10A9E00053CFE0919613F0919713E6899E9FF00163
:10A9F0001124E05AFC4E2081223040F081E006C054
:10AA000080910D058F5F80930D0580E020910E05EC
:10AA1000211101C0811190920E0580910D05815088
:10AA200080930D05DECE0F900FBE81119FCA0E944C
:10AA3000086C9CCA0FB6F8940F9280910F05815054
:10AA400080930F0580910F058111D3C180919813D8
:10AA5000882309F4CEC120914A1330914B1369E049
:10AA600071E080914513882309F490C0D9011696AE
:10AA7000ED91FC911797E488F58846855785808984
:10AA80009189DA0115969C938E9314978089918908
:10AA9000DC0113965C934E931297AF01445F5F4FB6
:10AAA000D70111960D911C9112970417150721F4E7
:10AAB00012969C938E931197158A148AD7018C91C4
:10AAC00081508C93AF014E5F5F4FE284F384048129
:10AAD000158186819781D80115969C938E93149742
:10AAE00086819781DC0113961C930E931297D701F0
:10AAF00011960D911C9112970417150721F41296C7
:10AB00009C938E93119713861286D7018C91815056
:10AB10008C93A68980912C138A1710F4A0932C1380
:10AB20006A9FD0011124CD01805A9C4E7C01DC012A
:10AB300011968D919C91129795838483DC011496D4
:10AB40000D911C9115971783068314960D911C91F6
:10AB50001597D80113965C934E931297DC011596C6
:10AB60005C934E931497F386E286D7018C918F5FA6
:10AB70008C93A0919613B0919713968956968C91C9
:10AB8000981708F46ECF70930E056BCF80910D056A
:10AB9000811108C080910E05813009F02AC10E9400
:10ABA000086C27C199E0992493940FEF1FEF8091CF
:10ABB0000D05882379F380910F05811107C120913C
:10ABC0000B0530910C052F5F3F4F30930C05209300
:10ABD0000B0540910B0550910C054115510589F568
:10ABE000209131133091321360912F1370913013F3
:10ABF00070933213609331133093301320932F13DB
:10AC000080910A058F5F80930A05E0913113F091DE
:10AC100032138081811105C0109309050093080546
:10AC200010C0E0913113F09132130580F681E02DD0
:10AC30000680F781E02D228133813093090520932E
:10AC40000805209108053091090580E04217530757
:10AC500008F4ADC0E0913113F0913213208121113D
:10AC600005C01093090500930805A1C0E0913113B8
:10AC7000F09132130580F681E02D0680F781E02DFA
:10AC8000228133814217530728F43093090520931A
:10AC900008058DC0BF016E5F7F4FA284B384E4803E
:10ACA000F58026813781D70115963C932E93149712
:10ACB00026813781D9011396FC92EE921297D50125
:10ACC0001196ED90FC901297E616F70621F4129675
:10ACD0003C932E93119713861286D5012C91215007
:10ACE0002C93648875886114710429F12685378551
:10ACF000E088F188D9011596FC92EE921497E088CD
:10AD0000F188D70113963C932E931297D301119695
:10AD1000AD90BC9012979F01245F3F4FA216B306DF
:10AD200021F41296FC92EE921197158A148AD3019F
:10AD30002C9121502C93A68920912C132A1710F4C2
:10AD4000A0932C139A9FD00111249D01205A3C4EB0
:10AD50005901D90111962D913C9112973583248385
:10AD6000D9011496ED90FC901597F782E68214961F
:10AD7000ED90FC901597D70113967C936E931297E4
:10AD8000D90115967C936E931497B386A286D5014C
:10AD90002C912F5F2C93A0919613B0919713368925
:10ADA00056962C91321708F455CF81E053CFE0919D
:10ADB0009613F0919713E6899E9FF0011124E05AB3
:10ADC000FC4E2081223040F081E006C080910D05CC
:10ADD0008F5F80930D0580E020910E05211101C049
:10ADE000811190920E0580910D05815080930D0583
:10ADF000DECE0F900FBEBAC8EA80FB80F801248532
:10AE00003585C9018E0D9F1D93838283118700872D
:10AE1000A816B90608F44AC2AE18BF08A216B306AF
:10AE200008F42BC2D8015196ED91FC915297C801BC
:10AE30001995F8018685813079F4D8011C968D9199
:10AE40009C911D978E0D9F1DE090F404F090F504E9
:10AE5000E114F10409F0FAC489E0382E2224239485
:10AE60000091F4041091F5040FB6F8940F92F801D4
:10AE7000828D882309F4B4C586819781448D44234B
:10AE8000B9F050E0840F951F978386832281338128
:10AE90008217930720F08081918197838683D80160
:10AEA00016966D917C911797CE0101960E94C875F8
:10AEB000F801828D8150828F80819181892BB1F43C
:10AEC0008091961390919713892B39F0E091961306
:10AED000F091971384A18F5F84A380919613909132
:10AEE0009713D80113969C938E931297F80180853F
:10AEF000882309F4B7C00584F685E02D0680F78124
:10AF0000E02D9F01245F3F4F4489558986859785B1
:10AF100060897189DC0115967C936E931497608922
:10AF20007189DB0113969C938E931297DA01119627
:10AF30008D919C9112978217930721F412967C931E
:10AF40006E931197158A148ADA018C9181508C9333
:10AF500080910F05811157C09F012E5F3F4F4285A1
:10AF600053858481958166817781DC0115967C9378
:10AF70006E93149766817781DB0113969C938E9371
:10AF80001297DA0111968D919C911297821793076F
:10AF900021F412967C936E93119713861286DA0130
:10AFA0008C9181508C93A68980912C138A1710F470
:10AFB000A0932C133A9ED0011124BD01605A7C4EFF
:10AFC000DB0111968D919C91129795838483DC010E
:10AFD00014964D915C9115975783468314964D9125
:10AFE0005C911597DA0113963C932E931297DC012E
:10AFF00015963C932E93149773876287DB018C918F
:10B000008F5F8C9322C0409146135091471357870E
:10B010004687DA0114968D919C911597918B808BC0
:10B0200014968D919C911597DC0113963C932E9369
:10B030001297DA0115963C932E931497D58AC48AF9
:10B04000809145138F5F80934513A0919613B09123
:10B050009713968956968C91891720F420920E05A5
:10B060000E94086C0F900FBE898187FDF9CE0C817C
:10B070001D81D8011A96ED91FC911B97309741F1F3
:10B0800014968D919C91159716962D913C9117973A
:10B09000DC0115963C932E931497D80116964D918A
:10B0A0005C911797DA0113969C938E9312972181E6
:10B0B0003281C80102962817390711F4528341835F
:10B0C000D8011B961C921E921A9780818150808312
:10B0D0000FB6F8940F92A0900B05B0900C050F904E
:10B0E0000FBE8091EE049091EF04A816B90608F007
:10B0F000AFC0E091F204F091F3048081882309F459
:10B100009BC00580F681E02D40805180E680F7806D
:10B110003701B2E06B0E711CD7011A96ED91FC91CC
:10B120001B9714964D915C91159716968D919C9155
:10B130001797DA0115969C938E931497D70116965C
:10B140002D913C911797D90113965C934E931297CA
:10B15000818192818615970511F432832183D7016D
:10B160001B961C921E921A97808181508083519663
:10B17000ED91FC915297C7011995F70186858130B1
:10B1800009F0B7CF84859585840D951D481659061D
:10B19000D0F593838283F186E0866091F20470910A
:10B1A000F3048F3FFFEF9F0731F4DB011796ED911A
:10B1B000FC9118970CC0FB01339642815381DA0150
:10B1C0002D913C918217930710F0FA01F6CF8281FE
:10B1D0009381D70115969C938E931497DC01159655
:10B1E0007C926E921497D7011796FC93EE93169764
:10B1F000738262821B967C936E931A97FB01808107
:10B200008F5F808376CF6090F4047090F5046114B2
:10B21000710409F46ECF1E8258864F82FA86E98641
:10B2200080912E13882309F4D3C680910F058823BB
:10B2300011F40C945D61CCC68091F0049091F104FE
:10B240009093F3048093F204F093F104E093F004FC
:10B25000B092EF04A092EE048981082E000C990BA5
:10B26000AA0BBB0B8A30910508F0FACDFC018827A8
:10B27000EE58FF4F8F4F0C94E47198012E5F3F4FB3
:10B28000E090F004F090F1048F3FFFEF9F0709F486
:10B2900061C0F701339642815381DA016D917C914F
:10B2A0008617970708F468C0FA01F5CFAE14BF04FB
:10B2B00020F48E159F0508F0B5CD98012E5F3F4F05
:10B2C000E090F204F090F3048F3FFFEF9F0709F442
:10B2D00041C0F701339642815381DA016D917C912F
:10B2E0008617970708F448C0FA01F5CF2A813B81F9
:10B2F000F80135872487C501820F931F93838283CA
:10B3000011870087A816B906D0F0232B09F4A4CD25
:10B3100098012E5F3F4FE090F004F090F1048F3FD2
:10B32000FFEF9F07B9F0F701339642815381DA01AD
:10B330006D917C9186179707F8F0FA01F6CF980186
:10B340002E5F3F4FE090F204F090F3048F3FFFEF49
:10B350009F0731F4D7011796ED91FC9118970CC017
:10B36000F701339642815381DA016D917C91861702
:10B37000970710F0FA01F6CF82819381D8011596D4
:10B380009C938E931497DC0115963C932E931497FF
:10B39000D8011796FC93EE931697338322831B965E
:10B3A000FC92EE921A97F70180818F5F808354CDD3
:10B3B0000115110509F450CD08501109D801129654
:10B3C0002D913C9113978091100590911105AC013E
:10B3D00042235323452B09F43FCD4D915C91452BDE
:10B3E00009F03ACDF80180959095282339233383CD
:10B3F000228380910F058F5F80930F058091120546
:10B4000090911305820F931F90931305809312055B
:10B4100046E1E42E45E0F42ED7018D919C911197E1
:10B420008017910710F47C01F7CF12964D915C9133
:10B430001397B701640F751F0617170739F4240F08
:10B44000351F13963C932E931297F7012281338177
:10B45000AF01420F531F4817590791F440912A1327
:10B4600050912B138417950759F0DC0112964D91DA
:10B470005C911397240F351F338322838D919C9108
:10B4800091838083EE16FF0619F0D701ED93FC93AC
:10B490000FB6F8940F9280910F05815080930F059D
:10B4A00080910F05811199C280919813882309F426
:10B4B00094C220914A1330914B1369E071E080915E
:10B4C0004513882309F490C0D9011696ED91FC919B
:10B4D0001797E488F5884685578580899189DA0130
:10B4E00015969C938E93149780899189DC0113960D
:10B4F0005C934E931297AF01445F5F4FD701119653
:10B500000D911C9112970417150721F412969C9324
:10B510008E931197158A148AD7018C9181508C9340
:10B52000AF014E5F5F4FE284F38404811581868111
:10B530009781D80115969C938E9314978681978155
:10B54000DC0113961C930E931297D70111960D915F
:10B550001C9112970417150721F412969C938E9351
:10B56000119713861286D7018C9181508C93A689EE
:10B5700080912C138A1710F4A0932C136A9FD0018A
:10B580001124CD01805A9C4E7C01DC0111968D91D5
:10B590009C91129795838483DC0114960D911C91E4
:10B5A00015971783068314960D911C911597D80152
:10B5B00013965C934E931297DC0115965C934E9311
:10B5C0001497F386E286D7018C918F5F8C93A091BC
:10B5D0009613B0919713968956968C91981708F404
:10B5E0006ECF70930E056BCF80910D05811106C053
:10B5F00080910E05813009F0F0C1EDC199E0A92ECE
:10B60000772473946FEF7FEF80910D05882381F38A
:10B6100080910F05811107C180910B0590910C0558
:10B62000019690930C0580930B0580910B059091EA
:10B630000C05009789F52091311330913213409118
:10B640002F13509130135093321340933113309392
:10B65000301320932F1320910A052F5F20930A05A2
:10B66000E0913113F09132132081211105C07093C4
:10B6700009056093080510C0E0913113F091321371
:10B680000580F681E02D0680F781E02D228133814F
:10B69000309309052093080520910805309109058C
:10B6A000B12C8217930708F4AEC0E0913113F091EA
:10B6B00032132081211105C070930905609308059C
:10B6C000A2C0E0913113F09132130580F681E02D94
:10B6D0000680F781E02D228133818217930728F4B9
:10B6E00030930905209308058EC09F012E5F3F4FC0
:10B6F000E284F3840481158146815781D80115962F
:10B700005C934E93149746815781DA0113961C93EC
:10B710000E931297D70111960D911C911297021753
:10B72000130721F412965C934E9311971386128699
:10B73000D7014C9141504C93448855884114510491
:10B7400029F14685578500891189DA0115961C93E0
:10B750000E93149700891189D80113965C934E9328
:10B760001297D2011196ED90FC901297AF01445FB1
:10B770005F4FE416F50621F412961C930E93119771
:10B78000158A148AD2014C9141504C93A68940915C
:10B790002C134A1710F4A0932C13AA9ED001112445
:10B7A000AD01405A5C4E7A01DA0111964D915C91DF
:10B7B000129755834483DA0114960D911C911597C5
:10B7C0001783068314960D911C911597D801139633
:10B7D0003C932E931297DA0115963C932E9314976F
:10B7E000F386E286D7012C912F5F2C93A0919613BC
:10B7F000B0919713368956962C91321708F455CF8D
:10B80000BB24B39452CFE0919613F0919713E6893D
:10B81000AE9EF0011124E05AFC4E8081823048F047
:10B82000BB24B39406C080910D058F5F80930D05F6
:10B83000B12C80910E05811101C0B11070920E05DE
:10B8400080910D05815080930D05DECE1E82988774
:10B850008F831A87098780912E13811142C50FB6F5
:10B86000F8940F92D7015A969C915A975B968C91B7
:10B87000981708F0B2C0F701448D4111AAC5808124
:10B880009181892B09F0CAC50280F381E02D3097A0
:10B8900009F032C580E0D70113961C921E921297D0
:10B8A000F701928D9F5F928F9189992309F4DBC5EF
:10B8B0000688F789E02D0680F781E02DCF010C96F0
:10B8C000648975894685578520893189DA011596FD
:10B8D0003C932E93149720893189D90113965C9358
:10B8E0004E931297DB0111964D915C911297481778
:10B8F000590721F412963C932E931197158A148AB6
:10B90000DB012C9121502C9320910F05211188C52A
:10B910009F012E5F3F4F62857385448155818681EB
:10B920009781DA0115969C938E931497868197815F
:10B93000DC0113965C934E931297DB0111964D91A7
:10B940005C9112974217530721F412969C938E93A1
:10B95000119713861286DB018C9181508C93A689F6
:10B9600080912C138A1710F4A0932C1349E0A49F04
:10B97000D0011124BD01605A7C4EDB0111968D91DE
:10B980009C91129795838483DC0114964D915C9170
:10B9900015975783468314964D915C911597DA015C
:10B9A00013963C932E931297DC0115963C932E939D
:10B9B000149773876287DB018C918F5F8C93A091C2
:10B9C0009613B0919713968956968C91891728F4FF
:10B9D00081E080930E050E94086C0F900FBE3CCA58
:10B9E0000F900FBE0C94EE4B0FB6F8940F92F4012B
:10B9F000928D838D981708F07DC1D4015C964C918F
:10BA00005C97411191C08D919C9112C00FB6F89432
:10BA10000F92D4015A969C915A975B968C919817E5
:10BA200008F068C1F401448D41117EC0808191818C
:10BA3000892B09F09EC0D4011296ED91FC911397C9
:10BA4000309711F480E06AC084A1815084A32689D4
:10BA500093A12917B9F38111F5CF9F012E5F3F4FB5
:10BA6000628573854481558186819781DA011596B7
:10BA70009C938E93149786819781DC0113965C9337
:10BA80004E931297DB0111964D915C9112974217DC
:10BA9000530721F412969C938E9311971386128666
:10BAA000DB018C9181508C9363A1668B862F90E093
:10BAB000A201481B590B5587448740912C13461708
:10BAC00010F460932C13389ED001399EB00D1124D0
:10BAD000BD01605A7C4EDB0111968D919C911297AD
:10BAE00095838483DC0114964D915C91159757835F
:10BAF000468314964D915C911597DA0113963C9309
:10BB00002E931297DC0115963C932E93149773870E
:10BB10006287FB0180818F5F808381E0D40113966F
:10BB20001C921E92129726C050E0BE016F5F7F4F9D
:10BB3000F401848195810E94C875D4015C962C9192
:10BB40005C9714968D919C911597820F911D159677
:10BB50009C938E93149712962D913C911397821774
:10BB6000930738F08D919C91119715969C938E9325
:10BB7000149780E0F401928D9F5F928F91899923B1
:10BB800009F4B5C00688F789E02D0680F781E02D1D
:10BB9000CF010C966489758946855785208931893E
:10BBA000DA0115963C932E93149720893189D90197
:10BBB00013965C934E931297DB0111964D915C9115
:10BBC00012974817590721F412963C932E93119718
:10BBD000158A148ADB012C9121502C9320910F059A
:10BBE000211157C09F012E5F3F4F628573854481AD
:10BBF000558186819781DA0115969C938E931497CF
:10BC000086819781DC0113965C934E931297DB013A
:10BC100011964D915C9112974217530721F4129699
:10BC20009C938E93119713861286DB018C91815021
:10BC30008C93A68980912C138A1710F4A0932C134F
:10BC40003A9ED0011124BD01605A7C4EDB01119651
:10BC50008D919C91129795838483DC0114964D916C
:10BC60005C9115975783468314964D915C91159777
:10BC7000DA0113963C932E931297DC0115963C93B0
:10BC80002E93149773876287DB018C918F5F8C935F
:10BC900022C0409146135091471357874687DA01D7
:10BCA00014962D913C911597318B208B14962D91E4
:10BCB0003C911597D90113969C938E931297DA01B4
:10BCC00015969C938E931497D58AC48A80914513B8
:10BCD0008F5F80934513A0919613B0919713968927
:10BCE00056968C91891730F420920E0501C081116F
:10BCF0000E94086C0F900FBE0C941E4C84A18150C2
:10BD000084A3268993A1291711F40C949C4F8111C7
:10BD10000C949C4F9F012E5F3F4F62857385448139
:10BD2000558186819781DA0115969C938E9314979D
:10BD300086819781DC0113965C934E931297DB0109
:10BD400011964D915C9112974217530721F4129668
:10BD50009C938E93119713861286DB018C918150F0
:10BD60008C9383A1868B682F70E046E050E0461BE1
:10BD7000570B5587448790912C13981710F4809394
:10BD80002C1389E0869FD001879FB00D1124BD013F
:10BD9000605A7C4EDB0111968D919C911297958390
:10BDA0008483DC0114964D915C91159757834683EB
:10BDB00014964D915C911597DA0113963C932E934E
:10BDC0001297DC0115963C932E9314977387628724
:10BDD000FB0180818F5F808381E00C949D4F50E058
:10BDE000BE016F5F7F4FF801848195810E94C87505
:10BDF000D8015C962C915C9714968D919C91159727
:10BE0000820F911D15969C938E93149712962D91E7
:10BE10003C9113978217930738F08D919C9111975D
:10BE200015969C938E93149780E00C94A24F0688ED
:10BE3000F789E02D0680F781E02DCF010C9664890B
:10BE400075894685578520893189DA0115963C9395
:10BE50002E93149720893189D90113965C934E93C0
:10BE60001297DB0111964D915C9112974817590773
:10BE700021F412963C932E931197158A148ADB01B4
:10BE80002C9121502C9320910F05211158C09F0116
:10BE90002E5F3F4F628573854481558186819781EE
:10BEA000DA0115969C938E93149786819781DC0115
:10BEB00013965C934E931297DB0111964D915C9112
:10BEC00012974217530721F412969C938E93119761
:10BED00013861286DB018C9181508C93A689809108
:10BEE0002C138A1710F4A0932C1349E0A49FD001BF
:10BEF0001124BD01605A7C4EDB0111968D919C91FD
:10BF0000129795838483DC0114964D915C9115976B
:10BF10005783468314964D915C911597DA011396D9
:10BF20003C932E931297DC0115963C932E93149715
:10BF300073876287DB018C918F5F8C9322C0409165
:10BF400046135091471357874687DA0114962D916F
:10BF50003C911597318B208B14962D913C91159720
:10BF6000D90113969C938E931297DA0115969C93A0
:10BF70008E931497D58AC48A809145138F5F8093DE
:10BF80004513A0919613B0919713968956968C916C
:10BF9000891710F00C94AD4F81E080930E050E943C
:10BFA000086C0C94AD4F0FB6F8940F92D8015A96C6
:10BFB0009C915A975B968C91981710F00C94AD4F0A
:10BFC000F801448D41110BCF808191810C948F4FEA
:10BFD0000FB6F8940F92F301928D838D981708F0A5
:10BFE00068C1F301448D41117EC080819181892B0C
:10BFF00009F09EC0D3011296ED91FC9113973097F2
:10C0000011F480E06AC084A1815084A3268993A1A1
:10C010002917B9F38111F5CFAF014E5F5F4F6285EC
:10C0200073858481958126813781DC0115963C9347
:10C030002E93149726813781D90113969C938E9362
:10C040001297DB0111968D919C9112978417950799
:10C0500021F412963C932E93119713861286DB01DE
:10C060008C9181508C9363A1668B862F90E0940114
:10C07000281B390B3587248720912C13261710F4A1
:10C0800060932C13389ED001399EB00D1124BD0150
:10C09000605A7C4EDB0111968D919C91129795838D
:10C0A0008483DC0114962D913C9115973783268368
:10C0B00014962D913C911597D90113965C934E934C
:10C0C0001297DC0115965C934E93149773876287E1
:10C0D000FB0180818F5F808381E0D30113961C92E6
:10C0E0001E92129726C050E0BE016A5F7F4FF30197
:10C0F000848195810E94C875D3015C962C915C97D0
:10C1000014968D919C911597820F911D15969C9375
:10C110008E93149712962D913C9113978217930743
:10C1200038F08D919C91119715969C938E9314974E
:10C1300080E0F301928D9F5F928F9189992309F49A
:10C14000B5C00688F789E02D0680F781E02DCF0184
:10C150000C96648975894685578520893189DA016D
:10C1600015963C932E93149720893189D901139603
:10C170005C934E931297DB0111964D915C9112974F
:10C180004817590721F412963C932E931197158A5C
:10C19000148ADB012C9121502C9320910F05211141
:10C1A00057C09F012E5F3F4F628573854481558143
:10C1B00086819781DA0115969C938E9314978681D8
:10C1C0009781DC0113965C934E931297DB011196D5
:10C1D0004D915C9112974217530721F412969C934C
:10C1E0008E93119713861286DB018C9181508C936C
:10C1F000A68980912C138A1710F4A0932C133A9ED1
:10C20000D0011124BD01605A7C4EDB0111968D9145
:10C210009C91129795838483DC0114964D915C91D7
:10C2200015975783468314964D915C911597DA01C3
:10C2300013963C932E931297DC0115963C932E9304
:10C24000149773876287DB018C918F5F8C9322C078
:10C25000409146135091471357874687DA01149649
:10C260002D913C911597318B208B14962D913C91FB
:10C270001597D90113969C938E931297DA01159610
:10C280009C938E931497D58AC48A809145138F5FAF
:10C2900080934513A0919613B09197139689569663
:10C2A0008C91891730F420920E0501C081110E94F3
:10C2B000086C0F900FBE0C9479580FB6F8940F923B
:10C2C000D3015A969C915A975B968C91981788F750
:10C2D000D3015C964C915C97411105CF8D919C9157
:10C2E00086CE80910F058111BACA0FB6F8940F92CD
:10C2F000F701928D838DBCCA84A1815084A32689C5
:10C3000093A1291709F4C6CA8111C4CA9F012E5FDF
:10C310003F4F628573854481558186819781DA011B
:10C3200015969C938E93149786819781DC011396C2
:10C330005C934E931297DB0111964D915C9112978D
:10C340004217530721F412969C938E9311971386EC
:10C350001286DB018C9181508C9383A1868B482FB0
:10C3600050E0B401641B750B7587648790912C13A2
:10C37000981710F480932C1389E0849FD001859F37
:10C38000B00D1124BD01605A7C4EDB0111968D91D8
:10C390009C91129795838483DC0114964D915C9156
:10C3A00015975783468314964D915C911597DA0142
:10C3B00013963C932E931297DC0115963C932E9383
:10C3C000149773876287FB0180818F5F808381E090
:10C3D00062CA50E0BE016A5F7F4FF7018481958198
:10C3E0000E94C875D7015C962C915C9714968D912C
:10C3F0009C911597820F911D15969C938E9314977F
:10C4000012962D913C9113978217930738F08D91D6
:10C410009C91119715969C938E93149780E040CA37
:10C42000409146135091471357874687DA01149677
:10C430002D913C911597318B208B14962D913C9129
:10C440001597D90113969C938E931297DA0115963E
:10C450009C938E931497D58AC48A809145138F5FDD
:10C4600080934513ACCA882309F4B7CAB4CA2F9283
:10C470003F924F925F926F927F928F929F92AF9274
:10C48000BF92CF92DF92EF92FF920F931F93CF93C1
:10C49000DF9300D01F921F92CDB7DEB7382E292E22
:10C4A000562E472E3A01298380910F058F5F809386
:10C4B0000F0580912A1390912B13892BE1F5AAE1A6
:10C4C000B5E0CD0187709927892B41F0A1E2B5E055
:10C4D000A87FEAE2F3E1EA1BFB0B02C0E0E1FEE029
:10C4E000B0931705A0931605109219051092180520
:10C4F000EA0FFB1F3897E87FF0932B13E0932A1382
:10C500001382128211821082CF018A1B9B0B139619
:10C510009C938E931297ED93FC93909315058093C3
:10C520001405909313058093120580E090E8909392
:10C530001105809310056091100570911105C301DC
:10C5400086239723892B09F0AEC06114710409F486
:10C55000AAC0A301485F5F4FCA0187709927892B42
:10C5600019F0487F485F5F4F4115510509F49BC0A2
:10C5700020911205309113052417350708F493C054
:10C58000A0901605B0901705A6E1B5E0F501C280B0
:10C59000D380C416D50640F0E0902A13F0902B13F8
:10C5A000AE14BF0449F47FC0F501808191810097EA
:10C5B00099F3D5015C01EACF0D911C911197085FA9
:10C5C0001F4FF501808191818D939C93C601841B3F
:10C5D000950B8131910508F448C0E40FF51F938352
:10C5E0008283D50113965C934E93129746E1842E75
:10C5F00045E0942ED4018D919C9111978E179F0741
:10C6000010F44C01F7CF12964D915C911397640191
:10C61000C40ED51ECE16DF0651F40280F381E02D44
:10C620004E0F5F1F13965C934E931297F401428155
:10C6300053816F01C40ED51EC816D90671F48E152C
:10C640009F0559F0DC011296ED90FC9013974E0D6A
:10C650005F1D538342838D919C91918380838E16BD
:10C660009F0619F0D401ED93FC93F501828193812B
:10C67000281B390B309313052093120540911405A4
:10C68000509115052417350720F430931505209394
:10C690001405682B792BD50113967C936E93129712
:10C6A0001D921C9202C000E010E00FB6F8940F92A9
:10C6B00080910F05815080930F0580910F058111A6
:10C6C000D0C180919813882309F4CBC120914A13DB
:10C6D00030914B1369E071E080914513882309F490
:10C6E0008EC0D9011696ED91FC911797E488F588D4
:10C6F0008685978540895189DC0115965C934E9318
:10C700001497C088D188D60113969C938E93129764
:10C71000CF010C96D70111964D915C911297481755
:10C72000590721F41296DC92CE921197158A148A39
:10C73000D7018C9181508C93CF010296E284F384CF
:10C7400044815581C680D780DA011596DC92CE925D
:10C750001497C680D780D60113965C934E93129798
:10C76000D70111964D915C9112974817590721F402
:10C770001296DC92CE92119713861286D7014C91B5
:10C7800041504C93A68940912C134A1710F4A09362
:10C790002C136A9FD0011124AD01405A5C4E6A01EE
:10C7A000DA011196ED90FC901297F582E482D701A0
:10C7B00014964D915C9115975783468314964D912D
:10C7C0005C911597DA0113969C938E931297D7017B
:10C7D00015969C938E931497D386C286D6018C911E
:10C7E0008F5F8C93A0919613B0919713968956966C
:10C7F0008C91981708F470CF70930E056DCF8091CF
:10C800000D05811108C080910E05813009F029C104
:10C810000E94086C26C199E0BB24B3946FEF7FEFB0
:10C8200080910D05882379F380910F05811106C150
:10C8300020910B0530910C052F5F3F4F30930C0575
:10C8400020930B0520910B0530910C052115310526
:10C8500089F54091311350913213E0912F13F091EB
:10C860003013F0933213E09331135093301340930D
:10C870002F1380910A058F5F80930A05E091311391
:10C88000F09132138081811105C070930905609386
:10C89000080510C0E0913113F09132130580F68144
:10C8A000E02D0680F781E02D4281538150930905E8
:10C8B00040930805409108055091090580E0241730
:10C8C000350708F4ACC0E0913113F0913213408188
:10C8D000411105C07093090560930805A0C0E0915F
:10C8E0003113F09132130580F681E02D0680F78137
:10C8F000E02D428153812417350728F45093090510
:10C90000409308058CC0AF014E5F5F4FC284D38453
:10C91000E480F58086809780D70115969C928E9250
:10C92000149786809780D4011396FC92EE9212970A
:10C93000D6011196ED90FC901297E416F50621F4BD
:10C9400012969C928E92119713861286D601FC90B5
:10C95000FA94FC92848895888114910429F1C68404
:10C96000D784E088F188D6011596FC92EE92149750
:10C97000E088F188D7011396DC92CE921297D40109
:10C980001196CD90DC901297DF011C96CA16DB063B
:10C9900029F4D4011296FC92EE921197158A148A0A
:10C9A000D401FC90FA94FC92A689B0912C13BA178A
:10C9B00010F4A0932C139A9F40011124D401A05A83
:10C9C000BC4E4D011196CD90DC901297D582C48259
:10C9D000D6011496ED90FC901597F782E682149696
:10C9E000ED90FC901597D70113965C934E93129798
:10C9F000D60115965C934E93149793868286D40144
:10CA00004C914F5F4C93A0919613B0919713568918
:10CA100056964C91541708F456CF81E054CFE091CC
:10CA20009613F0919713E6899E9FF0011124E05A26
:10CA3000FC4E2081223040F081E006C080910D053F
:10CA40008F5F80930D0580E020910E05211101C0BC
:10CA50008111B0920E0580910D05815080930D05D6
:10CA6000DFCE0F900FBE0115110569F4279A2F9A9A
:10CA7000BFEFE0E7F2E0B150E040F040E1F700C086
:10CA800000001F9AF5CF80910F058F5F80930F05EF
:10CA900080912A1390912B13892BE1F5AAE1B5E03F
:10CAA000CD0187709927892B41F0A1E2B5E0A87FDD
:10CAB000EAE2F3E1EA1BFB0B02C0E0E1FEE0B09327
:10CAC0001705A09316051092190510921805EA0F84
:10CAD000FB1F3897E87FF0932B13E0932A13138200
:10CAE000128211821082CF018A1B9B0B13969C939A
:10CAF0008E931297ED93FC939093150580931405F4
:10CB0000909313058093120580E090E890931105AF
:10CB1000809310058090100590901105C4018B72D0
:10CB20009927892B09F0AAC0A0901205B09013058F
:10CB300028E3A216B10408F4A1C0E0911605F09113
:10CB40001705A6E1B5E0E280F38038E3E316F104CF
:10CB500040F0C0902A13D0902B13EC15FD0541F442
:10CB60008DC0808191810097A1F3DF01FC01EBCFA3
:10CB70008D919C9111979C01285F3F4F3D832C83A1
:10CB8000808191818D939C9338E3E31AF10841E110
:10CB9000E416F10408F458C0BF01685C7F4F7B8342
:10CBA0006A83F3AEE2AE88E390E09383828386E10A
:10CBB00095E0DC012D913C9111974A815B8124170E
:10CBC000350710F4C901F5CF12964D915C9113977A
:10CBD000BC01640F751FAA81BB81A617B70749F472
:10CBE0004E0D5F1DDC0113965C934E9312979B8351
:10CBF0008A83AA81BB8112964D915C911397BD01E6
:10CC0000640F751F6217730799F42C153D0581F0A9
:10CC1000D90112966D917C911397460F571FAA81E7
:10CC2000BB8113965C934E931297D9012D913C9141
:10CC3000AA81BB812D933C932A813B818217930764
:10CC400019F0DC012D933C9382819381A81AB90AD3
:10CC5000B0921305A092120520911405309115058C
:10CC6000A216B30620F4B0921505A09214058829E7
:10CC70009929938382831182108202C01D821C82B3
:10CC80000FB6F8940F9280910F05815080930F0595
:10CC900080910F058111D9C180919813882309F4DF
:10CCA000D4C140914A1350914B1399E0F92EEE24D0
:10CCB000E39480914513882309F490C0DA01169615
:10CCC000ED91FC911797C488D58826853785808992
:10CCD0009189D90115969C938E9314978089918997
:10CCE000DC0113963C932E9312979F01245F3F4FD4
:10CCF000D60111966D917C9112976217730721F4FA
:10CD000012969C938E931197158A148AD6018C9152
:10CD100081508C939F012E5F3F4FC284D3846481E6
:10CD2000758186819781DB0115969C938E9314976C
:10CD300086819781DC0113967C936E931297D601BE
:10CD400011966D917C9112976217730721F41296D8
:10CD50009C938E93119713861286D6018C918150E5
:10CD60008C93A68980912C138A1710F4A0932C130E
:10CD7000FA9ED0011124BD01605A7C4E6B01DB018B
:10CD800011968D919C91129795838483DC01149662
:10CD90006D917C9115977783668314966D917C9144
:10CDA0001597DB0113963C932E931297DC01159691
:10CDB0003C932E931497D386C286D6018C918F5FB5
:10CDC0008C93A0919613B0919713968956968C9157
:10CDD000981708F46ECFE0920E056BCF80910D0589
:10CDE000811108C080910E05813009F02EC10E948A
:10CDF000086C2BC189E0A82E992493946FEF7FEFE4
:10CE000080910D05882371F380910F0581110AC16E
:10CE100080910B0590910C05019690930C058093E1
:10CE20000B0580910B0590910C05009789F52091D9
:10CE300031133091321340912F135091301350938E
:10CE40003213409331133093301320932F132091DA
:10CE50000A052F5F20930A05E0913113F0913213F8
:10CE60002081211105C0709309056093080510C049
:10CE7000E0913113F09132130580F681E02D0680A8
:10CE8000F781E02D22813381309309052093080535
:10CE90002091080530910905B12C8217930708F4F9
:10CEA000B1C0E0913113F09132132081211105C0FE
:10CEB0007093090560930805A5C0E0913113F091C6
:10CEC00032130580F681E02D0680F781E02D228166
:10CED00033818217930728F43093090520930805BE
:10CEE00091C09F012E5F3F4FC284D384E480F580C0
:10CEF00046815781D70115965C934E9314974681CE
:10CF00005781DA011396FC92EE921297D601119690
:10CF1000ED90FC901297E216F30621F412965C93C2
:10CF20004E93119713861286D6014C9141504C9323
:10CF3000448955895B834A83452B39F1468557855A
:10CF4000E088F188DA011596FC92EE921497E08859
:10CF5000F188D70113965C934E931297AA81BB81F7
:10CF60001196CD90DC901297AF01445F5F4FC416CD
:10CF7000D50621F41296FC92EE921197158A148A26
:10CF8000AA81BB814C9141504C93A68940912C13AE
:10CF90004A1710F4A0932C13AA9ED0011124AD01BE
:10CFA000405A5C4E6A01DA0111964D915C911297DC
:10CFB00055834483DA011496ED90FC901597F7821F
:10CFC000E6821496ED90FC901597D70113963C934A
:10CFD0002E931297DA0115963C932E931497D386CD
:10CFE000C286D6012C912F5F2C93A0919613B091FD
:10CFF0009713368956962C91321708F452CFBB24DA
:10D00000B3944FCFE0919613F0919713E689AE9EBB
:10D01000F0011124E05AFC4E8081823048F0BB249C
:10D02000B39406C080910D058F5F80930D05B12CE0
:10D0300080910E05811101C0B11090920E05809172
:10D040000D05815080930D05DBCE0F900FBE2C8116
:10D050003D81232B69F4279A2F9A3FEF40E752E056
:10D06000315040405040E1F700C000001F9AF5CF1A
:10D07000AC81BD8158961C930E935797A30165EA26
:10D0800070E0C8010E94D175B1E06B1A7108AC81E3
:10D09000BD815796ED91FC915897E60DF71DE87FFD
:10D0A000CD014996052D142D9801285F3F4FA80109
:10D0B000D8016D918D01DC016D93CD01DA014C91A8
:10D0C000442319F00217130791F7AC81BD819096A4
:10D0D0001C922981263008F025E0AC81BD8156964E
:10D0E0002C93569793962C93939794961C9294977F
:10D0F000CD0102961B961C921E921A9755961C9271
:10D100001E9254970A2E1B2E19961C920E921124D1
:10D11000189746E050E0BA01621B71091D967C9396
:10D120006E931C970A2E1B2E53961C920E9211245E
:10D13000529795961D921D921D921C9298979A96C1
:10D140001C921E92999731E13083DF01119722E200
:10D150002C93119743E34C9311973C9211972C9287
:10D1600011971C9211971C92119740E84C931197BC
:10D170001C9211971C9211971C92119742E04C93AC
:10D18000119743E04C93119744E04C93119745E07D
:10D190004C93119746E04C93119747E04C931197AD
:10D1A00048E04C93119749E04C93119740E14C9320
:10D1B00011973C93119732E13C93119733E13C93E3
:10D1C000119734E13C93119735E13C93119736E187
:10D1D0003C93119737E13C93119738E13C931197B9
:10D1E00039E13C93119730E23C93119731E23C9343
:10D1F00011972C93119723E22C9311971C9211975E
:10D200001C92119726E22C93119727E22C931197E9
:10D2100028E22C93119729E22C93119720E32C9369
:10D22000119721E32C93B997AC81BD811196FC93A2
:10D23000EE930FB6F8940F92209198132F5F2093DE
:10D2400098132091961330919713232B09F091C0D6
:10D25000B0939713A093961320919813213009F05F
:10D260009AC0E0E6F3E16FEF7FEFAF014D5F5F4FF4
:10D27000528341832FEF3FEF74836383568345834B
:10D280005087478310823996B3E1E639FB0769F787
:10D290004AE553E1509359134093581330935B136D
:10D2A00020935A1350935D1340935C1350935F1374
:10D2B00040935E131092571341E553E1509350137E
:10D2C00040934F13309352132093511350935413A0
:10D2D00040935313509356134093551310924E138B
:10D2E00048E453E150934713409346133093491356
:10D2F0002093481350934B1340934A1350934D136C
:10D3000040934C13109245134FE353E150933E1357
:10D3100040933D133093401320933F135093421397
:10D3200040934113509344134093431310923C1382
:10D3300046E353E15093351340933413309337133E
:10D3400020933613509339134093381350933B1363
:10D3500040933A131092331327E533E1309332139D
:10D36000209331132EE433E13093301320932F13A5
:10D3700012C020912E1321110EC0E0919613F0914E
:10D38000971326893981321730F02C813D813093F3
:10D3900097132093961320912D132F5F20932D1315
:10D3A000AC81BD8191962C9391975696EC912091EA
:10D3B0002C132E1710F4E0932C13B9E0EB9FF0011F
:10D3C0001124AF01405A5C4EFA01A181B281EC8177
:10D3D000FD81B583A48314962D913C9115973783D5
:10D3E000268314962D913C911597F901938382839E
:10D3F00015969C938E931497AC81BD811B965C937C
:10D400004E931A97FA0180818F5F80830F900FBE31
:10D4100080912E13882351F0E0919613F091971389
:10D4200086892981821710F40E94086C81E00F9090
:10D430000F900F900F900F90DF91CF911F910F9150
:10D44000FF90EF90DF90CF90BF90AF909F908F9024
:10D450007F906F905F904F903F902F9008950F9224
:10D460000FB6F8940F920BB60F920CB60F921F9254
:10D4700011242F923F924F925F926F927F928F92E0
:10D480009F92AF92BF92CF92DF92EF92FF920F9353
:10D490001F932F933F934F935F936F937F938F933C
:10D4A0009F93AF93BF93CF93DF93EF93FF93A0919D
:10D4B0009613B09197130DB60D920EB60D9213BE42
:10D4C00080910F058111F6C080910B0590910C059C
:10D4D000019690930C0580930B0520910B053091DC
:10D4E0000C052115310599F5809131139091321376
:10D4F00040912F13509130135093321340933113B6
:10D500009093301380932F1380910A058F5F80933F
:10D510000A05E0913113F09132138081811107C027
:10D520008FEF9FEF909309058093080510C0E0915D
:10D530003113F09132130580F681E02D0680F781DA
:10D54000E02D828193819093090580930805809155
:10D550000805909109052817390710F480E09AC052
:10D5600080E019E0E0913113F09132139081911134
:10D5700007C02FEF3FEF30930905209308058AC0BD
:10D58000E0913113F09132130580F681E02D068091
:10D59000F781E02D428153812417350728F45093F9
:10D5A00009054093080576C0AF014E5F5F4FA28525
:10D5B000B38564817581E680F780EB01FD82EC82A2
:10D5C000C681D7817B836A8311966D917C91129776
:10D5D0006417750721F41296DC93CE931197138686
:10D5E00012869C9191509C93A489B5891097F1F073
:10D5F00066857785E088F188EB01FD82EC82C08941
:10D60000D1897B836A831196ED90FC901297BF01BC
:10D61000645F7F4FE616F70621F41296DC93CE93F3
:10D620001197158A148A9C9191509C93A689909188
:10D630002C139A1710F4A0932C131A9FD0011124C5
:10D64000BD01605A7C4E7B01DB011196CD91DC91CE
:10D650001297D583C4836C817D81778366836C81C7
:10D660007D81DB0113965C934E9312975D834C830F
:10D67000F386E286E70198819F5F9883A0919613D5
:10D68000B0919713468956969C91491708F46ACF32
:10D6900081E068CFE0919613F0919713E689D9E085
:10D6A000ED9FF0011124E05AFC4E9081923040F041
:10D6B00081E006C080910D058F5F80930D0580E0AD
:10D6C00090910E05911103C0882309F46FC08091D9
:10D6D0000F05882321F081E080930E0567C010922A
:10D6E0000E05A0919613B0919713E0919613F091C7
:10D6F00097132D913C918789908D82179307D8F0CD
:10D70000809196139091971380919613909197130F
:10D71000279A2F9A2FEF67EA71E6215060407040F8
:10D72000E1F700C000001F9AF5CF80912C138150C3
:10D7300080932C1301C099E0E0912C139E9FF0017F
:10D740001124E05AFC4E8081882379F380912C13B8
:10D7500090E049E0489F9001499F300D1124F90164
:10D76000E05AFC4EA181B28112960D90BC91A02D81
:10D77000B283A1832D593C4EA217B30731F4129600
:10D780002D913C9113973283218329E0289FF0014A
:10D79000299FF00D1124E05AFC4E0180F281E02D0A
:10D7A000868197819093971380939613A0919613F7
:10D7B000B0919713CD91CDBFDD91DEBFFF91EF9179
:10D7C000DF91CF91BF91AF919F918F917F916F9199
:10D7D0005F914F913F912F911F910F91FF90EF908B
:10D7E000DF90CF90BF90AF909F908F907F906F9081
:10D7F0005F904F903F902F901F900F900CBE0F9016
:10D800000BBE0F900FBE0F9008950E942F6A1895BF
:10D810000F920FB6F8940F920BB60F920CB60F92B0
:10D820001F9211242F923F924F925F926F927F929C
:10D830008F929F92AF92BF92CF92DF92EF92FF9220
:10D840000F931F932F933F934F935F936F937F9308
:10D850008F939F93AF93BF93CF93DF93EF93FF93F8
:10D86000A0919613B09197130DB60D920EB60D922E
:10D8700080910F05882321F081E080930E0567C019
:10D8800010920E05A0919613B0919713E091961304
:10D89000F09197132D913C918789908D8217930772
:10D8A000D8F0809196139091971380919613909150
:10D8B0009713279A2F9A2FEF87EA91E621508040FD
:10D8C0009040E1F700C000001F9AF5CF80912C1323
:10D8D000815080932C1301C099E0E0912C139E9FFE
:10D8E000F0011124E05AFC4E8081882379F3809165
:10D8F0002C1390E049E0489F9001499F300D11247E
:10D90000F901E05AFC4EA181B28112960D90BC91B2
:10D91000A02DB283A1832D593C4EA217B30731F439
:10D9200012962D913C9113973283218329E0289FF1
:10D93000F001299FF00D1124E05AFC4E0180F28184
:10D94000E02D868197819093971380939613A091F1
:10D950009613B0919713CD91CDBFDD91DEBFFF91AE
:10D96000EF91DF91CF91BF91AF919F918F917F9177
:10D970006F915F914F913F912F911F910F91FF9068
:10D98000EF90DF90CF90BF90AF909F908F907F905F
:10D990006F905F904F903F902F901F900F900CBE14
:10D9A0000F900BBE0F900FBE0F900895789484B522
:10D9B000826084BD84B5816084BD85B5826085BD8B
:10D9C00085B5816085BD80916E00816080936E0019
:10D9D000109281008091810082608093810080910B
:10D9E00081008160809381008091800081608093BC
:10D9F00080008091B10084608093B1008091B0007C
:10DA000081608093B000809191008260809391004A
:10DA1000809191008160809391008091900081605D
:10DA2000809390008091A10082608093A1008091FA
:10DA3000A10081608093A1008091A000816080930B
:10DA4000A0008091210182608093210180912101B9
:10DA50008160809321018091200181608093200169
:10DA600080917A00846080937A0080917A0082604D
:10DA700080937A0080917A00816080937A0080910F
:10DA80007A00806880937A001092C1000E94B508E5
:10DA90008DE00E94A04B88E20E94A04B8AE00E9489
:10DAA000A04BC090CC15D090CD15E090CE15F09045
:10DAB000CF15C091CA15D091CB1560E079E08DE308
:10DAC00090E0A70196010E942F77DA01C901019722
:10DAD000A109B109B695A795979587959C01E88905
:10DAE000F98982E08083C11481EED806E104F10453
:10DAF00021F0211580E13807A8F0E889F989108222
:10DB000060E874E88EE190E0A70196010E942F770B
:10DB1000DA01C9010197A109B109B695A7959795B1
:10DB200087959C01EC85FD853083EE85FF852083FC
:10DB3000188EEC89FD8986E08083EA89FB898081E3
:10DB400080618083EA89FB89808188608083EA899B
:10DB5000FB89808180688083EA89FB8980818F7D51
:10DB600080831092451A1092441A1092471A10920C
:10DB7000461A10924B1A10924A1A1092491A109291
:10DB8000481AE2E1FAE180E090E021913191232B03
:10DB900081F4FC01EE0FFF1FEE5EF54E24E934E147
:10DBA000318320838C599F4F9093971480939614C0
:10DBB00004C001968931910541F786EA95E10E94FA
:10DBC000BF4B8CE995E10E94BF4B82E995E10E9431
:10DBD000BF4B88E895E10E94BF4B8CE695E10E941F
:10DBE000BF4B82E695E10E94BF4B88E595E10E941C
:10DBF000BF4B8CE395E10E94BF4B82E395E10E940D
:10DC0000BF4B88E295E10E94BF4B80E090E0A8EC1A
:10DC1000B2E48093CB139093CC13A093CD13B09325
:10DC2000CE1380E090E0A1EEB3E48093C71390930D
:10DC3000C813A093C913B093CA1380911A15811108
:10DC400048C0E091FE14F091FF14C080D180E280C2
:10DC5000F380C0920615D0920715E0920815F09255
:10DC60000915E091FC14F091FD1480819181A2814D
:10DC7000B38180930A1590930B15A0930C15B09364
:10DC80000D158090161590901715A0901815B0904E
:10DC90001915A5019401C701B6010E941774181641
:10DCA00084F08090121590901315A0901415B090E8
:10DCB0001515A5019401C701B6010E94747287FF72
:10DCC00008C08092061590920715A0920815B09290
:10DCD000091581E080931A1523E04CEB52E06AECC1
:10DCE00072E08EE195E30E94376223E044E650E063
:10DCF0006EEB72E081E792E30E94376223E04CEB27
:10DD000052E063EB72E082E69AE40E9437620E947E
:10DD1000013BFDCF0FB6F8940F9280910B059091C7
:10DD20000C050F900FBE08954F925F926F927F92F5
:10DD30008F929F92AF92BF92CF92DF92EF92FF921B
:10DD40001092FA131092F91388EE93E0A0E0B0E07D
:10DD50008093FB139093FC13A093FD13B093FE13D9
:10DD600082E592E09093F8138093F71385EC90E0AE
:10DD7000909304148093031484EC90E09093061421
:10DD80008093051480EC90E090930814809307141E
:10DD900081EC90E090930A148093091482EC90E057
:10DDA00090930C1480930B1486EC90E090930E14D7
:10DDB00080930D14109210141092111410921214DA
:10DDC000109213148CE792E09093C9158093C815B4
:10DDD00087EF93E19093CB158093CA1580E091EE85
:10DDE000A0E0B0E08093CC159093CD15A093CE1514
:10DDF000B093CF1510924E1A80E792E090935D1A7F
:10DE000080935C1A10925E1A10925F1A1092601A38
:10DE10001092611A1092671A1092661A1092681A7C
:10DE20001092691A10926A1A10926B1A1092711A53
:10DE30001092701A1092721A1092731A1092741A29
:10DE40001092751A1092791A1092781AE0EEF9E190
:10DE5000119211928AE1E231F807D1F7E2E1FAE199
:10DE6000119211928AE1E434F807D1F7E0EEF5E17E
:10DE7000119287E1E03EF807D9F7E0EEF7E1119261
:10DE800089E1E03EF807D9F71092DC151092DD1514
:10DE90001092DE151092DF1582E992E09093C3157F
:10DEA0008093C2151092C4151092C5151092C61514
:10DEB0001092C7159093BD158093BC151092BE1596
:10DEC0001092BF151092C0151092C1159093B715FE
:10DED0008093B6151092B8151092B9151092BA1514
:10DEE0001092BB159093B1158093B0151092B21596
:10DEF0001092B3151092B4151092B51527E334E0C3
:10DF00003093A7152093A61522EC35E13093A9157F
:10DF10002093A8151092AF151092AE1520E534E0AD
:10DF200030939D1520939C152CEB35E130939F1574
:10DF300020939E151092A5151092A41526E634E0A4
:10DF4000309393152093921526EB35E13093951578
:10DF50002093941510929B1510929A1522E834E0A4
:10DF6000309389152093881520EB35E130938B157C
:10DF700020938A1510929115109290159093831505
:10DF80008093821510928415109285151092861533
:10DF90001092871590937D1580937C1510927E15B5
:10DFA00010927F151092801510928115909377151D
:10DFB00080937615109278151092791510927A1533
:10DFC00010927B152BE934E030936D1520936C157E
:10DFD00022E835E130936F1520936E151092751578
:10DFE000109274152FEA34E0309363152093621574
:10DFF0002CE735E1309365152093641510926B156D
:10E0000010926A1524EC34E030935915209358157A
:10E0100026E735E130935B1520935A151092611570
:10E0200010926015909353158093521510925415C9
:10E0300010925515109256151092571590934D1534
:10E0400080934C1510924E1510924F15109250154A
:10E0500010925115909347158093461510924815CC
:10E060001092491510924A1510924B158BED94E0C1
:10E0700090933D1580933C1522E535E130933F1593
:10E0800020933E1510924515109244159093331528
:10E09000809332152CE435E13093351520933415F7
:10E0A00010923B1510923A159093291580932815DC
:10E0B00086E495E190932B1580932A1510923115E3
:10E0C00010923015C0902415D0902515E09026159B
:10E0D000F09027158090201590902115A090221582
:10E0E000B090231540901C1550901D1560901E1582
:10E0F00070901F1588ED94E19093FF148093FE14A7
:10E100008CED94E19093FD148093FC1484ED94E1E4
:10E11000909301158093001510921A151092121504
:10E1200010921315109214151092151580E090E0BE
:10E13000AFE7B3E48093161590931715A0931815C5
:10E14000B093191584E690E0A0E0B0E080930E153E
:10E1500090930F15A0931015B09311151092F91408
:10E160001092F81420E030E0A901C301B2010E942E
:10E17000747287FD5AC020E030E0A901C501B401E6
:10E180000E94747287FD51C020E030E0A901C701F0
:10E19000B6010E94747287FD48C081E090E09093C0
:10E1A000FB148093FA1480931B154092E014509254
:10E1B000E1146092E2147092E3148092E41490925D
:10E1C000E514A092E614B092E714C092E814D0923D
:10E1D000E914E092EA14F092EB144092EC1450929D
:10E1E000ED146092EE147092EF142DEC3CEC4CECBC
:10E1F0005DE3C501B4010E941C746093F014709338
:10E20000F1148093F2149093F3142DEC3CEC4CEC4D
:10E210005DE3C701B6010E947E726093F4147093AF
:10E22000F5148093F6149093F7140E94F33BC0907A
:10E230000E15D0900F15E0901015F0901115DC011F
:10E24000CB018C199D09AE09BF09809302159093EB
:10E250000315A0930415B093051586E892E09093FA
:10E2600095148093941484E692E090939B14809389
:10E270009A1410929C1410929D1410929E14109255
:10E280009F141092A0141092A1141092A214109234
:10E29000A3141092A4141092A5141092A614109214
:10E2A000A7141092A8141092A9141092AA141092F4
:10E2B000AB141092AC141092AD141092AE141092D4
:10E2C000AF141092B0141092B1141092B2141092B4
:10E2D000B3141092B4141092B5141092B614109294
:10E2E000B7141092B8141092B9141092BA14109274
:10E2F000BB141092BC141092BD141092BE14109254
:10E30000BF141092C0141092C1141092C214109233
:10E31000C3141092C4141092C5141092C614109213
:10E32000C7141092C8141092C9141092CA141092F3
:10E33000CB141092CC141092CD141092CE141092D3
:10E34000CF148EE291E49093D1148093D01481E0A5
:10E3500090E09093D3148093D21486EE94E090933F
:10E36000991480939814FF90EF90DF90CF90BF9016
:10E37000AF909F908F907F906F905F904F90089597
:10E38000DB018F939F930E942477BF91AF91A29F4F
:10E39000800D911DA39F900DB29F900D11240895A3
:10E3A00097FB072E16F4009407D077FD09D00E9442
:10E3B000F37107FC05D03EF4909581959F4F089529
:10E3C000709561957F4F0895EE0FFF1F881F8BBFDB
:10E3D0000790F691E02D19940E945177B7FF0895A8
:10E3E000821B930B0895AA1BBB1B51E107C0AA1FF8
:10E3F000BB1FA617B70710F0A61BB70B881F991FE6
:10E400005A95A9F780959095BC01CD010895505873
:10E41000BB27AA270E941F720C94C9730E94907395
:10E4200038F00E94977320F039F49F3F19F426F4D6
:10E430000C948D730EF4E095E7FB0C948773E92F31
:10E440000E94EE7358F3BA176207730784079507A3
:10E4500020F079F4A6F50C9410740EF4E0950B2ED0
:10E46000BA2FA02D0B01B90190010C01CA01A00126
:10E470001124FF27591B99F0593F50F4503E68F181
:10E480001A16F040A22F232F342F4427585FF3CFC2
:10E49000469537952795A795F0405395C9F77EF493
:10E4A0001F16BA0B620B730B840BBAF09150A1F0DC
:10E4B000FF0FBB1F661F771F881FC2F70EC0BA0F62
:10E4C000621F731F841F48F4879577956795B795EA
:10E4D000F7959E3F08F0B0CF9395880F08F09927E5
:10E4E000EE0F9795879508950E94637308F481E075
:10E4F00008950E94A073E3950C94DA730E949272BF
:10E500000C94C9730E94977358F00E94907340F066
:10E5100029F45F3F29F00C94877351110C94117406
:10E520000C948D730E94EE7368F39923B1F3552315
:10E5300091F3951B550BBB27AA2762177307840716
:10E5400038F09F5F5F4F220F331F441FAA1FA9F3AC
:10E5500035D00E2E3AF0E0E832D091505040E6959A
:10E56000001CCAF72BD0FE2F29D0660F771F881FFB
:10E57000BB1F261737074807AB07B0E809F0BB0BEE
:10E58000802DBF01FF2793585F4F3AF09E3F510502
:10E5900078F00C9487730C9411745F3FE4F3983E09
:10E5A000D4F3869577956795B795F7959F5FC9F7EB
:10E5B000880F911D9695879597F90895E1E0660F6C
:10E5C000771F881FBB1F621773078407BA0720F0E5
:10E5D000621B730B840BBA0BEE1F88F7E09508954E
:10E5E0000E94F7726894B1110C94117408950E94FE
:10E5F000F67388F09F5798F0B92F9927B751B0F06C
:10E60000E1F0660F771F881F991F1AF0BA95C9F7B6
:10E6100014C0B13091F00E941074B1E008950C94D0
:10E620001074672F782F8827B85F39F0B93FCCF383
:10E63000869577956795B395D9F73EF49095809533
:10E64000709561957F4F8F4F9F4F0895E89409C053
:10E6500097FB3EF490958095709561957F4F8F4F15
:10E660009F4F9923A9F0F92F96E9BB279395F6952B
:10E67000879577956795B795F111F8CFFAF4BB0FA9
:10E6800011F460FF1BC06F5F7F4F8F4F9F4F16C00D
:10E69000882311F096E911C0772321F09EE8872F97
:10E6A000762F05C0662371F096E8862F70E060E053
:10E6B0002AF09A95660F771F881FDAF7880F9695CC
:10E6C000879597F90895990F0008550FAA0BE0E870
:10E6D000FEEF16161706E807F907C0F01216130624
:10E6E000E407F50798F0621B730B840B950B39F464
:10E6F0000A2661F0232B242B252B21F408950A26CA
:10E7000009F4A140A6958FEF811D811D089597F909
:10E710009F6780E870E060E008959FEF80EC0895C7
:10E7200000240A94161617061806090608950024F0
:10E730000A94121613061406050608950C948D7398
:10E740000E94F673D8F3E894E0E0BB279F57F0F0FF
:10E750002AED3FE049EC06C0EE0FBB0F661F771FA6
:10E76000881F28F0B23A62077307840728F0B25A6C
:10E77000620B730B840BE3959A9572F7803830F433
:10E780009A95BB0F661F771F881FD2F790480C948D
:10E790009374092E0394000C11F4882352F0BB0FDC
:10E7A00040F4BF2B11F460FF04C06F5F7F4F8F4FA9
:10E7B0009F4F0895EF93E0FF07C0A2EA2AED3FE0E4
:10E7C00049EC5FEB0E941F720E94C9730F90039483
:10E7D00001FC9058E0E4F1E00C949F7457FD9058D0
:10E7E000440F551F59F05F3F71F04795880F97FB15
:10E7F000991F61F09F3F79F08795089512161306CF
:10E800001406551FF2CF4695F1DF08C016161706FD
:10E810001806991FF1CF8695710561050894089532
:10E82000E894BB2766277727CB0197F908950E94C4
:10E83000637308F48FEF08950E942F740C94C973CA
:10E840000E94907338F00E94977320F0952311F086
:10E850000C9487730C948D7311240C9411740E9482
:10E86000EE7370F3959FC1F3950F50E0551F629FB3
:10E87000F001729FBB27F00DB11D639FAA27F00D19
:10E88000B11DAA1F649F6627B00DA11D661F829F40
:10E890002227B00DA11D621F739FB00DA11D621F25
:10E8A000839FA00D611D221F749F3327A00D611D42
:10E8B000231F849F600D211D822F762F6A2F112424
:10E8C0009F5750409AF0F1F088234AF0EE0FFF1F57
:10E8D000BB1F661F771F881F91505040A9F79E3FAE
:10E8E000510580F00C9487730C9411745F3FE4F32E
:10E8F000983ED4F3869577956795B795F795E79504
:10E900009F5FC1F7FE2B880F911D9695879597F90C
:10E9100008959F930E94A0730F9007FCEE5F0C94E4
:10E92000DA739F3F31F0915020F487957795679582
:10E93000B795880F911D9695879597F908959F93A0
:10E940008F937F936F93FF93EF939B01AC010E9492
:10E950001C74EF91FF910E94B3742F913F914F91DE
:10E960005F910C941C74DF93CF931F930F93FF92CE
:10E97000EF92DF927B018C01689406C0DA2EEF01E2
:10E980000E942F74FE01E894A5912591359145913F
:10E990005591A6F3EF010E941F72FE019701A80195
:10E9A000DA9469F7DF90EF90FF900F911F91CF916C
:10E9B000DF9108956F927F928F929F92AF92BF9254
:10E9C000CF92DF92EF92FF920F931F93CF93DF933B
:10E9D000EC01009789F4CB01DF91CF911F910F914A
:10E9E000FF90EF90DF90CF90BF90AF909F908F906F
:10E9F0007F906F900C94D875FC01E60FF71F9C0177
:10EA000022503109E217F30708F4ACC0D9010D9187
:10EA10001C91119706171707B0F00530110508F47F
:10EA20009FC0C80104978617970708F499C0025041
:10EA30001109061B170B019311936D937C93CF0162
:10EA40000E946D768DC05B01A01AB10A4C01800E48
:10EA5000911EA0917C1AB0917D1A40E050E0E12C0B
:10EA6000F12C109709F44AC0A815B905D1F56D909D
:10EA70007C901197630182E0C80ED11CCA14DB049C
:10EA800080F1A3014A195B096A0182E0C80ED11C1A
:10EA90001296BC9012971396AC91B5E0CB16D104A8
:10EAA00040F0B282A38351834083D9016D937C935C
:10EAB0000AC00E5F1F4FC301800F911FF9019183A0
:10EAC0008083EB2DFA2FE114F10431F0D701139676
:10EAD000FC93EE93129744C0F0937D1AE0937C1A56
:10EAE0003FC08D919C9111974817590708F4AC01CC
:10EAF0007D0112960D90BC91A02DB3CF80917A1A12
:10EB000090917B1A88159905E1F446175707C8F4C8
:10EB10008091000290910102009741F48DB79EB759
:10EB20004091040250910502841B950BE817F907E8
:10EB3000C8F4F0937B1AE0937A1AF9017183608329
:10EB40000FC0CB010E94D8757C01009759F0A80135
:10EB5000BE010E94C875CE010E946D76C70104C037
:10EB6000CE0102C080E090E0DF91CF911F910F9124
:10EB7000FF90EF90DF90CF90BF90AF909F908F90DD
:10EB80007F906F90089581E090E0F8940C94607706
:10EB9000FB01DC0102C001900D9241505040D8F7BA
:10EBA0000895DC0101C06D9341505040E0F7089595
:10EBB000CF93DF938230910510F482E090E0E091F2
:10EBC0007C1AF0917D1A20E030E0C0E0D0E0309770
:10EBD00011F14081518148175907C0F04817590772
:10EBE00061F482819381209719F09B838A832BC0E3
:10EBF00090937D1A80937C1A26C02115310519F057
:10EC00004217530718F49A01BE01DF01EF01028099
:10EC1000F381E02DDCCF2115310509F1281B390BDB
:10EC20002430310590F412968D919C9113976115C3
:10EC3000710521F0FB019383828304C090937D1AB8
:10EC400080937C1AFD01329644C0FD01E20FF31F50
:10EC500081939193225031092D933C933AC0209196
:10EC60007A1A30917B1A232B41F4209102023091C1
:10EC7000030230937B1A20937A1A2091000230917C
:10EC800001022115310541F42DB73EB74091040230
:10EC900050910502241B350BE0917A1AF0917B1AF2
:10ECA000E217F307A0F42E1B3F0B2817390778F063
:10ECB000AC014E5F5F4F2417350748F04E0F5F1FC2
:10ECC00050937B1A40937A1A8193919302C0E0E0AB
:10ECD000F0E0CF01DF91CF9108950F931F93CF9371
:10ECE000DF93009709F48CC0FC01329713821282E3
:10ECF00000917C1A10917D1A0115110581F4208173
:10ED00003181820F931F20917A1A30917B1A281734
:10ED1000390779F5F0937B1AE0937A1A71C0D8011C
:10ED200040E050E0AE17BF0750F412962D913C9191
:10ED30001397AD012115310509F1D901F3CF9D01DB
:10ED4000DA013383228360817181860F971F8217D6
:10ED5000930769F4EC0128813981260F371F2E5F54
:10ED60003F4F318320838A819B8193838283452B0C
:10ED700029F4F0937D1AE0937C1A42C01396FC9319
:10ED8000EE931297ED01499159919E01240F351F81
:10ED9000E217F30771F480819181840F951F029629
:10EDA00011969C938E938281938113969C938E935C
:10EDB0001297E0E0F0E0D80112968D919C911397A4
:10EDC000009719F0F8018C01F6CF8D919C91980174
:10EDD0002E5F3F4F820F931F20917A1A30917B1A3A
:10EDE0002817390769F4309729F410927D1A109288
:10EDF0007C1A02C01382128210937B1A00937A1A33
:10EE0000DF91CF911F910F910895052E97FB1EF46E
:10EE100000940E941C7757FD07D00E942F7707FCB3
:10EE200003D04EF40C941C77509540953095219565
:10EE30003F4F4F4F5F4F0895909580957095619526
:10EE40007F4F8F4F9F4F08950E945177A59F900D40
:10EE5000B49F900DA49F800D911D11240895A1E2EF
:10EE60001A2EAA1BBB1BFD010DC0AA1FBB1FEE1F44
:10EE7000FF1FA217B307E407F50720F0A21BB30B8F
:10EE8000E40BF50B661F771F881F991F1A9469F70B
:10EE900060957095809590959B01AC01BD01CF0167
:10EEA0000895A29FB001B39FC001A39F700D811D63
:10EEB0001124911DB29F700D811D1124911D089583
:04EEC000F894FFCFF4
:10EEC40000007E1A800001000000000000000A41DA
:10EED400C440C140BE400000000039467642B540FF
:10EEE400B240726F7373657269616C5F6D7367733F
:10EEF4002F52657175657374506172616D00000005
:10EF04000000000000006546CE42BB40B84000004F
:10EF14000000983A013A303ADF3A613A3F3A533ABC
:10EF240000000000A63EB03DAD3DAA3D000000003B
:10EF34006D45BE43AF40AC4000000000B83CF6460F
:10EF4400A93C000000005D3DB43CB13CAE3C000077
:10EF540000002A40803F7D3F7A3F000000003A3B9A
:10EF64003A3B3A3B3A3B546D722053766300494432
:10EF74004C450053656E736F725461736B00436F3D
:10EF84006E74726F6C5461736B00555342546173A9
:10EF94006B00633833383839313837636631303190
:10EFA400623234346563393130663764656433649E
:10EFB40032660064796E616D69635F696E7465724F
:10EFC400666163652F6D656E736167656D004D6580
:10EFD40073736167652066726F6D2064657669631B
:10EFE400652064726F707065643A206D6573736137
:10EFF4006765206C6172676572207468616E206257
:10F0040075666665722E006664623238323130622B
:10F0140066613964376339313134363236303137E9
:10F0240038643961353834007374645F6D736773A1
:10F034002F466C6F61743634003966306539386236
:10F04400646136353938313938366464663533614C
:10F054006661376134306534390031316162643757
:10F0640033316332353933333236316364363138D0
:10F074003362643132643632393500726F737365CA
:10F084007269616C5F6D7367732F4C6F67003061D9
:10F0940064353166383866633434383932663863F7
:10F0A4003130363834303737363436303035007214
:10F0B4006F7373657269616C5F6D7367732F546FDF
:10F0C400706963496E666F0063643731363663373F
:10F0D4003463353532633331316662636332666576
:10F0E4003561376263323839007374645F6D7367F6
:10F0F400732F54696D650061726475696E6F63681E
:10F10400617474657276656C6F63696461646500CB
:10F1140061726475696E6F63686174746572706F2F
:10F12400736963616F0061726475696E6F636861AE
:10F134007474657276656C6F636964616465726525
:10F14400660061726475696E6F6368617474657278
:10F15400706F736963616F7265660061726475696B
:10F164006E6F63686174746572696E707574006142
:10F17400726475696E6F636861747465726F7574B7
:10F184007075740061726475696E6F63686174741C
:10F194006572736574706F696E74006F76657272F0
:0EF1A400756E75736200636861747465720045
:00000001FF
